{"contracts/UniV3QuoterCore.sol":{"UniV3QuoterCore":{"abi":[{"inputs":[{"internalType":"address","name":"poolAddress","type":"address"},{"internalType":"bool","name":"zeroForOne","type":"bool"},{"internalType":"int256","name":"amountSpecified","type":"int256"},{"internalType":"uint160","name":"sqrtPriceLimitX96","type":"uint160"}],"name":"quote","outputs":[{"internalType":"int256","name":"amount0","type":"int256"},{"internalType":"int256","name":"amount1","type":"int256"}],"stateMutability":"view","type":"function"}],"devdoc":{"kind":"dev","methods":{},"version":1},"evm":{"bytecode":{"linkReferences":{},"object":"608060405234801561001057600080fd5b50611a9a806100206000396000f3fe608060405234801561001057600080fd5b506004361061002b5760003560e01c806390405d3614610030575b600080fd5b61006c6004803603608081101561004657600080fd5b506001600160a01b03813581169160208101351515916040820135916060013516610085565b6040805192835260208301919091528051918290030190f35b600080836100da576040805162461bcd60e51b815260206004820152601e60248201527f616d6f756e745370656369666965642063616e6e6f74206265207a65726f0000604482015290519081900360640190fd5b60008085139080806100ee8a8a8a8a610343565b9250925092505b80511580159061011b5750866001600160a01b031681604001516001600160a01b031614155b1561030c576101286119da565b60408201516001600160a01b03168152606082015161014a908c90868d6103d6565b6001600160a01b031660608401819052901515604080850191909152600292830b90920b60208401529083015161019891610187908d908c610433565b6080850151855161ffff8816610480565b60c085015260a084015260808301526001600160a01b0316604083015284156101fa576101ce8160c00151826080015101610672565b825103825260a08101516101f0906101e590610672565b602084015190610688565b6020830152610235565b6102078160a00151610672565b825101825260c0810151608082015161022f916102249101610672565b6020840151906106a4565b60208301525b80606001516001600160a01b031682604001516001600160a01b031614156102cb578060400151156102a25760006102718c83602001516106ba565b5050505050509150508a15610284576000035b610292836080015182610781565b6001600160801b03166080840152505b896102b15780602001516102ba565b60018160200151035b600290810b900b6060830152610306565b80600001516001600160a01b031682604001516001600160a01b031614610306576102f98260400151610837565b600290810b900b60608301525b506100f5565b8315158915151461032557602081015181518903610332565b8060000151880381602001515b909b909a5098505050505050505050565b60008061034e611a16565b600061035988610b56565b905061036a87868360000151610c04565b61037388610cd5565b9350806040015192506040518060a001604052808781526020016000815260200182600001516001600160a01b03168152602001826020015160020b81526020016103bd8a610d44565b6001600160801b03168152509150509450945094915050565b60008060006103e787878787610d7f565b9093509150620d89e719600284900b121561040857620d89e719925061041e565b620d89e8600284900b131561041e57620d89e892505b61042783610d9b565b90509450945094915050565b60008361045457816001600160a01b0316836001600160a01b03161161046a565b816001600160a01b0316836001600160a01b0316105b6104745782610476565b815b90505b9392505050565b60008080806001600160a01b03808916908a1610158187128015906105055760006104b98989620f42400362ffffff16620f42406110cd565b9050826104d2576104cd8c8c8c600161117c565b6104df565b6104df8b8d8c60016111f7565b95508581106104f0578a96506104ff565b6104fc8c8b83866112a2565b96505b5061054f565b8161051c576105178b8b8b60006111f7565b610529565b6105298a8c8b600061117c565b935083886000031061053d5789955061054f565b61054c8b8a8a600003856112ee565b95505b6001600160a01b038a81169087161482156105b25780801561056e5750815b6105845761057f878d8c60016111f7565b610586565b855b9550808015610593575081155b6105a9576105a4878d8c600061117c565b6105ab565b845b94506105fc565b8080156105bc5750815b6105d2576105cd8c888c600161117c565b6105d4565b855b95508080156105e1575081155b6105f7576105f28c888c60006111f7565b6105f9565b845b94505b8115801561060c57508860000385115b15610618578860000394505b81801561063757508a6001600160a01b0316876001600160a01b031614155b15610646578589039350610663565b610660868962ffffff168a620f42400362ffffff1661133a565b93505b50505095509550955095915050565b6000600160ff1b821061068457600080fd5b5090565b8082038281131560008312151461069e57600080fd5b92915050565b8181018281121560008312151461069e57600080fd5b600080600080600080600080896001600160a01b031663f30dba938a6040518263ffffffff1660e01b8152600401808260020b81526020019150506101006040518083038186803b15801561070e57600080fd5b505afa158015610722573d6000803e3d6000fd5b505050506040513d61010081101561073957600080fd5b508051602082015160408301516060840151608085015160a086015160c087015160e090970151959e50939c50919a5098509650945090925090509295985092959890939650565b60008082600f0b12156107e657826001600160801b03168260000384039150816001600160801b0316106107e1576040805162461bcd60e51b81526020600482015260026024820152614c5360f01b604482015290519081900360640190fd5b61069e565b826001600160801b03168284019150816001600160801b0316101561069e576040805162461bcd60e51b81526020600482015260026024820152614c4160f01b604482015290519081900360640190fd5b60006401000276a36001600160a01b03831610801590610873575073fffd8963efd1fc6a506488495d951d5263988d266001600160a01b038316105b6108a8576040805162461bcd60e51b81526020600482015260016024820152602960f91b604482015290519081900360640190fd5b640100000000600160c01b03602083901b166001600160801b03811160071b81811c67ffffffffffffffff811160061b90811c63ffffffff811160051b90811c61ffff811160041b90811c60ff8111600390811b91821c600f811160021b90811c918211600190811b92831c9790881196179094179092171790911717176080811061093c57607f810383901c9150610946565b80607f0383901b91505b908002607f81811c60ff83811c9190911c800280831c81831c1c800280841c81841c1c800280851c81851c1c800280861c81861c1c800280871c81871c1c800280881c81881c1c800280891c81891c1c8002808a1c818a1c1c8002808b1c818b1c1c8002808c1c818c1c1c8002808d1c818d1c1c8002808e1c9c81901c9c909c1c80029c8d901c9e9d607f198f0160401b60c09190911c678000000000000000161760c19b909b1c674000000000000000169a909a1760c29990991c672000000000000000169890981760c39790971c671000000000000000169690961760c49590951c670800000000000000169490941760c59390931c670400000000000000169290921760c69190911c670200000000000000161760c79190911c670100000000000000161760c89190911c6680000000000000161760c99190911c6640000000000000161760ca9190911c6620000000000000161760cb9190911c6610000000000000161760cc9190911c6608000000000000161760cd9190911c66040000000000001617693627a301d71055774c8581026f028f6481ab7f045a5af012a19d003aa9198101608090811d906fdb2df09e81959a81455e260799a0632f8301901d600281810b9083900b14610b4757886001600160a01b0316610b2b82610d9b565b6001600160a01b03161115610b405781610b42565b805b610b49565b815b9998505050505050505050565b610b5e611a44565b610b6782611374565b816040019061ffff16908161ffff1681525050816001600160a01b0316633850c7bd6040518163ffffffff1660e01b815260040160e06040518083038186803b158015610bb357600080fd5b505afa158015610bc7573d6000803e3d6000fd5b505050506040513d60e0811015610bdd57600080fd5b508051602091820151600290810b900b918301919091526001600160a01b03168152919050565b600083610c4d57816001600160a01b0316836001600160a01b0316118015610c48575073fffd8963efd1fc6a506488495d951d5263988d266001600160a01b038416105b610c7b565b816001600160a01b0316836001600160a01b0316108015610c7b57506401000276a36001600160a01b038416115b905080610ccf576040805162461bcd60e51b815260206004820152601c60248201527f7371727450726963654c696d6974206f7574206f6620626f756e647300000000604482015290519081900360640190fd5b50505050565b6000816001600160a01b031663d0c93a7c6040518163ffffffff1660e01b815260040160206040518083038186803b158015610d1057600080fd5b505afa158015610d24573d6000803e3d6000fd5b505050506040513d6020811015610d3a57600080fd5b505190505b919050565b6000816001600160a01b0316631a6865026040518163ffffffff1660e01b815260040160206040518083038186803b158015610d1057600080fd5b600080610d8e8686868661144b565b9150915094509492505050565b60008060008360020b12610db2578260020b610dba565b8260020b6000035b9050620d89e8811115610df8576040805162461bcd60e51b81526020600482015260016024820152601560fa1b604482015290519081900360640190fd5b600060018216610e0c57600160801b610e1e565b6ffffcb933bd6fad37aa2d162d1a5940015b70ffffffffffffffffffffffffffffffffff1690506002821615610e52576ffff97272373d413259a46990580e213a0260801c5b6004821615610e71576ffff2e50f5f656932ef12357cf3c7fdcc0260801c5b6008821615610e90576fffe5caca7e10e4e61c3624eaa0941cd00260801c5b6010821615610eaf576fffcb9843d60f6159c9db58835c9266440260801c5b6020821615610ece576fff973b41fa98c081472e6896dfb254c00260801c5b6040821615610eed576fff2ea16466c96a3843ec78b326b528610260801c5b6080821615610f0c576ffe5dee046a99a2a811c461f1969c30530260801c5b610100821615610f2c576ffcbe86c7900a88aedcffc83b479aa3a40260801c5b610200821615610f4c576ff987a7253ac413176f2b074cf7815e540260801c5b610400821615610f6c576ff3392b0822b70005940c7a398e4b70f30260801c5b610800821615610f8c576fe7159475a2c29b7443b29c7fa6e889d90260801c5b611000821615610fac576fd097f3bdfd2022b8845ad8f792aa58250260801c5b612000821615610fcc576fa9f746462d870fdf8a65dc1f90e061e50260801c5b614000821615610fec576f70d869a156d2a1b890bb3df62baf32f70260801c5b61800082161561100c576f31be135f97d08fd981231505542fcfa60260801c5b6201000082161561102d576f09aa508b5b7a84e1c677de54f3e99bc90260801c5b6202000082161561104d576e5d6af8dedb81196699c329225ee6040260801c5b6204000082161561106c576d2216e584f5fa1ea926041bedfe980260801c5b62080000821615611089576b048a170391f7dc42444e8fa20260801c5b60008460020b13156110a45780600019816110a057fe5b0490505b6401000000008106156110b85760016110bb565b60005b60ff16602082901c0192505050919050565b600080806000198587098686029250828110908390030390508061110357600084116110f857600080fd5b508290049050610479565b80841161110f57600080fd5b6000848688096000868103871696879004966002600389028118808a02820302808a02820302808a02820302808a02820302808a02820302808a02909103029181900381900460010186841190950394909402919094039290920491909117919091029150509392505050565b6000836001600160a01b0316856001600160a01b0316111561119c579293925b816111c9576111c4836001600160801b03168686036001600160a01b0316600160601b6110cd565b6111ec565b6111ec836001600160801b03168686036001600160a01b0316600160601b61133a565b90505b949350505050565b6000836001600160a01b0316856001600160a01b03161115611217579293925b600160601b600160e01b03606084901b166001600160a01b03868603811690871661124157600080fd5b8361127157866001600160a01b03166112648383896001600160a01b03166110cd565b8161126b57fe5b04611297565b6112976112888383896001600160a01b031661133a565b886001600160a01b0316611649565b979650505050505050565b600080856001600160a01b0316116112b957600080fd5b6000846001600160801b0316116112cf57600080fd5b816112e1576111c48585856001611654565b6111ec8585856001611735565b600080856001600160a01b03161161130557600080fd5b6000846001600160801b03161161131b57600080fd5b8161132d576111c48585856000611735565b6111ec8585856000611654565b60006113478484846110cd565b90506000828061135357fe5b848609111561047957600019811061136a57600080fd5b6001019392505050565b6000816001600160a01b031663da3c300d6040518163ffffffff1660e01b815260040160206040518083038186803b1580156113af57600080fd5b505afa9250505080156113d457506040513d60208110156113cf57600080fd5b505160015b61144457816001600160a01b031663ddca3f436040518163ffffffff1660e01b815260040160206040518083038186803b15801561141157600080fd5b505afa158015611425573d6000803e3d6000fd5b505050506040513d602081101561143b57600080fd5b50519050610d3f565b9050610d3f565b6000808581600286810b9088900b8161146057fe5b05905060008760020b12801561148757508560020b8760020b8161148057fe5b0760020b15155b1561149157600019015b8415611568576000806114a383611818565b6040805163299ce14b60e11b8152600184810b6004830152915193955091935060ff84161b8001600019019160009183916001600160a01b03891691635339c296916024808301926020929190829003018186803b15801561150457600080fd5b505afa158015611518573d6000803e3d6000fd5b505050506040513d602081101561152e57600080fd5b505116801515975090508661154a57898360ff1686030261155d565b896115548261182a565b840360ff168603025b97505050505061163e565b60008061157783600101611818565b91509150600060018260ff166001901b03199050600081866001600160a01b0316635339c296866040518263ffffffff1660e01b8152600401808260010b815260200191505060206040518083038186803b1580156115d557600080fd5b505afa1580156115e9573d6000803e3d6000fd5b505050506040513d60208110156115ff57600080fd5b505116801515975090508661162157898360ff0360ff16866001010102611637565b898361162c836118ca565b0360ff168660010101025b9750505050505b505094509492505050565b808204910615150190565b600081156116c75760006001600160a01b0384111561168a5761168584600160601b876001600160801b03166110cd565b6116a2565b6001600160801b038516606085901b816116a057fe5b045b90506116bf6116ba6001600160a01b038816836119b4565b6119c4565b9150506111ef565b60006001600160a01b038411156116f5576116f084600160601b876001600160801b031661133a565b61170c565b61170c606085901b6001600160801b038716611649565b905080866001600160a01b03161161172357600080fd5b6001600160a01b0386160390506111ef565b6000826117435750836111ef565b600160601b600160e01b03606085901b1682156117d1576001600160a01b0386168481029085828161177157fe5b0414156117a2578181018281106117a05761179683896001600160a01b03168361133a565b93505050506111ef565b505b6117c8826117c3878a6001600160a01b031686816117bc57fe5b04906119b4565b611649565b925050506111ef565b6001600160a01b038616848102908582816117e857fe5b041480156117f557508082115b6117fe57600080fd5b8082036117966116ba846001600160a01b038b168461133a565b60020b600881901d9161010090910790565b600080821161183857600080fd5b600160801b821061184b57608091821c91015b68010000000000000000821061186357604091821c91015b640100000000821061187757602091821c91015b62010000821061188957601091821c91015b610100821061189a57600891821c91015b601082106118aa57600491821c91015b600482106118ba57600291821c91015b60028210610d3f57600101919050565b60008082116118d857600080fd5b5060ff6001600160801b038216156118f357607f19016118fb565b608082901c91505b67ffffffffffffffff82161561191457603f190161191c565b604082901c91505b63ffffffff82161561193157601f1901611939565b602082901c91505b61ffff82161561194c57600f1901611954565b601082901c91505b60ff821615611966576007190161196e565b600882901c91505b600f8216156119805760031901611988565b600482901c91505b600382161561199a57600119016119a2565b600282901c91505b6001821615610d3f5760001901919050565b8082018281101561069e57600080fd5b806001600160a01b0381168114610d3f57600080fd5b6040805160e081018252600080825260208201819052918101829052606081018290526080810182905260a0810182905260c081019190915290565b6040805160a08101825260008082526020820181905291810182905260608101829052608081019190915290565b60408051606081018252600080825260208201819052918101919091529056fea26469706673582212201dc6bcc1f533379e2156bbe04e9433e7edb8e0c53cda76424533f0d444c3ddf564736f6c63430007060033","opcodes":"PUSH1 0x80 PUSH1 0x40 MSTORE CALLVALUE DUP1 ISZERO PUSH2 0x10 JUMPI PUSH1 0x0 DUP1 REVERT JUMPDEST POP PUSH2 0x1A9A DUP1 PUSH2 0x20 PUSH1 0x0 CODECOPY PUSH1 0x0 RETURN INVALID PUSH1 0x80 PUSH1 0x40 MSTORE CALLVALUE DUP1 ISZERO PUSH2 0x10 JUMPI PUSH1 0x0 DUP1 REVERT JUMPDEST POP PUSH1 0x4 CALLDATASIZE LT PUSH2 0x2B JUMPI PUSH1 0x0 CALLDATALOAD PUSH1 0xE0 SHR DUP1 PUSH4 0x90405D36 EQ PUSH2 0x30 JUMPI JUMPDEST PUSH1 0x0 DUP1 REVERT JUMPDEST PUSH2 0x6C PUSH1 0x4 DUP1 CALLDATASIZE SUB PUSH1 0x80 DUP2 LT ISZERO PUSH2 0x46 JUMPI PUSH1 0x0 DUP1 REVERT JUMPDEST POP PUSH1 0x1 PUSH1 0x1 PUSH1 0xA0 SHL SUB DUP2 CALLDATALOAD DUP2 AND SWAP2 PUSH1 0x20 DUP2 ADD CALLDATALOAD ISZERO ISZERO SWAP2 PUSH1 0x40 DUP3 ADD CALLDATALOAD SWAP2 PUSH1 0x60 ADD CALLDATALOAD AND PUSH2 0x85 JUMP JUMPDEST PUSH1 0x40 DUP1 MLOAD SWAP3 DUP4 MSTORE PUSH1 0x20 DUP4 ADD SWAP2 SWAP1 SWAP2 MSTORE DUP1 MLOAD SWAP2 DUP3 SWAP1 SUB ADD SWAP1 RETURN JUMPDEST PUSH1 0x0 DUP1 DUP4 PUSH2 0xDA JUMPI PUSH1 0x40 DUP1 MLOAD PUSH3 0x461BCD PUSH1 0xE5 SHL DUP2 MSTORE PUSH1 0x20 PUSH1 0x4 DUP3 ADD MSTORE PUSH1 0x1E PUSH1 0x24 DUP3 ADD MSTORE PUSH32 0x616D6F756E745370656369666965642063616E6E6F74206265207A65726F0000 PUSH1 0x44 DUP3 ADD MSTORE SWAP1 MLOAD SWAP1 DUP2 SWAP1 SUB PUSH1 0x64 ADD SWAP1 REVERT JUMPDEST PUSH1 0x0 DUP1 DUP6 SGT SWAP1 DUP1 DUP1 PUSH2 0xEE DUP11 DUP11 DUP11 DUP11 PUSH2 0x343 JUMP JUMPDEST SWAP3 POP SWAP3 POP SWAP3 POP JUMPDEST DUP1 MLOAD ISZERO DUP1 ISZERO SWAP1 PUSH2 0x11B JUMPI POP DUP7 PUSH1 0x1 PUSH1 0x1 PUSH1 0xA0 SHL SUB AND DUP2 PUSH1 0x40 ADD MLOAD PUSH1 0x1 PUSH1 0x1 PUSH1 0xA0 SHL SUB AND EQ ISZERO JUMPDEST ISZERO PUSH2 0x30C JUMPI PUSH2 0x128 PUSH2 0x19DA JUMP JUMPDEST PUSH1 0x40 DUP3 ADD MLOAD PUSH1 0x1 PUSH1 0x1 PUSH1 0xA0 SHL SUB AND DUP2 MSTORE PUSH1 0x60 DUP3 ADD MLOAD PUSH2 0x14A SWAP1 DUP13 SWAP1 DUP7 DUP14 PUSH2 0x3D6 JUMP JUMPDEST PUSH1 0x1 PUSH1 0x1 PUSH1 0xA0 SHL SUB AND PUSH1 0x60 DUP5 ADD DUP2 SWAP1 MSTORE SWAP1 ISZERO ISZERO PUSH1 0x40 DUP1 DUP6 ADD SWAP2 SWAP1 SWAP2 MSTORE PUSH1 0x2 SWAP3 DUP4 SIGNEXTEND SWAP1 SWAP3 SIGNEXTEND PUSH1 0x20 DUP5 ADD MSTORE SWAP1 DUP4 ADD MLOAD PUSH2 0x198 SWAP2 PUSH2 0x187 SWAP1 DUP14 SWAP1 DUP13 PUSH2 0x433 JUMP JUMPDEST PUSH1 0x80 DUP6 ADD MLOAD DUP6 MLOAD PUSH2 0xFFFF DUP9 AND PUSH2 0x480 JUMP JUMPDEST PUSH1 0xC0 DUP6 ADD MSTORE PUSH1 0xA0 DUP5 ADD MSTORE PUSH1 0x80 DUP4 ADD MSTORE PUSH1 0x1 PUSH1 0x1 PUSH1 0xA0 SHL SUB AND PUSH1 0x40 DUP4 ADD MSTORE DUP5 ISZERO PUSH2 0x1FA JUMPI PUSH2 0x1CE DUP2 PUSH1 0xC0 ADD MLOAD DUP3 PUSH1 0x80 ADD MLOAD ADD PUSH2 0x672 JUMP JUMPDEST DUP3 MLOAD SUB DUP3 MSTORE PUSH1 0xA0 DUP2 ADD MLOAD PUSH2 0x1F0 SWAP1 PUSH2 0x1E5 SWAP1 PUSH2 0x672 JUMP JUMPDEST PUSH1 0x20 DUP5 ADD MLOAD SWAP1 PUSH2 0x688 JUMP JUMPDEST PUSH1 0x20 DUP4 ADD MSTORE PUSH2 0x235 JUMP JUMPDEST PUSH2 0x207 DUP2 PUSH1 0xA0 ADD MLOAD PUSH2 0x672 JUMP JUMPDEST DUP3 MLOAD ADD DUP3 MSTORE PUSH1 0xC0 DUP2 ADD MLOAD PUSH1 0x80 DUP3 ADD MLOAD PUSH2 0x22F SWAP2 PUSH2 0x224 SWAP2 ADD PUSH2 0x672 JUMP JUMPDEST PUSH1 0x20 DUP5 ADD MLOAD SWAP1 PUSH2 0x6A4 JUMP JUMPDEST PUSH1 0x20 DUP4 ADD MSTORE JUMPDEST DUP1 PUSH1 0x60 ADD MLOAD PUSH1 0x1 PUSH1 0x1 PUSH1 0xA0 SHL SUB AND DUP3 PUSH1 0x40 ADD MLOAD PUSH1 0x1 PUSH1 0x1 PUSH1 0xA0 SHL SUB AND EQ ISZERO PUSH2 0x2CB JUMPI DUP1 PUSH1 0x40 ADD MLOAD ISZERO PUSH2 0x2A2 JUMPI PUSH1 0x0 PUSH2 0x271 DUP13 DUP4 PUSH1 0x20 ADD MLOAD PUSH2 0x6BA JUMP JUMPDEST POP POP POP POP POP POP SWAP2 POP POP DUP11 ISZERO PUSH2 0x284 JUMPI PUSH1 0x0 SUB JUMPDEST PUSH2 0x292 DUP4 PUSH1 0x80 ADD MLOAD DUP3 PUSH2 0x781 JUMP JUMPDEST PUSH1 0x1 PUSH1 0x1 PUSH1 0x80 SHL SUB AND PUSH1 0x80 DUP5 ADD MSTORE POP JUMPDEST DUP10 PUSH2 0x2B1 JUMPI DUP1 PUSH1 0x20 ADD MLOAD PUSH2 0x2BA JUMP JUMPDEST PUSH1 0x1 DUP2 PUSH1 0x20 ADD MLOAD SUB JUMPDEST PUSH1 0x2 SWAP1 DUP2 SIGNEXTEND SWAP1 SIGNEXTEND PUSH1 0x60 DUP4 ADD MSTORE PUSH2 0x306 JUMP JUMPDEST DUP1 PUSH1 0x0 ADD MLOAD PUSH1 0x1 PUSH1 0x1 PUSH1 0xA0 SHL SUB AND DUP3 PUSH1 0x40 ADD MLOAD PUSH1 0x1 PUSH1 0x1 PUSH1 0xA0 SHL SUB AND EQ PUSH2 0x306 JUMPI PUSH2 0x2F9 DUP3 PUSH1 0x40 ADD MLOAD PUSH2 0x837 JUMP JUMPDEST PUSH1 0x2 SWAP1 DUP2 SIGNEXTEND SWAP1 SIGNEXTEND PUSH1 0x60 DUP4 ADD MSTORE JUMPDEST POP PUSH2 0xF5 JUMP JUMPDEST DUP4 ISZERO ISZERO DUP10 ISZERO ISZERO EQ PUSH2 0x325 JUMPI PUSH1 0x20 DUP2 ADD MLOAD DUP2 MLOAD DUP10 SUB PUSH2 0x332 JUMP JUMPDEST DUP1 PUSH1 0x0 ADD MLOAD DUP9 SUB DUP2 PUSH1 0x20 ADD MLOAD JUMPDEST SWAP1 SWAP12 SWAP1 SWAP11 POP SWAP9 POP POP POP POP POP POP POP POP POP JUMP JUMPDEST PUSH1 0x0 DUP1 PUSH2 0x34E PUSH2 0x1A16 JUMP JUMPDEST PUSH1 0x0 PUSH2 0x359 DUP9 PUSH2 0xB56 JUMP JUMPDEST SWAP1 POP PUSH2 0x36A DUP8 DUP7 DUP4 PUSH1 0x0 ADD MLOAD PUSH2 0xC04 JUMP JUMPDEST PUSH2 0x373 DUP9 PUSH2 0xCD5 JUMP JUMPDEST SWAP4 POP DUP1 PUSH1 0x40 ADD MLOAD SWAP3 POP PUSH1 0x40 MLOAD DUP1 PUSH1 0xA0 ADD PUSH1 0x40 MSTORE DUP1 DUP8 DUP2 MSTORE PUSH1 0x20 ADD PUSH1 0x0 DUP2 MSTORE PUSH1 0x20 ADD DUP3 PUSH1 0x0 ADD MLOAD PUSH1 0x1 PUSH1 0x1 PUSH1 0xA0 SHL SUB AND DUP2 MSTORE PUSH1 0x20 ADD DUP3 PUSH1 0x20 ADD MLOAD PUSH1 0x2 SIGNEXTEND DUP2 MSTORE PUSH1 0x20 ADD PUSH2 0x3BD DUP11 PUSH2 0xD44 JUMP JUMPDEST PUSH1 0x1 PUSH1 0x1 PUSH1 0x80 SHL SUB AND DUP2 MSTORE POP SWAP2 POP POP SWAP5 POP SWAP5 POP SWAP5 SWAP2 POP POP JUMP JUMPDEST PUSH1 0x0 DUP1 PUSH1 0x0 PUSH2 0x3E7 DUP8 DUP8 DUP8 DUP8 PUSH2 0xD7F JUMP JUMPDEST SWAP1 SWAP4 POP SWAP2 POP PUSH3 0xD89E7 NOT PUSH1 0x2 DUP5 SWAP1 SIGNEXTEND SLT ISZERO PUSH2 0x408 JUMPI PUSH3 0xD89E7 NOT SWAP3 POP PUSH2 0x41E JUMP JUMPDEST PUSH3 0xD89E8 PUSH1 0x2 DUP5 SWAP1 SIGNEXTEND SGT ISZERO PUSH2 0x41E JUMPI PUSH3 0xD89E8 SWAP3 POP JUMPDEST PUSH2 0x427 DUP4 PUSH2 0xD9B JUMP JUMPDEST SWAP1 POP SWAP5 POP SWAP5 POP SWAP5 SWAP2 POP POP JUMP JUMPDEST PUSH1 0x0 DUP4 PUSH2 0x454 JUMPI DUP2 PUSH1 0x1 PUSH1 0x1 PUSH1 0xA0 SHL SUB AND DUP4 PUSH1 0x1 PUSH1 0x1 PUSH1 0xA0 SHL SUB AND GT PUSH2 0x46A JUMP JUMPDEST DUP2 PUSH1 0x1 PUSH1 0x1 PUSH1 0xA0 SHL SUB AND DUP4 PUSH1 0x1 PUSH1 0x1 PUSH1 0xA0 SHL SUB AND LT JUMPDEST PUSH2 0x474 JUMPI DUP3 PUSH2 0x476 JUMP JUMPDEST DUP2 JUMPDEST SWAP1 POP JUMPDEST SWAP4 SWAP3 POP POP POP JUMP JUMPDEST PUSH1 0x0 DUP1 DUP1 DUP1 PUSH1 0x1 PUSH1 0x1 PUSH1 0xA0 SHL SUB DUP1 DUP10 AND SWAP1 DUP11 AND LT ISZERO DUP2 DUP8 SLT DUP1 ISZERO SWAP1 PUSH2 0x505 JUMPI PUSH1 0x0 PUSH2 0x4B9 DUP10 DUP10 PUSH3 0xF4240 SUB PUSH3 0xFFFFFF AND PUSH3 0xF4240 PUSH2 0x10CD JUMP JUMPDEST SWAP1 POP DUP3 PUSH2 0x4D2 JUMPI PUSH2 0x4CD DUP13 DUP13 DUP13 PUSH1 0x1 PUSH2 0x117C JUMP JUMPDEST PUSH2 0x4DF JUMP JUMPDEST PUSH2 0x4DF DUP12 DUP14 DUP13 PUSH1 0x1 PUSH2 0x11F7 JUMP JUMPDEST SWAP6 POP DUP6 DUP2 LT PUSH2 0x4F0 JUMPI DUP11 SWAP7 POP PUSH2 0x4FF JUMP JUMPDEST PUSH2 0x4FC DUP13 DUP12 DUP4 DUP7 PUSH2 0x12A2 JUMP JUMPDEST SWAP7 POP JUMPDEST POP PUSH2 0x54F JUMP JUMPDEST DUP2 PUSH2 0x51C JUMPI PUSH2 0x517 DUP12 DUP12 DUP12 PUSH1 0x0 PUSH2 0x11F7 JUMP JUMPDEST PUSH2 0x529 JUMP JUMPDEST PUSH2 0x529 DUP11 DUP13 DUP12 PUSH1 0x0 PUSH2 0x117C JUMP JUMPDEST SWAP4 POP DUP4 DUP9 PUSH1 0x0 SUB LT PUSH2 0x53D JUMPI DUP10 SWAP6 POP PUSH2 0x54F JUMP JUMPDEST PUSH2 0x54C DUP12 DUP11 DUP11 PUSH1 0x0 SUB DUP6 PUSH2 0x12EE JUMP JUMPDEST SWAP6 POP JUMPDEST PUSH1 0x1 PUSH1 0x1 PUSH1 0xA0 SHL SUB DUP11 DUP2 AND SWAP1 DUP8 AND EQ DUP3 ISZERO PUSH2 0x5B2 JUMPI DUP1 DUP1 ISZERO PUSH2 0x56E JUMPI POP DUP2 JUMPDEST PUSH2 0x584 JUMPI PUSH2 0x57F DUP8 DUP14 DUP13 PUSH1 0x1 PUSH2 0x11F7 JUMP JUMPDEST PUSH2 0x586 JUMP JUMPDEST DUP6 JUMPDEST SWAP6 POP DUP1 DUP1 ISZERO PUSH2 0x593 JUMPI POP DUP2 ISZERO JUMPDEST PUSH2 0x5A9 JUMPI PUSH2 0x5A4 DUP8 DUP14 DUP13 PUSH1 0x0 PUSH2 0x117C JUMP JUMPDEST PUSH2 0x5AB JUMP JUMPDEST DUP5 JUMPDEST SWAP5 POP PUSH2 0x5FC JUMP JUMPDEST DUP1 DUP1 ISZERO PUSH2 0x5BC JUMPI POP DUP2 JUMPDEST PUSH2 0x5D2 JUMPI PUSH2 0x5CD DUP13 DUP9 DUP13 PUSH1 0x1 PUSH2 0x117C JUMP JUMPDEST PUSH2 0x5D4 JUMP JUMPDEST DUP6 JUMPDEST SWAP6 POP DUP1 DUP1 ISZERO PUSH2 0x5E1 JUMPI POP DUP2 ISZERO JUMPDEST PUSH2 0x5F7 JUMPI PUSH2 0x5F2 DUP13 DUP9 DUP13 PUSH1 0x0 PUSH2 0x11F7 JUMP JUMPDEST PUSH2 0x5F9 JUMP JUMPDEST DUP5 JUMPDEST SWAP5 POP JUMPDEST DUP2 ISZERO DUP1 ISZERO PUSH2 0x60C JUMPI POP DUP9 PUSH1 0x0 SUB DUP6 GT JUMPDEST ISZERO PUSH2 0x618 JUMPI DUP9 PUSH1 0x0 SUB SWAP5 POP JUMPDEST DUP2 DUP1 ISZERO PUSH2 0x637 JUMPI POP DUP11 PUSH1 0x1 PUSH1 0x1 PUSH1 0xA0 SHL SUB AND DUP8 PUSH1 0x1 PUSH1 0x1 PUSH1 0xA0 SHL SUB AND EQ ISZERO JUMPDEST ISZERO PUSH2 0x646 JUMPI DUP6 DUP10 SUB SWAP4 POP PUSH2 0x663 JUMP JUMPDEST PUSH2 0x660 DUP7 DUP10 PUSH3 0xFFFFFF AND DUP11 PUSH3 0xF4240 SUB PUSH3 0xFFFFFF AND PUSH2 0x133A JUMP JUMPDEST SWAP4 POP JUMPDEST POP POP POP SWAP6 POP SWAP6 POP SWAP6 POP SWAP6 SWAP2 POP POP JUMP JUMPDEST PUSH1 0x0 PUSH1 0x1 PUSH1 0xFF SHL DUP3 LT PUSH2 0x684 JUMPI PUSH1 0x0 DUP1 REVERT JUMPDEST POP SWAP1 JUMP JUMPDEST DUP1 DUP3 SUB DUP3 DUP2 SGT ISZERO PUSH1 0x0 DUP4 SLT ISZERO EQ PUSH2 0x69E JUMPI PUSH1 0x0 DUP1 REVERT JUMPDEST SWAP3 SWAP2 POP POP JUMP JUMPDEST DUP2 DUP2 ADD DUP3 DUP2 SLT ISZERO PUSH1 0x0 DUP4 SLT ISZERO EQ PUSH2 0x69E JUMPI PUSH1 0x0 DUP1 REVERT JUMPDEST PUSH1 0x0 DUP1 PUSH1 0x0 DUP1 PUSH1 0x0 DUP1 PUSH1 0x0 DUP1 DUP10 PUSH1 0x1 PUSH1 0x1 PUSH1 0xA0 SHL SUB AND PUSH4 0xF30DBA93 DUP11 PUSH1 0x40 MLOAD DUP3 PUSH4 0xFFFFFFFF AND PUSH1 0xE0 SHL DUP2 MSTORE PUSH1 0x4 ADD DUP1 DUP3 PUSH1 0x2 SIGNEXTEND DUP2 MSTORE PUSH1 0x20 ADD SWAP2 POP POP PUSH2 0x100 PUSH1 0x40 MLOAD DUP1 DUP4 SUB DUP2 DUP7 DUP1 EXTCODESIZE ISZERO DUP1 ISZERO PUSH2 0x70E JUMPI PUSH1 0x0 DUP1 REVERT JUMPDEST POP GAS STATICCALL ISZERO DUP1 ISZERO PUSH2 0x722 JUMPI RETURNDATASIZE PUSH1 0x0 DUP1 RETURNDATACOPY RETURNDATASIZE PUSH1 0x0 REVERT JUMPDEST POP POP POP POP PUSH1 0x40 MLOAD RETURNDATASIZE PUSH2 0x100 DUP2 LT ISZERO PUSH2 0x739 JUMPI PUSH1 0x0 DUP1 REVERT JUMPDEST POP DUP1 MLOAD PUSH1 0x20 DUP3 ADD MLOAD PUSH1 0x40 DUP4 ADD MLOAD PUSH1 0x60 DUP5 ADD MLOAD PUSH1 0x80 DUP6 ADD MLOAD PUSH1 0xA0 DUP7 ADD MLOAD PUSH1 0xC0 DUP8 ADD MLOAD PUSH1 0xE0 SWAP1 SWAP8 ADD MLOAD SWAP6 SWAP15 POP SWAP4 SWAP13 POP SWAP2 SWAP11 POP SWAP9 POP SWAP7 POP SWAP5 POP SWAP1 SWAP3 POP SWAP1 POP SWAP3 SWAP6 SWAP9 POP SWAP3 SWAP6 SWAP9 SWAP1 SWAP4 SWAP7 POP JUMP JUMPDEST PUSH1 0x0 DUP1 DUP3 PUSH1 0xF SIGNEXTEND SLT ISZERO PUSH2 0x7E6 JUMPI DUP3 PUSH1 0x1 PUSH1 0x1 PUSH1 0x80 SHL SUB AND DUP3 PUSH1 0x0 SUB DUP5 SUB SWAP2 POP DUP2 PUSH1 0x1 PUSH1 0x1 PUSH1 0x80 SHL SUB AND LT PUSH2 0x7E1 JUMPI PUSH1 0x40 DUP1 MLOAD PUSH3 0x461BCD PUSH1 0xE5 SHL DUP2 MSTORE PUSH1 0x20 PUSH1 0x4 DUP3 ADD MSTORE PUSH1 0x2 PUSH1 0x24 DUP3 ADD MSTORE PUSH2 0x4C53 PUSH1 0xF0 SHL PUSH1 0x44 DUP3 ADD MSTORE SWAP1 MLOAD SWAP1 DUP2 SWAP1 SUB PUSH1 0x64 ADD SWAP1 REVERT JUMPDEST PUSH2 0x69E JUMP JUMPDEST DUP3 PUSH1 0x1 PUSH1 0x1 PUSH1 0x80 SHL SUB AND DUP3 DUP5 ADD SWAP2 POP DUP2 PUSH1 0x1 PUSH1 0x1 PUSH1 0x80 SHL SUB AND LT ISZERO PUSH2 0x69E JUMPI PUSH1 0x40 DUP1 MLOAD PUSH3 0x461BCD PUSH1 0xE5 SHL DUP2 MSTORE PUSH1 0x20 PUSH1 0x4 DUP3 ADD MSTORE PUSH1 0x2 PUSH1 0x24 DUP3 ADD MSTORE PUSH2 0x4C41 PUSH1 0xF0 SHL PUSH1 0x44 DUP3 ADD MSTORE SWAP1 MLOAD SWAP1 DUP2 SWAP1 SUB PUSH1 0x64 ADD SWAP1 REVERT JUMPDEST PUSH1 0x0 PUSH5 0x1000276A3 PUSH1 0x1 PUSH1 0x1 PUSH1 0xA0 SHL SUB DUP4 AND LT DUP1 ISZERO SWAP1 PUSH2 0x873 JUMPI POP PUSH20 0xFFFD8963EFD1FC6A506488495D951D5263988D26 PUSH1 0x1 PUSH1 0x1 PUSH1 0xA0 SHL SUB DUP4 AND LT JUMPDEST PUSH2 0x8A8 JUMPI PUSH1 0x40 DUP1 MLOAD PUSH3 0x461BCD PUSH1 0xE5 SHL DUP2 MSTORE PUSH1 0x20 PUSH1 0x4 DUP3 ADD MSTORE PUSH1 0x1 PUSH1 0x24 DUP3 ADD MSTORE PUSH1 0x29 PUSH1 0xF9 SHL PUSH1 0x44 DUP3 ADD MSTORE SWAP1 MLOAD SWAP1 DUP2 SWAP1 SUB PUSH1 0x64 ADD SWAP1 REVERT JUMPDEST PUSH5 0x100000000 PUSH1 0x1 PUSH1 0xC0 SHL SUB PUSH1 0x20 DUP4 SWAP1 SHL AND PUSH1 0x1 PUSH1 0x1 PUSH1 0x80 SHL SUB DUP2 GT PUSH1 0x7 SHL DUP2 DUP2 SHR PUSH8 0xFFFFFFFFFFFFFFFF DUP2 GT PUSH1 0x6 SHL SWAP1 DUP2 SHR PUSH4 0xFFFFFFFF DUP2 GT PUSH1 0x5 SHL SWAP1 DUP2 SHR PUSH2 0xFFFF DUP2 GT PUSH1 0x4 SHL SWAP1 DUP2 SHR PUSH1 0xFF DUP2 GT PUSH1 0x3 SWAP1 DUP2 SHL SWAP2 DUP3 SHR PUSH1 0xF DUP2 GT PUSH1 0x2 SHL SWAP1 DUP2 SHR SWAP2 DUP3 GT PUSH1 0x1 SWAP1 DUP2 SHL SWAP3 DUP4 SHR SWAP8 SWAP1 DUP9 GT SWAP7 OR SWAP1 SWAP5 OR SWAP1 SWAP3 OR OR SWAP1 SWAP2 OR OR OR PUSH1 0x80 DUP2 LT PUSH2 0x93C JUMPI PUSH1 0x7F DUP2 SUB DUP4 SWAP1 SHR SWAP2 POP PUSH2 0x946 JUMP JUMPDEST DUP1 PUSH1 0x7F SUB DUP4 SWAP1 SHL SWAP2 POP JUMPDEST SWAP1 DUP1 MUL PUSH1 0x7F DUP2 DUP2 SHR PUSH1 0xFF DUP4 DUP2 SHR SWAP2 SWAP1 SWAP2 SHR DUP1 MUL DUP1 DUP4 SHR DUP2 DUP4 SHR SHR DUP1 MUL DUP1 DUP5 SHR DUP2 DUP5 SHR SHR DUP1 MUL DUP1 DUP6 SHR DUP2 DUP6 SHR SHR DUP1 MUL DUP1 DUP7 SHR DUP2 DUP7 SHR SHR DUP1 MUL DUP1 DUP8 SHR DUP2 DUP8 SHR SHR DUP1 MUL DUP1 DUP9 SHR DUP2 DUP9 SHR SHR DUP1 MUL DUP1 DUP10 SHR DUP2 DUP10 SHR SHR DUP1 MUL DUP1 DUP11 SHR DUP2 DUP11 SHR SHR DUP1 MUL DUP1 DUP12 SHR DUP2 DUP12 SHR SHR DUP1 MUL DUP1 DUP13 SHR DUP2 DUP13 SHR SHR DUP1 MUL DUP1 DUP14 SHR DUP2 DUP14 SHR SHR DUP1 MUL DUP1 DUP15 SHR SWAP13 DUP2 SWAP1 SHR SWAP13 SWAP1 SWAP13 SHR DUP1 MUL SWAP13 DUP14 SWAP1 SHR SWAP15 SWAP14 PUSH1 0x7F NOT DUP16 ADD PUSH1 0x40 SHL PUSH1 0xC0 SWAP2 SWAP1 SWAP2 SHR PUSH8 0x8000000000000000 AND OR PUSH1 0xC1 SWAP12 SWAP1 SWAP12 SHR PUSH8 0x4000000000000000 AND SWAP11 SWAP1 SWAP11 OR PUSH1 0xC2 SWAP10 SWAP1 SWAP10 SHR PUSH8 0x2000000000000000 AND SWAP9 SWAP1 SWAP9 OR PUSH1 0xC3 SWAP8 SWAP1 SWAP8 SHR PUSH8 0x1000000000000000 AND SWAP7 SWAP1 SWAP7 OR PUSH1 0xC4 SWAP6 SWAP1 SWAP6 SHR PUSH8 0x800000000000000 AND SWAP5 SWAP1 SWAP5 OR PUSH1 0xC5 SWAP4 SWAP1 SWAP4 SHR PUSH8 0x400000000000000 AND SWAP3 SWAP1 SWAP3 OR PUSH1 0xC6 SWAP2 SWAP1 SWAP2 SHR PUSH8 0x200000000000000 AND OR PUSH1 0xC7 SWAP2 SWAP1 SWAP2 SHR PUSH8 0x100000000000000 AND OR PUSH1 0xC8 SWAP2 SWAP1 SWAP2 SHR PUSH7 0x80000000000000 AND OR PUSH1 0xC9 SWAP2 SWAP1 SWAP2 SHR PUSH7 0x40000000000000 AND OR PUSH1 0xCA SWAP2 SWAP1 SWAP2 SHR PUSH7 0x20000000000000 AND OR PUSH1 0xCB SWAP2 SWAP1 SWAP2 SHR PUSH7 0x10000000000000 AND OR PUSH1 0xCC SWAP2 SWAP1 SWAP2 SHR PUSH7 0x8000000000000 AND OR PUSH1 0xCD SWAP2 SWAP1 SWAP2 SHR PUSH7 0x4000000000000 AND OR PUSH10 0x3627A301D71055774C85 DUP2 MUL PUSH16 0x28F6481AB7F045A5AF012A19D003AA9 NOT DUP2 ADD PUSH1 0x80 SWAP1 DUP2 SAR SWAP1 PUSH16 0xDB2DF09E81959A81455E260799A0632F DUP4 ADD SWAP1 SAR PUSH1 0x2 DUP2 DUP2 SIGNEXTEND SWAP1 DUP4 SWAP1 SIGNEXTEND EQ PUSH2 0xB47 JUMPI DUP9 PUSH1 0x1 PUSH1 0x1 PUSH1 0xA0 SHL SUB AND PUSH2 0xB2B DUP3 PUSH2 0xD9B JUMP JUMPDEST PUSH1 0x1 PUSH1 0x1 PUSH1 0xA0 SHL SUB AND GT ISZERO PUSH2 0xB40 JUMPI DUP2 PUSH2 0xB42 JUMP JUMPDEST DUP1 JUMPDEST PUSH2 0xB49 JUMP JUMPDEST DUP2 JUMPDEST SWAP10 SWAP9 POP POP POP POP POP POP POP POP POP JUMP JUMPDEST PUSH2 0xB5E PUSH2 0x1A44 JUMP JUMPDEST PUSH2 0xB67 DUP3 PUSH2 0x1374 JUMP JUMPDEST DUP2 PUSH1 0x40 ADD SWAP1 PUSH2 0xFFFF AND SWAP1 DUP2 PUSH2 0xFFFF AND DUP2 MSTORE POP POP DUP2 PUSH1 0x1 PUSH1 0x1 PUSH1 0xA0 SHL SUB AND PUSH4 0x3850C7BD PUSH1 0x40 MLOAD DUP2 PUSH4 0xFFFFFFFF AND PUSH1 0xE0 SHL DUP2 MSTORE PUSH1 0x4 ADD PUSH1 0xE0 PUSH1 0x40 MLOAD DUP1 DUP4 SUB DUP2 DUP7 DUP1 EXTCODESIZE ISZERO DUP1 ISZERO PUSH2 0xBB3 JUMPI PUSH1 0x0 DUP1 REVERT JUMPDEST POP GAS STATICCALL ISZERO DUP1 ISZERO PUSH2 0xBC7 JUMPI RETURNDATASIZE PUSH1 0x0 DUP1 RETURNDATACOPY RETURNDATASIZE PUSH1 0x0 REVERT JUMPDEST POP POP POP POP PUSH1 0x40 MLOAD RETURNDATASIZE PUSH1 0xE0 DUP2 LT ISZERO PUSH2 0xBDD JUMPI PUSH1 0x0 DUP1 REVERT JUMPDEST POP DUP1 MLOAD PUSH1 0x20 SWAP2 DUP3 ADD MLOAD PUSH1 0x2 SWAP1 DUP2 SIGNEXTEND SWAP1 SIGNEXTEND SWAP2 DUP4 ADD SWAP2 SWAP1 SWAP2 MSTORE PUSH1 0x1 PUSH1 0x1 PUSH1 0xA0 SHL SUB AND DUP2 MSTORE SWAP2 SWAP1 POP JUMP JUMPDEST PUSH1 0x0 DUP4 PUSH2 0xC4D JUMPI DUP2 PUSH1 0x1 PUSH1 0x1 PUSH1 0xA0 SHL SUB AND DUP4 PUSH1 0x1 PUSH1 0x1 PUSH1 0xA0 SHL SUB AND GT DUP1 ISZERO PUSH2 0xC48 JUMPI POP PUSH20 0xFFFD8963EFD1FC6A506488495D951D5263988D26 PUSH1 0x1 PUSH1 0x1 PUSH1 0xA0 SHL SUB DUP5 AND LT JUMPDEST PUSH2 0xC7B JUMP JUMPDEST DUP2 PUSH1 0x1 PUSH1 0x1 PUSH1 0xA0 SHL SUB AND DUP4 PUSH1 0x1 PUSH1 0x1 PUSH1 0xA0 SHL SUB AND LT DUP1 ISZERO PUSH2 0xC7B JUMPI POP PUSH5 0x1000276A3 PUSH1 0x1 PUSH1 0x1 PUSH1 0xA0 SHL SUB DUP5 AND GT JUMPDEST SWAP1 POP DUP1 PUSH2 0xCCF JUMPI PUSH1 0x40 DUP1 MLOAD PUSH3 0x461BCD PUSH1 0xE5 SHL DUP2 MSTORE PUSH1 0x20 PUSH1 0x4 DUP3 ADD MSTORE PUSH1 0x1C PUSH1 0x24 DUP3 ADD MSTORE PUSH32 0x7371727450726963654C696D6974206F7574206F6620626F756E647300000000 PUSH1 0x44 DUP3 ADD MSTORE SWAP1 MLOAD SWAP1 DUP2 SWAP1 SUB PUSH1 0x64 ADD SWAP1 REVERT JUMPDEST POP POP POP POP JUMP JUMPDEST PUSH1 0x0 DUP2 PUSH1 0x1 PUSH1 0x1 PUSH1 0xA0 SHL SUB AND PUSH4 0xD0C93A7C PUSH1 0x40 MLOAD DUP2 PUSH4 0xFFFFFFFF AND PUSH1 0xE0 SHL DUP2 MSTORE PUSH1 0x4 ADD PUSH1 0x20 PUSH1 0x40 MLOAD DUP1 DUP4 SUB DUP2 DUP7 DUP1 EXTCODESIZE ISZERO DUP1 ISZERO PUSH2 0xD10 JUMPI PUSH1 0x0 DUP1 REVERT JUMPDEST POP GAS STATICCALL ISZERO DUP1 ISZERO PUSH2 0xD24 JUMPI RETURNDATASIZE PUSH1 0x0 DUP1 RETURNDATACOPY RETURNDATASIZE PUSH1 0x0 REVERT JUMPDEST POP POP POP POP PUSH1 0x40 MLOAD RETURNDATASIZE PUSH1 0x20 DUP2 LT ISZERO PUSH2 0xD3A JUMPI PUSH1 0x0 DUP1 REVERT JUMPDEST POP MLOAD SWAP1 POP JUMPDEST SWAP2 SWAP1 POP JUMP JUMPDEST PUSH1 0x0 DUP2 PUSH1 0x1 PUSH1 0x1 PUSH1 0xA0 SHL SUB AND PUSH4 0x1A686502 PUSH1 0x40 MLOAD DUP2 PUSH4 0xFFFFFFFF AND PUSH1 0xE0 SHL DUP2 MSTORE PUSH1 0x4 ADD PUSH1 0x20 PUSH1 0x40 MLOAD DUP1 DUP4 SUB DUP2 DUP7 DUP1 EXTCODESIZE ISZERO DUP1 ISZERO PUSH2 0xD10 JUMPI PUSH1 0x0 DUP1 REVERT JUMPDEST PUSH1 0x0 DUP1 PUSH2 0xD8E DUP7 DUP7 DUP7 DUP7 PUSH2 0x144B JUMP JUMPDEST SWAP2 POP SWAP2 POP SWAP5 POP SWAP5 SWAP3 POP POP POP JUMP JUMPDEST PUSH1 0x0 DUP1 PUSH1 0x0 DUP4 PUSH1 0x2 SIGNEXTEND SLT PUSH2 0xDB2 JUMPI DUP3 PUSH1 0x2 SIGNEXTEND PUSH2 0xDBA JUMP JUMPDEST DUP3 PUSH1 0x2 SIGNEXTEND PUSH1 0x0 SUB JUMPDEST SWAP1 POP PUSH3 0xD89E8 DUP2 GT ISZERO PUSH2 0xDF8 JUMPI PUSH1 0x40 DUP1 MLOAD PUSH3 0x461BCD PUSH1 0xE5 SHL DUP2 MSTORE PUSH1 0x20 PUSH1 0x4 DUP3 ADD MSTORE PUSH1 0x1 PUSH1 0x24 DUP3 ADD MSTORE PUSH1 0x15 PUSH1 0xFA SHL PUSH1 0x44 DUP3 ADD MSTORE SWAP1 MLOAD SWAP1 DUP2 SWAP1 SUB PUSH1 0x64 ADD SWAP1 REVERT JUMPDEST PUSH1 0x0 PUSH1 0x1 DUP3 AND PUSH2 0xE0C JUMPI PUSH1 0x1 PUSH1 0x80 SHL PUSH2 0xE1E JUMP JUMPDEST PUSH16 0xFFFCB933BD6FAD37AA2D162D1A594001 JUMPDEST PUSH17 0xFFFFFFFFFFFFFFFFFFFFFFFFFFFFFFFFFF AND SWAP1 POP PUSH1 0x2 DUP3 AND ISZERO PUSH2 0xE52 JUMPI PUSH16 0xFFF97272373D413259A46990580E213A MUL PUSH1 0x80 SHR JUMPDEST PUSH1 0x4 DUP3 AND ISZERO PUSH2 0xE71 JUMPI PUSH16 0xFFF2E50F5F656932EF12357CF3C7FDCC MUL PUSH1 0x80 SHR JUMPDEST PUSH1 0x8 DUP3 AND ISZERO PUSH2 0xE90 JUMPI PUSH16 0xFFE5CACA7E10E4E61C3624EAA0941CD0 MUL PUSH1 0x80 SHR JUMPDEST PUSH1 0x10 DUP3 AND ISZERO PUSH2 0xEAF JUMPI PUSH16 0xFFCB9843D60F6159C9DB58835C926644 MUL PUSH1 0x80 SHR JUMPDEST PUSH1 0x20 DUP3 AND ISZERO PUSH2 0xECE JUMPI PUSH16 0xFF973B41FA98C081472E6896DFB254C0 MUL PUSH1 0x80 SHR JUMPDEST PUSH1 0x40 DUP3 AND ISZERO PUSH2 0xEED JUMPI PUSH16 0xFF2EA16466C96A3843EC78B326B52861 MUL PUSH1 0x80 SHR JUMPDEST PUSH1 0x80 DUP3 AND ISZERO PUSH2 0xF0C JUMPI PUSH16 0xFE5DEE046A99A2A811C461F1969C3053 MUL PUSH1 0x80 SHR JUMPDEST PUSH2 0x100 DUP3 AND ISZERO PUSH2 0xF2C JUMPI PUSH16 0xFCBE86C7900A88AEDCFFC83B479AA3A4 MUL PUSH1 0x80 SHR JUMPDEST PUSH2 0x200 DUP3 AND ISZERO PUSH2 0xF4C JUMPI PUSH16 0xF987A7253AC413176F2B074CF7815E54 MUL PUSH1 0x80 SHR JUMPDEST PUSH2 0x400 DUP3 AND ISZERO PUSH2 0xF6C JUMPI PUSH16 0xF3392B0822B70005940C7A398E4B70F3 MUL PUSH1 0x80 SHR JUMPDEST PUSH2 0x800 DUP3 AND ISZERO PUSH2 0xF8C JUMPI PUSH16 0xE7159475A2C29B7443B29C7FA6E889D9 MUL PUSH1 0x80 SHR JUMPDEST PUSH2 0x1000 DUP3 AND ISZERO PUSH2 0xFAC JUMPI PUSH16 0xD097F3BDFD2022B8845AD8F792AA5825 MUL PUSH1 0x80 SHR JUMPDEST PUSH2 0x2000 DUP3 AND ISZERO PUSH2 0xFCC JUMPI PUSH16 0xA9F746462D870FDF8A65DC1F90E061E5 MUL PUSH1 0x80 SHR JUMPDEST PUSH2 0x4000 DUP3 AND ISZERO PUSH2 0xFEC JUMPI PUSH16 0x70D869A156D2A1B890BB3DF62BAF32F7 MUL PUSH1 0x80 SHR JUMPDEST PUSH2 0x8000 DUP3 AND ISZERO PUSH2 0x100C JUMPI PUSH16 0x31BE135F97D08FD981231505542FCFA6 MUL PUSH1 0x80 SHR JUMPDEST PUSH3 0x10000 DUP3 AND ISZERO PUSH2 0x102D JUMPI PUSH16 0x9AA508B5B7A84E1C677DE54F3E99BC9 MUL PUSH1 0x80 SHR JUMPDEST PUSH3 0x20000 DUP3 AND ISZERO PUSH2 0x104D JUMPI PUSH15 0x5D6AF8DEDB81196699C329225EE604 MUL PUSH1 0x80 SHR JUMPDEST PUSH3 0x40000 DUP3 AND ISZERO PUSH2 0x106C JUMPI PUSH14 0x2216E584F5FA1EA926041BEDFE98 MUL PUSH1 0x80 SHR JUMPDEST PUSH3 0x80000 DUP3 AND ISZERO PUSH2 0x1089 JUMPI PUSH12 0x48A170391F7DC42444E8FA2 MUL PUSH1 0x80 SHR JUMPDEST PUSH1 0x0 DUP5 PUSH1 0x2 SIGNEXTEND SGT ISZERO PUSH2 0x10A4 JUMPI DUP1 PUSH1 0x0 NOT DUP2 PUSH2 0x10A0 JUMPI INVALID JUMPDEST DIV SWAP1 POP JUMPDEST PUSH5 0x100000000 DUP2 MOD ISZERO PUSH2 0x10B8 JUMPI PUSH1 0x1 PUSH2 0x10BB JUMP JUMPDEST PUSH1 0x0 JUMPDEST PUSH1 0xFF AND PUSH1 0x20 DUP3 SWAP1 SHR ADD SWAP3 POP POP POP SWAP2 SWAP1 POP JUMP JUMPDEST PUSH1 0x0 DUP1 DUP1 PUSH1 0x0 NOT DUP6 DUP8 MULMOD DUP7 DUP7 MUL SWAP3 POP DUP3 DUP2 LT SWAP1 DUP4 SWAP1 SUB SUB SWAP1 POP DUP1 PUSH2 0x1103 JUMPI PUSH1 0x0 DUP5 GT PUSH2 0x10F8 JUMPI PUSH1 0x0 DUP1 REVERT JUMPDEST POP DUP3 SWAP1 DIV SWAP1 POP PUSH2 0x479 JUMP JUMPDEST DUP1 DUP5 GT PUSH2 0x110F JUMPI PUSH1 0x0 DUP1 REVERT JUMPDEST PUSH1 0x0 DUP5 DUP7 DUP9 MULMOD PUSH1 0x0 DUP7 DUP2 SUB DUP8 AND SWAP7 DUP8 SWAP1 DIV SWAP7 PUSH1 0x2 PUSH1 0x3 DUP10 MUL DUP2 XOR DUP1 DUP11 MUL DUP3 SUB MUL DUP1 DUP11 MUL DUP3 SUB MUL DUP1 DUP11 MUL DUP3 SUB MUL DUP1 DUP11 MUL DUP3 SUB MUL DUP1 DUP11 MUL DUP3 SUB MUL DUP1 DUP11 MUL SWAP1 SWAP2 SUB MUL SWAP2 DUP2 SWAP1 SUB DUP2 SWAP1 DIV PUSH1 0x1 ADD DUP7 DUP5 GT SWAP1 SWAP6 SUB SWAP5 SWAP1 SWAP5 MUL SWAP2 SWAP1 SWAP5 SUB SWAP3 SWAP1 SWAP3 DIV SWAP2 SWAP1 SWAP2 OR SWAP2 SWAP1 SWAP2 MUL SWAP2 POP POP SWAP4 SWAP3 POP POP POP JUMP JUMPDEST PUSH1 0x0 DUP4 PUSH1 0x1 PUSH1 0x1 PUSH1 0xA0 SHL SUB AND DUP6 PUSH1 0x1 PUSH1 0x1 PUSH1 0xA0 SHL SUB AND GT ISZERO PUSH2 0x119C JUMPI SWAP3 SWAP4 SWAP3 JUMPDEST DUP2 PUSH2 0x11C9 JUMPI PUSH2 0x11C4 DUP4 PUSH1 0x1 PUSH1 0x1 PUSH1 0x80 SHL SUB AND DUP7 DUP7 SUB PUSH1 0x1 PUSH1 0x1 PUSH1 0xA0 SHL SUB AND PUSH1 0x1 PUSH1 0x60 SHL PUSH2 0x10CD JUMP JUMPDEST PUSH2 0x11EC JUMP JUMPDEST PUSH2 0x11EC DUP4 PUSH1 0x1 PUSH1 0x1 PUSH1 0x80 SHL SUB AND DUP7 DUP7 SUB PUSH1 0x1 PUSH1 0x1 PUSH1 0xA0 SHL SUB AND PUSH1 0x1 PUSH1 0x60 SHL PUSH2 0x133A JUMP JUMPDEST SWAP1 POP JUMPDEST SWAP5 SWAP4 POP POP POP POP JUMP JUMPDEST PUSH1 0x0 DUP4 PUSH1 0x1 PUSH1 0x1 PUSH1 0xA0 SHL SUB AND DUP6 PUSH1 0x1 PUSH1 0x1 PUSH1 0xA0 SHL SUB AND GT ISZERO PUSH2 0x1217 JUMPI SWAP3 SWAP4 SWAP3 JUMPDEST PUSH1 0x1 PUSH1 0x60 SHL PUSH1 0x1 PUSH1 0xE0 SHL SUB PUSH1 0x60 DUP5 SWAP1 SHL AND PUSH1 0x1 PUSH1 0x1 PUSH1 0xA0 SHL SUB DUP7 DUP7 SUB DUP2 AND SWAP1 DUP8 AND PUSH2 0x1241 JUMPI PUSH1 0x0 DUP1 REVERT JUMPDEST DUP4 PUSH2 0x1271 JUMPI DUP7 PUSH1 0x1 PUSH1 0x1 PUSH1 0xA0 SHL SUB AND PUSH2 0x1264 DUP4 DUP4 DUP10 PUSH1 0x1 PUSH1 0x1 PUSH1 0xA0 SHL SUB AND PUSH2 0x10CD JUMP JUMPDEST DUP2 PUSH2 0x126B JUMPI INVALID JUMPDEST DIV PUSH2 0x1297 JUMP JUMPDEST PUSH2 0x1297 PUSH2 0x1288 DUP4 DUP4 DUP10 PUSH1 0x1 PUSH1 0x1 PUSH1 0xA0 SHL SUB AND PUSH2 0x133A JUMP JUMPDEST DUP9 PUSH1 0x1 PUSH1 0x1 PUSH1 0xA0 SHL SUB AND PUSH2 0x1649 JUMP JUMPDEST SWAP8 SWAP7 POP POP POP POP POP POP POP JUMP JUMPDEST PUSH1 0x0 DUP1 DUP6 PUSH1 0x1 PUSH1 0x1 PUSH1 0xA0 SHL SUB AND GT PUSH2 0x12B9 JUMPI PUSH1 0x0 DUP1 REVERT JUMPDEST PUSH1 0x0 DUP5 PUSH1 0x1 PUSH1 0x1 PUSH1 0x80 SHL SUB AND GT PUSH2 0x12CF JUMPI PUSH1 0x0 DUP1 REVERT JUMPDEST DUP2 PUSH2 0x12E1 JUMPI PUSH2 0x11C4 DUP6 DUP6 DUP6 PUSH1 0x1 PUSH2 0x1654 JUMP JUMPDEST PUSH2 0x11EC DUP6 DUP6 DUP6 PUSH1 0x1 PUSH2 0x1735 JUMP JUMPDEST PUSH1 0x0 DUP1 DUP6 PUSH1 0x1 PUSH1 0x1 PUSH1 0xA0 SHL SUB AND GT PUSH2 0x1305 JUMPI PUSH1 0x0 DUP1 REVERT JUMPDEST PUSH1 0x0 DUP5 PUSH1 0x1 PUSH1 0x1 PUSH1 0x80 SHL SUB AND GT PUSH2 0x131B JUMPI PUSH1 0x0 DUP1 REVERT JUMPDEST DUP2 PUSH2 0x132D JUMPI PUSH2 0x11C4 DUP6 DUP6 DUP6 PUSH1 0x0 PUSH2 0x1735 JUMP JUMPDEST PUSH2 0x11EC DUP6 DUP6 DUP6 PUSH1 0x0 PUSH2 0x1654 JUMP JUMPDEST PUSH1 0x0 PUSH2 0x1347 DUP5 DUP5 DUP5 PUSH2 0x10CD JUMP JUMPDEST SWAP1 POP PUSH1 0x0 DUP3 DUP1 PUSH2 0x1353 JUMPI INVALID JUMPDEST DUP5 DUP7 MULMOD GT ISZERO PUSH2 0x479 JUMPI PUSH1 0x0 NOT DUP2 LT PUSH2 0x136A JUMPI PUSH1 0x0 DUP1 REVERT JUMPDEST PUSH1 0x1 ADD SWAP4 SWAP3 POP POP POP JUMP JUMPDEST PUSH1 0x0 DUP2 PUSH1 0x1 PUSH1 0x1 PUSH1 0xA0 SHL SUB AND PUSH4 0xDA3C300D PUSH1 0x40 MLOAD DUP2 PUSH4 0xFFFFFFFF AND PUSH1 0xE0 SHL DUP2 MSTORE PUSH1 0x4 ADD PUSH1 0x20 PUSH1 0x40 MLOAD DUP1 DUP4 SUB DUP2 DUP7 DUP1 EXTCODESIZE ISZERO DUP1 ISZERO PUSH2 0x13AF JUMPI PUSH1 0x0 DUP1 REVERT JUMPDEST POP GAS STATICCALL SWAP3 POP POP POP DUP1 ISZERO PUSH2 0x13D4 JUMPI POP PUSH1 0x40 MLOAD RETURNDATASIZE PUSH1 0x20 DUP2 LT ISZERO PUSH2 0x13CF JUMPI PUSH1 0x0 DUP1 REVERT JUMPDEST POP MLOAD PUSH1 0x1 JUMPDEST PUSH2 0x1444 JUMPI DUP2 PUSH1 0x1 PUSH1 0x1 PUSH1 0xA0 SHL SUB AND PUSH4 0xDDCA3F43 PUSH1 0x40 MLOAD DUP2 PUSH4 0xFFFFFFFF AND PUSH1 0xE0 SHL DUP2 MSTORE PUSH1 0x4 ADD PUSH1 0x20 PUSH1 0x40 MLOAD DUP1 DUP4 SUB DUP2 DUP7 DUP1 EXTCODESIZE ISZERO DUP1 ISZERO PUSH2 0x1411 JUMPI PUSH1 0x0 DUP1 REVERT JUMPDEST POP GAS STATICCALL ISZERO DUP1 ISZERO PUSH2 0x1425 JUMPI RETURNDATASIZE PUSH1 0x0 DUP1 RETURNDATACOPY RETURNDATASIZE PUSH1 0x0 REVERT JUMPDEST POP POP POP POP PUSH1 0x40 MLOAD RETURNDATASIZE PUSH1 0x20 DUP2 LT ISZERO PUSH2 0x143B JUMPI PUSH1 0x0 DUP1 REVERT JUMPDEST POP MLOAD SWAP1 POP PUSH2 0xD3F JUMP JUMPDEST SWAP1 POP PUSH2 0xD3F JUMP JUMPDEST PUSH1 0x0 DUP1 DUP6 DUP2 PUSH1 0x2 DUP7 DUP2 SIGNEXTEND SWAP1 DUP9 SWAP1 SIGNEXTEND DUP2 PUSH2 0x1460 JUMPI INVALID JUMPDEST SDIV SWAP1 POP PUSH1 0x0 DUP8 PUSH1 0x2 SIGNEXTEND SLT DUP1 ISZERO PUSH2 0x1487 JUMPI POP DUP6 PUSH1 0x2 SIGNEXTEND DUP8 PUSH1 0x2 SIGNEXTEND DUP2 PUSH2 0x1480 JUMPI INVALID JUMPDEST SMOD PUSH1 0x2 SIGNEXTEND ISZERO ISZERO JUMPDEST ISZERO PUSH2 0x1491 JUMPI PUSH1 0x0 NOT ADD JUMPDEST DUP5 ISZERO PUSH2 0x1568 JUMPI PUSH1 0x0 DUP1 PUSH2 0x14A3 DUP4 PUSH2 0x1818 JUMP JUMPDEST PUSH1 0x40 DUP1 MLOAD PUSH4 0x299CE14B PUSH1 0xE1 SHL DUP2 MSTORE PUSH1 0x1 DUP5 DUP2 SIGNEXTEND PUSH1 0x4 DUP4 ADD MSTORE SWAP2 MLOAD SWAP4 SWAP6 POP SWAP2 SWAP4 POP PUSH1 0xFF DUP5 AND SHL DUP1 ADD PUSH1 0x0 NOT ADD SWAP2 PUSH1 0x0 SWAP2 DUP4 SWAP2 PUSH1 0x1 PUSH1 0x1 PUSH1 0xA0 SHL SUB DUP10 AND SWAP2 PUSH4 0x5339C296 SWAP2 PUSH1 0x24 DUP1 DUP4 ADD SWAP3 PUSH1 0x20 SWAP3 SWAP2 SWAP1 DUP3 SWAP1 SUB ADD DUP2 DUP7 DUP1 EXTCODESIZE ISZERO DUP1 ISZERO PUSH2 0x1504 JUMPI PUSH1 0x0 DUP1 REVERT JUMPDEST POP GAS STATICCALL ISZERO DUP1 ISZERO PUSH2 0x1518 JUMPI RETURNDATASIZE PUSH1 0x0 DUP1 RETURNDATACOPY RETURNDATASIZE PUSH1 0x0 REVERT JUMPDEST POP POP POP POP PUSH1 0x40 MLOAD RETURNDATASIZE PUSH1 0x20 DUP2 LT ISZERO PUSH2 0x152E JUMPI PUSH1 0x0 DUP1 REVERT JUMPDEST POP MLOAD AND DUP1 ISZERO ISZERO SWAP8 POP SWAP1 POP DUP7 PUSH2 0x154A JUMPI DUP10 DUP4 PUSH1 0xFF AND DUP7 SUB MUL PUSH2 0x155D JUMP JUMPDEST DUP10 PUSH2 0x1554 DUP3 PUSH2 0x182A JUMP JUMPDEST DUP5 SUB PUSH1 0xFF AND DUP7 SUB MUL JUMPDEST SWAP8 POP POP POP POP POP PUSH2 0x163E JUMP JUMPDEST PUSH1 0x0 DUP1 PUSH2 0x1577 DUP4 PUSH1 0x1 ADD PUSH2 0x1818 JUMP JUMPDEST SWAP2 POP SWAP2 POP PUSH1 0x0 PUSH1 0x1 DUP3 PUSH1 0xFF AND PUSH1 0x1 SWAP1 SHL SUB NOT SWAP1 POP PUSH1 0x0 DUP2 DUP7 PUSH1 0x1 PUSH1 0x1 PUSH1 0xA0 SHL SUB AND PUSH4 0x5339C296 DUP7 PUSH1 0x40 MLOAD DUP3 PUSH4 0xFFFFFFFF AND PUSH1 0xE0 SHL DUP2 MSTORE PUSH1 0x4 ADD DUP1 DUP3 PUSH1 0x1 SIGNEXTEND DUP2 MSTORE PUSH1 0x20 ADD SWAP2 POP POP PUSH1 0x20 PUSH1 0x40 MLOAD DUP1 DUP4 SUB DUP2 DUP7 DUP1 EXTCODESIZE ISZERO DUP1 ISZERO PUSH2 0x15D5 JUMPI PUSH1 0x0 DUP1 REVERT JUMPDEST POP GAS STATICCALL ISZERO DUP1 ISZERO PUSH2 0x15E9 JUMPI RETURNDATASIZE PUSH1 0x0 DUP1 RETURNDATACOPY RETURNDATASIZE PUSH1 0x0 REVERT JUMPDEST POP POP POP POP PUSH1 0x40 MLOAD RETURNDATASIZE PUSH1 0x20 DUP2 LT ISZERO PUSH2 0x15FF JUMPI PUSH1 0x0 DUP1 REVERT JUMPDEST POP MLOAD AND DUP1 ISZERO ISZERO SWAP8 POP SWAP1 POP DUP7 PUSH2 0x1621 JUMPI DUP10 DUP4 PUSH1 0xFF SUB PUSH1 0xFF AND DUP7 PUSH1 0x1 ADD ADD MUL PUSH2 0x1637 JUMP JUMPDEST DUP10 DUP4 PUSH2 0x162C DUP4 PUSH2 0x18CA JUMP JUMPDEST SUB PUSH1 0xFF AND DUP7 PUSH1 0x1 ADD ADD MUL JUMPDEST SWAP8 POP POP POP POP POP JUMPDEST POP POP SWAP5 POP SWAP5 SWAP3 POP POP POP JUMP JUMPDEST DUP1 DUP3 DIV SWAP2 MOD ISZERO ISZERO ADD SWAP1 JUMP JUMPDEST PUSH1 0x0 DUP2 ISZERO PUSH2 0x16C7 JUMPI PUSH1 0x0 PUSH1 0x1 PUSH1 0x1 PUSH1 0xA0 SHL SUB DUP5 GT ISZERO PUSH2 0x168A JUMPI PUSH2 0x1685 DUP5 PUSH1 0x1 PUSH1 0x60 SHL DUP8 PUSH1 0x1 PUSH1 0x1 PUSH1 0x80 SHL SUB AND PUSH2 0x10CD JUMP JUMPDEST PUSH2 0x16A2 JUMP JUMPDEST PUSH1 0x1 PUSH1 0x1 PUSH1 0x80 SHL SUB DUP6 AND PUSH1 0x60 DUP6 SWAP1 SHL DUP2 PUSH2 0x16A0 JUMPI INVALID JUMPDEST DIV JUMPDEST SWAP1 POP PUSH2 0x16BF PUSH2 0x16BA PUSH1 0x1 PUSH1 0x1 PUSH1 0xA0 SHL SUB DUP9 AND DUP4 PUSH2 0x19B4 JUMP JUMPDEST PUSH2 0x19C4 JUMP JUMPDEST SWAP2 POP POP PUSH2 0x11EF JUMP JUMPDEST PUSH1 0x0 PUSH1 0x1 PUSH1 0x1 PUSH1 0xA0 SHL SUB DUP5 GT ISZERO PUSH2 0x16F5 JUMPI PUSH2 0x16F0 DUP5 PUSH1 0x1 PUSH1 0x60 SHL DUP8 PUSH1 0x1 PUSH1 0x1 PUSH1 0x80 SHL SUB AND PUSH2 0x133A JUMP JUMPDEST PUSH2 0x170C JUMP JUMPDEST PUSH2 0x170C PUSH1 0x60 DUP6 SWAP1 SHL PUSH1 0x1 PUSH1 0x1 PUSH1 0x80 SHL SUB DUP8 AND PUSH2 0x1649 JUMP JUMPDEST SWAP1 POP DUP1 DUP7 PUSH1 0x1 PUSH1 0x1 PUSH1 0xA0 SHL SUB AND GT PUSH2 0x1723 JUMPI PUSH1 0x0 DUP1 REVERT JUMPDEST PUSH1 0x1 PUSH1 0x1 PUSH1 0xA0 SHL SUB DUP7 AND SUB SWAP1 POP PUSH2 0x11EF JUMP JUMPDEST PUSH1 0x0 DUP3 PUSH2 0x1743 JUMPI POP DUP4 PUSH2 0x11EF JUMP JUMPDEST PUSH1 0x1 PUSH1 0x60 SHL PUSH1 0x1 PUSH1 0xE0 SHL SUB PUSH1 0x60 DUP6 SWAP1 SHL AND DUP3 ISZERO PUSH2 0x17D1 JUMPI PUSH1 0x1 PUSH1 0x1 PUSH1 0xA0 SHL SUB DUP7 AND DUP5 DUP2 MUL SWAP1 DUP6 DUP3 DUP2 PUSH2 0x1771 JUMPI INVALID JUMPDEST DIV EQ ISZERO PUSH2 0x17A2 JUMPI DUP2 DUP2 ADD DUP3 DUP2 LT PUSH2 0x17A0 JUMPI PUSH2 0x1796 DUP4 DUP10 PUSH1 0x1 PUSH1 0x1 PUSH1 0xA0 SHL SUB AND DUP4 PUSH2 0x133A JUMP JUMPDEST SWAP4 POP POP POP POP PUSH2 0x11EF JUMP JUMPDEST POP JUMPDEST PUSH2 0x17C8 DUP3 PUSH2 0x17C3 DUP8 DUP11 PUSH1 0x1 PUSH1 0x1 PUSH1 0xA0 SHL SUB AND DUP7 DUP2 PUSH2 0x17BC JUMPI INVALID JUMPDEST DIV SWAP1 PUSH2 0x19B4 JUMP JUMPDEST PUSH2 0x1649 JUMP JUMPDEST SWAP3 POP POP POP PUSH2 0x11EF JUMP JUMPDEST PUSH1 0x1 PUSH1 0x1 PUSH1 0xA0 SHL SUB DUP7 AND DUP5 DUP2 MUL SWAP1 DUP6 DUP3 DUP2 PUSH2 0x17E8 JUMPI INVALID JUMPDEST DIV EQ DUP1 ISZERO PUSH2 0x17F5 JUMPI POP DUP1 DUP3 GT JUMPDEST PUSH2 0x17FE JUMPI PUSH1 0x0 DUP1 REVERT JUMPDEST DUP1 DUP3 SUB PUSH2 0x1796 PUSH2 0x16BA DUP5 PUSH1 0x1 PUSH1 0x1 PUSH1 0xA0 SHL SUB DUP12 AND DUP5 PUSH2 0x133A JUMP JUMPDEST PUSH1 0x2 SIGNEXTEND PUSH1 0x8 DUP2 SWAP1 SAR SWAP2 PUSH2 0x100 SWAP1 SWAP2 SMOD SWAP1 JUMP JUMPDEST PUSH1 0x0 DUP1 DUP3 GT PUSH2 0x1838 JUMPI PUSH1 0x0 DUP1 REVERT JUMPDEST PUSH1 0x1 PUSH1 0x80 SHL DUP3 LT PUSH2 0x184B JUMPI PUSH1 0x80 SWAP2 DUP3 SHR SWAP2 ADD JUMPDEST PUSH9 0x10000000000000000 DUP3 LT PUSH2 0x1863 JUMPI PUSH1 0x40 SWAP2 DUP3 SHR SWAP2 ADD JUMPDEST PUSH5 0x100000000 DUP3 LT PUSH2 0x1877 JUMPI PUSH1 0x20 SWAP2 DUP3 SHR SWAP2 ADD JUMPDEST PUSH3 0x10000 DUP3 LT PUSH2 0x1889 JUMPI PUSH1 0x10 SWAP2 DUP3 SHR SWAP2 ADD JUMPDEST PUSH2 0x100 DUP3 LT PUSH2 0x189A JUMPI PUSH1 0x8 SWAP2 DUP3 SHR SWAP2 ADD JUMPDEST PUSH1 0x10 DUP3 LT PUSH2 0x18AA JUMPI PUSH1 0x4 SWAP2 DUP3 SHR SWAP2 ADD JUMPDEST PUSH1 0x4 DUP3 LT PUSH2 0x18BA JUMPI PUSH1 0x2 SWAP2 DUP3 SHR SWAP2 ADD JUMPDEST PUSH1 0x2 DUP3 LT PUSH2 0xD3F JUMPI PUSH1 0x1 ADD SWAP2 SWAP1 POP JUMP JUMPDEST PUSH1 0x0 DUP1 DUP3 GT PUSH2 0x18D8 JUMPI PUSH1 0x0 DUP1 REVERT JUMPDEST POP PUSH1 0xFF PUSH1 0x1 PUSH1 0x1 PUSH1 0x80 SHL SUB DUP3 AND ISZERO PUSH2 0x18F3 JUMPI PUSH1 0x7F NOT ADD PUSH2 0x18FB JUMP JUMPDEST PUSH1 0x80 DUP3 SWAP1 SHR SWAP2 POP JUMPDEST PUSH8 0xFFFFFFFFFFFFFFFF DUP3 AND ISZERO PUSH2 0x1914 JUMPI PUSH1 0x3F NOT ADD PUSH2 0x191C JUMP JUMPDEST PUSH1 0x40 DUP3 SWAP1 SHR SWAP2 POP JUMPDEST PUSH4 0xFFFFFFFF DUP3 AND ISZERO PUSH2 0x1931 JUMPI PUSH1 0x1F NOT ADD PUSH2 0x1939 JUMP JUMPDEST PUSH1 0x20 DUP3 SWAP1 SHR SWAP2 POP JUMPDEST PUSH2 0xFFFF DUP3 AND ISZERO PUSH2 0x194C JUMPI PUSH1 0xF NOT ADD PUSH2 0x1954 JUMP JUMPDEST PUSH1 0x10 DUP3 SWAP1 SHR SWAP2 POP JUMPDEST PUSH1 0xFF DUP3 AND ISZERO PUSH2 0x1966 JUMPI PUSH1 0x7 NOT ADD PUSH2 0x196E JUMP JUMPDEST PUSH1 0x8 DUP3 SWAP1 SHR SWAP2 POP JUMPDEST PUSH1 0xF DUP3 AND ISZERO PUSH2 0x1980 JUMPI PUSH1 0x3 NOT ADD PUSH2 0x1988 JUMP JUMPDEST PUSH1 0x4 DUP3 SWAP1 SHR SWAP2 POP JUMPDEST PUSH1 0x3 DUP3 AND ISZERO PUSH2 0x199A JUMPI PUSH1 0x1 NOT ADD PUSH2 0x19A2 JUMP JUMPDEST PUSH1 0x2 DUP3 SWAP1 SHR SWAP2 POP JUMPDEST PUSH1 0x1 DUP3 AND ISZERO PUSH2 0xD3F JUMPI PUSH1 0x0 NOT ADD SWAP2 SWAP1 POP JUMP JUMPDEST DUP1 DUP3 ADD DUP3 DUP2 LT ISZERO PUSH2 0x69E JUMPI PUSH1 0x0 DUP1 REVERT JUMPDEST DUP1 PUSH1 0x1 PUSH1 0x1 PUSH1 0xA0 SHL SUB DUP2 AND DUP2 EQ PUSH2 0xD3F JUMPI PUSH1 0x0 DUP1 REVERT JUMPDEST PUSH1 0x40 DUP1 MLOAD PUSH1 0xE0 DUP2 ADD DUP3 MSTORE PUSH1 0x0 DUP1 DUP3 MSTORE PUSH1 0x20 DUP3 ADD DUP2 SWAP1 MSTORE SWAP2 DUP2 ADD DUP3 SWAP1 MSTORE PUSH1 0x60 DUP2 ADD DUP3 SWAP1 MSTORE PUSH1 0x80 DUP2 ADD DUP3 SWAP1 MSTORE PUSH1 0xA0 DUP2 ADD DUP3 SWAP1 MSTORE PUSH1 0xC0 DUP2 ADD SWAP2 SWAP1 SWAP2 MSTORE SWAP1 JUMP JUMPDEST PUSH1 0x40 DUP1 MLOAD PUSH1 0xA0 DUP2 ADD DUP3 MSTORE PUSH1 0x0 DUP1 DUP3 MSTORE PUSH1 0x20 DUP3 ADD DUP2 SWAP1 MSTORE SWAP2 DUP2 ADD DUP3 SWAP1 MSTORE PUSH1 0x60 DUP2 ADD DUP3 SWAP1 MSTORE PUSH1 0x80 DUP2 ADD SWAP2 SWAP1 SWAP2 MSTORE SWAP1 JUMP JUMPDEST PUSH1 0x40 DUP1 MLOAD PUSH1 0x60 DUP2 ADD DUP3 MSTORE PUSH1 0x0 DUP1 DUP3 MSTORE PUSH1 0x20 DUP3 ADD DUP2 SWAP1 MSTORE SWAP2 DUP2 ADD SWAP2 SWAP1 SWAP2 MSTORE SWAP1 JUMP INVALID LOG2 PUSH5 0x6970667358 0x22 SLT KECCAK256 SAR 0xC6 0xBC 0xC1 CREATE2 CALLER CALLDATACOPY SWAP15 0x21 JUMP 0xBB 0xE0 0x4E SWAP5 CALLER 0xE7 0xED 0xB8 0xE0 0xC5 EXTCODECOPY 0xDA PUSH23 0x424533F0D444C3DDF564736F6C63430007060033000000 "},"gasEstimates":{"creation":{"codeDepositCost":"1362000","executionCost":"1417","totalCost":"1363417"},"external":{"quote(address,bool,int256,uint160)":"infinite"},"internal":{"_tryGetPoolCurrentFee(address)":"infinite","getLiquidity(address)":"infinite","getPoolGlobalState(address)":"infinite","getTickSpacing(address)":"infinite","getTicks(address,int24)":"infinite","nextInitializedTickWithinOneWord(address,int24,int24,bool)":"infinite"}},"methodIdentifiers":{"quote(address,bool,int256,uint160)":"90405d36"}},"storageLayout":{"storage":[],"types":null},"userdoc":{"kind":"user","methods":{},"version":1}}}}