{"contracts/StaticQuoter.sol":{"StaticQuoter":{"abi":[{"inputs":[{"internalType":"bytes","name":"path","type":"bytes"}],"name":"decodePath","outputs":[{"components":[{"internalType":"address","name":"tokenIn","type":"address"},{"internalType":"address","name":"tokenOut","type":"address"},{"internalType":"address","name":"pool","type":"address"},{"internalType":"uint8","name":"poolType","type":"uint8"},{"internalType":"uint8","name":"feePercent","type":"uint8"},{"internalType":"uint8","name":"maxPercent","type":"uint8"}],"internalType":"struct StaticQuoter.Route[]","name":"","type":"tuple[]"}],"stateMutability":"pure","type":"function"},{"inputs":[{"internalType":"bytes","name":"path","type":"bytes"},{"internalType":"uint256","name":"amount","type":"uint256"}],"name":"getAmountIn","outputs":[{"internalType":"uint256[]","name":"","type":"uint256[]"}],"stateMutability":"view","type":"function"},{"inputs":[{"internalType":"address","name":"tokenIn","type":"address"},{"internalType":"address","name":"tokenOut","type":"address"},{"internalType":"address","name":"pool","type":"address"},{"internalType":"uint8","name":"feePercent","type":"uint8"},{"internalType":"uint8","name":"maxPercent","type":"uint8"},{"internalType":"uint256","name":"amountOut","type":"uint256"}],"name":"getAmountInV2","outputs":[{"internalType":"uint256","name":"amountIn","type":"uint256"}],"stateMutability":"view","type":"function"},{"inputs":[{"internalType":"address","name":"tokenIn","type":"address"},{"internalType":"address","name":"tokenOut","type":"address"},{"internalType":"address","name":"pool","type":"address"},{"internalType":"uint256","name":"amountOut","type":"uint256"}],"name":"getAmountInV3","outputs":[{"internalType":"uint256","name":"amountIn","type":"uint256"}],"stateMutability":"view","type":"function"},{"inputs":[{"internalType":"bytes","name":"path","type":"bytes"},{"internalType":"uint256","name":"amount","type":"uint256"}],"name":"getAmountOut","outputs":[{"internalType":"uint256[]","name":"","type":"uint256[]"}],"stateMutability":"view","type":"function"},{"inputs":[{"internalType":"address","name":"tokenIn","type":"address"},{"internalType":"address","name":"tokenOut","type":"address"},{"internalType":"address","name":"pool","type":"address"},{"internalType":"uint8","name":"feePercent","type":"uint8"},{"internalType":"uint8","name":"maxPercent","type":"uint8"},{"internalType":"uint256","name":"amountIn","type":"uint256"}],"name":"getAmountOutV2","outputs":[{"internalType":"uint256","name":"amountOut","type":"uint256"}],"stateMutability":"view","type":"function"},{"inputs":[{"internalType":"address","name":"tokenIn","type":"address"},{"internalType":"address","name":"tokenOut","type":"address"},{"internalType":"address","name":"pool","type":"address"},{"internalType":"uint256","name":"amountIn","type":"uint256"}],"name":"getAmountOutV3","outputs":[{"internalType":"uint256","name":"amountOut","type":"uint256"}],"stateMutability":"view","type":"function"},{"inputs":[{"internalType":"address","name":"poolAddress","type":"address"},{"internalType":"bool","name":"zeroForOne","type":"bool"},{"internalType":"int256","name":"amountSpecified","type":"int256"},{"internalType":"uint160","name":"sqrtPriceLimitX96","type":"uint160"}],"name":"quote","outputs":[{"internalType":"int256","name":"amount0","type":"int256"},{"internalType":"int256","name":"amount1","type":"int256"}],"stateMutability":"view","type":"function"}],"devdoc":{"kind":"dev","methods":{},"version":1},"evm":{"bytecode":{"linkReferences":{},"object":"608060405234801561001057600080fd5b50612c49806100206000396000f3fe608060405234801561001057600080fd5b50600436106100875760003560e01c806377cd49e41161005b57806377cd49e4146100fb57806390405d361461010e57806397de0a841461012f578063c25ddce01461014257610087565b8062614b2e1461008c5780632d0f9a30146100b557806353201a4c146100d55780636e95d3d8146100e8575b600080fd5b61009f61009a366004612a4b565b610162565b6040516100ac9190612b6d565b60405180910390f35b6100c86100c33660046127ca565b6102f6565b6040516100ac9190612bbf565b6100c86100e336600461281a565b6104b2565b6100c86100f63660046127ca565b6106d2565b61009f610109366004612a4b565b61087b565b61012161011c366004612892565b610a07565b6040516100ac929190612bb1565b6100c861013d36600461281a565b610cc5565b610155610150366004612a18565b610ed1565b6040516100ac9190612adc565b606060008380602001905181019061017a91906128e8565b90506000815167ffffffffffffffff8111801561019657600080fd5b506040519080825280602002602001820160405280156101c0578160200160208202803683370190505b508251909150600019015b8281815181106101d757fe5b60200260200101516060015160ff16600014156102765761026f8382815181106101fd57fe5b60200260200101516000015184838151811061021557fe5b60200260200101516020015185848151811061022d57fe5b60200260200101516040015186858151811061024557fe5b60200260200101516080015187868151811061025d57fe5b602002602001015160a001518a6104b2565b94506102ca565b6102c783828151811061028557fe5b60200260200101516000015184838151811061029d57fe5b6020026020010151602001518584815181106102b557fe5b602002602001015160400151886106d2565b94505b848282815181106102d757fe5b6020908102919091010152600019016101cb565b509150505b92915050565b60008281806001600160a01b0380881690891610610315578688610318565b87875b91509150816001600160a01b0316836001600160a01b0316630dfe16816040518163ffffffff1660e01b815260040160206040518083038186803b15801561035f57600080fd5b505afa158015610373573d6000803e3d6000fd5b505050506040513d601f19601f8201168201806040525081019061039791906127ae565b6001600160a01b031614158061042f5750806001600160a01b0316836001600160a01b031663d21220a76040518163ffffffff1660e01b815260040160206040518083038186803b1580156103eb57600080fd5b505afa1580156103ff573d6000803e3d6000fd5b505050506040513d601f19601f8201168201806040525081019061042391906127ae565b6001600160a01b031614155b1561044057600093505050506104aa565b6001600160a01b038088169089161060008061048a89846104608b610eef565b8661047f5773fffd8963efd1fc6a506488495d951d5263988d2561011c565b6401000276a4610a07565b915091508261049c57816000036104a1565b806000035b96505050505050505b949350505050565b60008481806001600160a01b03808a16908b16106104d157888a6104d4565b89895b91509150816001600160a01b0316836001600160a01b0316630dfe16816040518163ffffffff1660e01b815260040160206040518083038186803b15801561051b57600080fd5b505afa15801561052f573d6000803e3d6000fd5b505050506040513d601f19601f8201168201806040525081019061055391906127ae565b6001600160a01b03161415806105eb5750806001600160a01b0316836001600160a01b031663d21220a76040518163ffffffff1660e01b815260040160206040518083038186803b1580156105a757600080fd5b505afa1580156105bb573d6000803e3d6000fd5b505050506040513d601f19601f820116820180604052508101906105df91906127ae565b6001600160a01b031614155b156105fc57600093505050506106c8565b600080846001600160a01b0316630902f1ac6040518163ffffffff1660e01b815260040160606040518083038186803b15801561063857600080fd5b505afa15801561064c573d6000803e3d6000fd5b505050506040513d601f19601f820116820180604052508101906106709190612a8e565b506001600160701b031691506001600160701b031691506000808c6001600160a01b03168e6001600160a01b0316106106aa5782846106ad565b83835b915091506106be8983838e8e610f05565b9750505050505050505b9695505050505050565b60008281806001600160a01b03808816908916106106f15786886106f4565b87875b91509150816001600160a01b0316836001600160a01b0316630dfe16816040518163ffffffff1660e01b815260040160206040518083038186803b15801561073b57600080fd5b505afa15801561074f573d6000803e3d6000fd5b505050506040513d601f19601f8201168201806040525081019061077391906127ae565b6001600160a01b031614158061080b5750806001600160a01b0316836001600160a01b031663d21220a76040518163ffffffff1660e01b815260040160206040518083038186803b1580156107c757600080fd5b505afa1580156107db573d6000803e3d6000fd5b505050506040513d601f19601f820116820180604052508101906107ff91906127ae565b6001600160a01b031614155b1561081c57600093505050506104aa565b6001600160a01b038088169089161060008061085e898461083c8b610eef565b6000038661047f5773fffd8963efd1fc6a506488495d951d5263988d2561011c565b915091508261086d57806104a1565b509998505050505050505050565b606060008380602001905181019061089391906128e8565b90506000815167ffffffffffffffff811180156108af57600080fd5b506040519080825280602002602001820160405280156108d9578160200160208202803683370190505b50905060005b82518110156102eb578281815181106108f457fe5b60200260200101516060015160ff16600014156109935761098c83828151811061091a57fe5b60200260200101516000015184838151811061093257fe5b60200260200101516020015185848151811061094a57fe5b60200260200101516040015186858151811061096257fe5b60200260200101516080015187868151811061097a57fe5b602002602001015160a001518a610cc5565b94506109e7565b6109e48382815181106109a257fe5b6020026020010151600001518483815181106109ba57fe5b6020026020010151602001518584815181106109d257fe5b602002602001015160400151886102f6565b94505b848282815181106109f457fe5b60209081029190910101526001016108df565b60008083610a5c576040805162461bcd60e51b815260206004820152601e60248201527f616d6f756e745370656369666965642063616e6e6f74206265207a65726f0000604482015290519081900360640190fd5b6000808513908080610a708a8a8a8a610f7f565b9250925092505b805115801590610a9d5750866001600160a01b031681604001516001600160a01b031614155b15610c8e57610aaa612692565b60408201516001600160a01b031681526060820151610acc908c90868d611012565b6001600160a01b031660608401819052901515604080850191909152600292830b90920b602084015290830151610b1a91610b09908d908c61106f565b6080850151855161ffff88166110bc565b60c085015260a084015260808301526001600160a01b031660408301528415610b7c57610b508160c00151826080015101610eef565b825103825260a0810151610b7290610b6790610eef565b6020840151906112ae565b6020830152610bb7565b610b898160a00151610eef565b825101825260c08101516080820151610bb191610ba69101610eef565b6020840151906112c4565b60208301525b80606001516001600160a01b031682604001516001600160a01b03161415610c4d57806040015115610c24576000610bf38c83602001516112da565b5050505050509150508a15610c06576000035b610c148360800151826113a1565b6001600160801b03166080840152505b89610c33578060200151610c3c565b60018160200151035b600290810b900b6060830152610c88565b80600001516001600160a01b031682604001516001600160a01b031614610c8857610c7b8260400151611457565b600290810b900b60608301525b50610a77565b83151589151514610ca757602081015181518903610cb4565b8060000151880381602001515b909b909a5098505050505050505050565b60008481806001600160a01b03808a16908b1610610ce457888a610ce7565b89895b91509150816001600160a01b0316836001600160a01b0316630dfe16816040518163ffffffff1660e01b815260040160206040518083038186803b158015610d2e57600080fd5b505afa158015610d42573d6000803e3d6000fd5b505050506040513d601f19601f82011682018060405250810190610d6691906127ae565b6001600160a01b0316141580610dfe5750806001600160a01b0316836001600160a01b031663d21220a76040518163ffffffff1660e01b815260040160206040518083038186803b158015610dba57600080fd5b505afa158015610dce573d6000803e3d6000fd5b505050506040513d601f19601f82011682018060405250810190610df291906127ae565b6001600160a01b031614155b15610e0f57600093505050506106c8565b600080846001600160a01b0316630902f1ac6040518163ffffffff1660e01b815260040160606040518083038186803b158015610e4b57600080fd5b505afa158015610e5f573d6000803e3d6000fd5b505050506040513d601f19601f82011682018060405250810190610e839190612a8e565b506001600160701b031691506001600160701b031691506000808c6001600160a01b03168e6001600160a01b031610610ebd578284610ec0565b83835b915091506106be8983838e8e611776565b606081806020019051810190610ee791906128e8565b90505b919050565b6000600160ff1b8210610f0157600080fd5b5090565b600085610f1457506000610f76565b841580610f1f575083155b15610f2c57506000610f76565b6000610f4560ff8416610f3f888a6117ee565b906117ee565b90506000610f5a60ff8616610f3f888b611812565b9050610f716001828481610f6a57fe5b0490611822565b925050505b95945050505050565b600080610f8a6126ce565b6000610f9588611832565b9050610fa6878683600001516118e0565b610faf886119b1565b9350806040015192506040518060a001604052808781526020016000815260200182600001516001600160a01b03168152602001826020015160020b8152602001610ff98a611a1e565b6001600160801b03168152509150509450945094915050565b600080600061102387878787611a59565b9093509150620d89e719600284900b121561104457620d89e719925061105a565b620d89e8600284900b131561105a57620d89e892505b61106383611a75565b90509450945094915050565b60008361109057816001600160a01b0316836001600160a01b0316116110a6565b816001600160a01b0316836001600160a01b0316105b6110b057826110b2565b815b90505b9392505050565b60008080806001600160a01b03808916908a1610158187128015906111415760006110f58989620f42400362ffffff16620f4240611da7565b90508261110e576111098c8c8c6001611e56565b61111b565b61111b8b8d8c6001611ec6565b955085811061112c578a965061113b565b6111388c8b8386611f71565b96505b5061118b565b81611158576111538b8b8b6000611ec6565b611165565b6111658a8c8b6000611e56565b93508388600003106111795789955061118b565b6111888b8a8a60000385611fbd565b95505b6001600160a01b038a81169087161482156111ee578080156111aa5750815b6111c0576111bb878d8c6001611ec6565b6111c2565b855b95508080156111cf575081155b6111e5576111e0878d8c6000611e56565b6111e7565b845b9450611238565b8080156111f85750815b61120e576112098c888c6001611e56565b611210565b855b955080801561121d575081155b6112335761122e8c888c6000611ec6565b611235565b845b94505b8115801561124857508860000385115b15611254578860000394505b81801561127357508a6001600160a01b0316876001600160a01b031614155b1561128257858903935061129f565b61129c868962ffffff168a620f42400362ffffff16612009565b93505b50505095509550955095915050565b808203828113156000831215146102f057600080fd5b818101828112156000831215146102f057600080fd5b600080600080600080600080896001600160a01b031663f30dba938a6040518263ffffffff1660e01b8152600401808260020b81526020019150506101006040518083038186803b15801561132e57600080fd5b505afa158015611342573d6000803e3d6000fd5b505050506040513d61010081101561135957600080fd5b508051602082015160408301516060840151608085015160a086015160c087015160e090970151959e50939c50919a5098509650945090925090509295985092959890939650565b60008082600f0b121561140657826001600160801b03168260000384039150816001600160801b031610611401576040805162461bcd60e51b81526020600482015260026024820152614c5360f01b604482015290519081900360640190fd5b6102f0565b826001600160801b03168284019150816001600160801b031610156102f0576040805162461bcd60e51b81526020600482015260026024820152614c4160f01b604482015290519081900360640190fd5b60006401000276a36001600160a01b03831610801590611493575073fffd8963efd1fc6a506488495d951d5263988d266001600160a01b038316105b6114c8576040805162461bcd60e51b81526020600482015260016024820152602960f91b604482015290519081900360640190fd5b640100000000600160c01b03602083901b166001600160801b03811160071b81811c67ffffffffffffffff811160061b90811c63ffffffff811160051b90811c61ffff811160041b90811c60ff8111600390811b91821c600f811160021b90811c918211600190811b92831c9790881196179094179092171790911717176080811061155c57607f810383901c9150611566565b80607f0383901b91505b908002607f81811c60ff83811c9190911c800280831c81831c1c800280841c81841c1c800280851c81851c1c800280861c81861c1c800280871c81871c1c800280881c81881c1c800280891c81891c1c8002808a1c818a1c1c8002808b1c818b1c1c8002808c1c818c1c1c8002808d1c818d1c1c8002808e1c9c81901c9c909c1c80029c8d901c9e9d607f198f0160401b60c09190911c678000000000000000161760c19b909b1c674000000000000000169a909a1760c29990991c672000000000000000169890981760c39790971c671000000000000000169690961760c49590951c670800000000000000169490941760c59390931c670400000000000000169290921760c69190911c670200000000000000161760c79190911c670100000000000000161760c89190911c6680000000000000161760c99190911c6640000000000000161760ca9190911c6620000000000000161760cb9190911c6610000000000000161760cc9190911c6608000000000000161760cd9190911c66040000000000001617693627a301d71055774c8581026f028f6481ab7f045a5af012a19d003aa9198101608090811d906fdb2df09e81959a81455e260799a0632f8301901d600281810b9083900b1461176757886001600160a01b031661174b82611a75565b6001600160a01b031611156117605781611762565b805b611769565b815b9998505050505050505050565b60008561178557506000610f76565b841580611790575083155b1561179d57506000610f76565b60006117ac8760ff86166117ee565b905060006117ba82876117ee565b905060006117d5836117cf8a60ff89166117ee565b90611822565b90508082816117e057fe5b049998505050505050505050565b60008215806118095750508181028183828161180657fe5b04145b6102f057600080fd5b808203828111156102f057600080fd5b808201828110156102f057600080fd5b61183a6126fc565b61184382612043565b816040019061ffff16908161ffff1681525050816001600160a01b0316633850c7bd6040518163ffffffff1660e01b815260040160e06040518083038186803b15801561188f57600080fd5b505afa1580156118a3573d6000803e3d6000fd5b505050506040513d60e08110156118b957600080fd5b508051602091820151600290810b900b918301919091526001600160a01b03168152919050565b60008361192957816001600160a01b0316836001600160a01b0316118015611924575073fffd8963efd1fc6a506488495d951d5263988d266001600160a01b038416105b611957565b816001600160a01b0316836001600160a01b031610801561195757506401000276a36001600160a01b038416115b9050806119ab576040805162461bcd60e51b815260206004820152601c60248201527f7371727450726963654c696d6974206f7574206f6620626f756e647300000000604482015290519081900360640190fd5b50505050565b6000816001600160a01b031663d0c93a7c6040518163ffffffff1660e01b815260040160206040518083038186803b1580156119ec57600080fd5b505afa158015611a00573d6000803e3d6000fd5b505050506040513d6020811015611a1657600080fd5b505192915050565b6000816001600160a01b0316631a6865026040518163ffffffff1660e01b815260040160206040518083038186803b1580156119ec57600080fd5b600080611a688686868661211a565b9150915094509492505050565b60008060008360020b12611a8c578260020b611a94565b8260020b6000035b9050620d89e8811115611ad2576040805162461bcd60e51b81526020600482015260016024820152601560fa1b604482015290519081900360640190fd5b600060018216611ae657600160801b611af8565b6ffffcb933bd6fad37aa2d162d1a5940015b70ffffffffffffffffffffffffffffffffff1690506002821615611b2c576ffff97272373d413259a46990580e213a0260801c5b6004821615611b4b576ffff2e50f5f656932ef12357cf3c7fdcc0260801c5b6008821615611b6a576fffe5caca7e10e4e61c3624eaa0941cd00260801c5b6010821615611b89576fffcb9843d60f6159c9db58835c9266440260801c5b6020821615611ba8576fff973b41fa98c081472e6896dfb254c00260801c5b6040821615611bc7576fff2ea16466c96a3843ec78b326b528610260801c5b6080821615611be6576ffe5dee046a99a2a811c461f1969c30530260801c5b610100821615611c06576ffcbe86c7900a88aedcffc83b479aa3a40260801c5b610200821615611c26576ff987a7253ac413176f2b074cf7815e540260801c5b610400821615611c46576ff3392b0822b70005940c7a398e4b70f30260801c5b610800821615611c66576fe7159475a2c29b7443b29c7fa6e889d90260801c5b611000821615611c86576fd097f3bdfd2022b8845ad8f792aa58250260801c5b612000821615611ca6576fa9f746462d870fdf8a65dc1f90e061e50260801c5b614000821615611cc6576f70d869a156d2a1b890bb3df62baf32f70260801c5b618000821615611ce6576f31be135f97d08fd981231505542fcfa60260801c5b62010000821615611d07576f09aa508b5b7a84e1c677de54f3e99bc90260801c5b62020000821615611d27576e5d6af8dedb81196699c329225ee6040260801c5b62040000821615611d46576d2216e584f5fa1ea926041bedfe980260801c5b62080000821615611d63576b048a170391f7dc42444e8fa20260801c5b60008460020b1315611d7e578060001981611d7a57fe5b0490505b640100000000810615611d92576001611d95565b60005b60ff16602082901c0192505050919050565b6000808060001985870986860292508281109083900303905080611ddd5760008411611dd257600080fd5b5082900490506110b5565b808411611de957600080fd5b6000848688096000868103871696879004966002600389028118808a02820302808a02820302808a02820302808a02820302808a02820302808a02909103029181900381900460010186841190950394909402919094039290920491909117919091029150509392505050565b6000836001600160a01b0316856001600160a01b03161115611e76579293925b81611ea357611e9e836001600160801b03168686036001600160a01b0316600160601b611da7565b610f76565b610f76836001600160801b03168686036001600160a01b0316600160601b612009565b6000836001600160a01b0316856001600160a01b03161115611ee6579293925b600160601b600160e01b03606084901b166001600160a01b038686038116908716611f1057600080fd5b83611f4057866001600160a01b0316611f338383896001600160a01b0316611da7565b81611f3a57fe5b04611f66565b611f66611f578383896001600160a01b0316612009565b886001600160a01b0316612318565b979650505050505050565b600080856001600160a01b031611611f8857600080fd5b6000846001600160801b031611611f9e57600080fd5b81611fb057611e9e8585856001612323565b610f768585856001612404565b600080856001600160a01b031611611fd457600080fd5b6000846001600160801b031611611fea57600080fd5b81611ffc57611e9e8585856000612404565b610f768585856000612323565b6000612016848484611da7565b90506000828061202257fe5b84860911156110b557600019811061203957600080fd5b6001019392505050565b6000816001600160a01b031663da3c300d6040518163ffffffff1660e01b815260040160206040518083038186803b15801561207e57600080fd5b505afa9250505080156120a357506040513d602081101561209e57600080fd5b505160015b61211357816001600160a01b031663ddca3f436040518163ffffffff1660e01b815260040160206040518083038186803b1580156120e057600080fd5b505afa1580156120f4573d6000803e3d6000fd5b505050506040513d602081101561210a57600080fd5b50519050610eea565b9050610eea565b6000808581600286810b9088900b8161212f57fe5b05905060008760020b12801561215657508560020b8760020b8161214f57fe5b0760020b15155b1561216057600019015b841561223757600080612172836124e0565b6040805163299ce14b60e11b8152600184810b6004830152915193955091935060ff84161b8001600019019160009183916001600160a01b03891691635339c296916024808301926020929190829003018186803b1580156121d357600080fd5b505afa1580156121e7573d6000803e3d6000fd5b505050506040513d60208110156121fd57600080fd5b505116801515975090508661221957898360ff1686030261222c565b89612223826124f2565b840360ff168603025b97505050505061230d565b600080612246836001016124e0565b91509150600060018260ff166001901b03199050600081866001600160a01b0316635339c296866040518263ffffffff1660e01b8152600401808260010b815260200191505060206040518083038186803b1580156122a457600080fd5b505afa1580156122b8573d6000803e3d6000fd5b505050506040513d60208110156122ce57600080fd5b50511680151597509050866122f057898360ff0360ff16866001010102612306565b89836122fb83612592565b0360ff168660010101025b9750505050505b505094509492505050565b808204910615150190565b600081156123965760006001600160a01b038411156123595761235484600160601b876001600160801b0316611da7565b612371565b6001600160801b038516606085901b8161236f57fe5b045b905061238e6123896001600160a01b03881683611822565b61267c565b9150506104aa565b60006001600160a01b038411156123c4576123bf84600160601b876001600160801b0316612009565b6123db565b6123db606085901b6001600160801b038716612318565b905080866001600160a01b0316116123f257600080fd5b6001600160a01b0386160390506104aa565b6000826124125750836104aa565b600160601b600160e01b03606085901b168215612499576001600160a01b0386168481029085828161244057fe5b0414156124715781810182811061246f5761246583896001600160a01b031683612009565b93505050506104aa565b505b6124908261248b878a6001600160a01b03168681610f6a57fe5b612318565b925050506104aa565b6001600160a01b038616848102908582816124b057fe5b041480156124bd57508082115b6124c657600080fd5b808203612465612389846001600160a01b038b1684612009565b60020b600881901d9161010090910790565b600080821161250057600080fd5b600160801b821061251357608091821c91015b68010000000000000000821061252b57604091821c91015b640100000000821061253f57602091821c91015b62010000821061255157601091821c91015b610100821061256257600891821c91015b6010821061257257600491821c91015b6004821061258257600291821c91015b60028210610eea57600101919050565b60008082116125a057600080fd5b5060ff6001600160801b038216156125bb57607f19016125c3565b608082901c91505b67ffffffffffffffff8216156125dc57603f19016125e4565b604082901c91505b63ffffffff8216156125f957601f1901612601565b602082901c91505b61ffff82161561261457600f190161261c565b601082901c91505b60ff82161561262e5760071901612636565b600882901c91505b600f8216156126485760031901612650565b600482901c91505b6003821615612662576001190161266a565b600282901c91505b6001821615610eea5760001901919050565b806001600160a01b0381168114610eea57600080fd5b6040805160e081018252600080825260208201819052918101829052606081018290526080810182905260a0810182905260c081019190915290565b6040805160a08101825260008082526020820181905291810182905260608101829052608081019190915290565b604080516060810182526000808252602082018190529181019190915290565b8051610eea81612bec565b600082601f830112612737578081fd5b813567ffffffffffffffff81111561274b57fe5b61275e601f8201601f1916602001612bc8565b818152846020838601011115612772578283fd5b816020850160208301379081016020019190915292915050565b80516001600160701b0381168114610eea57600080fd5b8051610eea81612c04565b6000602082840312156127bf578081fd5b81516110b581612bec565b600080600080608085870312156127df578283fd5b84356127ea81612bec565b935060208501356127fa81612bec565b9250604085013561280a81612bec565b9396929550929360600135925050565b60008060008060008060c08789031215612832578182fd5b863561283d81612bec565b9550602087013561284d81612bec565b9450604087013561285d81612bec565b9350606087013561286d81612c04565b9250608087013561287d81612c04565b8092505060a087013590509295509295509295565b600080600080608085870312156128a7578384fd5b84356128b281612bec565b9350602085013580151581146128c6578384fd5b92506040850135915060608501356128dd81612bec565b939692955090935050565b600060208083850312156128fa578182fd5b825167ffffffffffffffff80821115612911578384fd5b818501915085601f830112612924578384fd5b81518181111561293057fe5b61293d8485830201612bc8565b8181528481019084860160c0808502870188018b101561295b578889fd5b8896505b84871015612a095780828c031215612975578889fd5b60408051828101818110898211171561298a57fe5b8252835161299781612bec565b81526129a4848b0161271c565b8a8201526129b382850161271c565b82820152606091506129c68285016127a3565b82820152608091506129d98285016127a3565b8282015260a091506129ec8285016127a3565b91810191909152845260019690960195928701929081019061295f565b50909998505050505050505050565b600060208284031215612a29578081fd5b813567ffffffffffffffff811115612a3f578182fd5b6104aa84828501612727565b60008060408385031215612a5d578182fd5b823567ffffffffffffffff811115612a73578283fd5b612a7f85828601612727565b95602094909401359450505050565b600080600060608486031215612aa2578081fd5b612aab8461278c565b9250612ab96020850161278c565b9150604084015163ffffffff81168114612ad1578182fd5b809150509250925092565b602080825282518282018190526000919060409081850190868401855b82811015612b6057815180516001600160a01b0390811686528782015181168887015286820151168686015260608082015160ff9081169187019190915260808083015182169087015260a091820151169085015260c09093019290850190600101612af9565b5091979650505050505050565b6020808252825182820181905260009190848201906040850190845b81811015612ba557835183529284019291840191600101612b89565b50909695505050505050565b918252602082015260400190565b90815260200190565b60405181810167ffffffffffffffff81118282101715612be457fe5b604052919050565b6001600160a01b0381168114612c0157600080fd5b50565b60ff81168114612c0157600080fdfea26469706673582212205f0301b94acc3ae7c95c9cf7282b659b38b1111b9512431d6c6ae24f2141335364736f6c63430007060033","opcodes":"PUSH1 0x80 PUSH1 0x40 MSTORE CALLVALUE DUP1 ISZERO PUSH2 0x10 JUMPI PUSH1 0x0 DUP1 REVERT JUMPDEST POP PUSH2 0x2C49 DUP1 PUSH2 0x20 PUSH1 0x0 CODECOPY PUSH1 0x0 RETURN INVALID PUSH1 0x80 PUSH1 0x40 MSTORE CALLVALUE DUP1 ISZERO PUSH2 0x10 JUMPI PUSH1 0x0 DUP1 REVERT JUMPDEST POP PUSH1 0x4 CALLDATASIZE LT PUSH2 0x87 JUMPI PUSH1 0x0 CALLDATALOAD PUSH1 0xE0 SHR DUP1 PUSH4 0x77CD49E4 GT PUSH2 0x5B JUMPI DUP1 PUSH4 0x77CD49E4 EQ PUSH2 0xFB JUMPI DUP1 PUSH4 0x90405D36 EQ PUSH2 0x10E JUMPI DUP1 PUSH4 0x97DE0A84 EQ PUSH2 0x12F JUMPI DUP1 PUSH4 0xC25DDCE0 EQ PUSH2 0x142 JUMPI PUSH2 0x87 JUMP JUMPDEST DUP1 PUSH3 0x614B2E EQ PUSH2 0x8C JUMPI DUP1 PUSH4 0x2D0F9A30 EQ PUSH2 0xB5 JUMPI DUP1 PUSH4 0x53201A4C EQ PUSH2 0xD5 JUMPI DUP1 PUSH4 0x6E95D3D8 EQ PUSH2 0xE8 JUMPI JUMPDEST PUSH1 0x0 DUP1 REVERT JUMPDEST PUSH2 0x9F PUSH2 0x9A CALLDATASIZE PUSH1 0x4 PUSH2 0x2A4B JUMP JUMPDEST PUSH2 0x162 JUMP JUMPDEST PUSH1 0x40 MLOAD PUSH2 0xAC SWAP2 SWAP1 PUSH2 0x2B6D JUMP JUMPDEST PUSH1 0x40 MLOAD DUP1 SWAP2 SUB SWAP1 RETURN JUMPDEST PUSH2 0xC8 PUSH2 0xC3 CALLDATASIZE PUSH1 0x4 PUSH2 0x27CA JUMP JUMPDEST PUSH2 0x2F6 JUMP JUMPDEST PUSH1 0x40 MLOAD PUSH2 0xAC SWAP2 SWAP1 PUSH2 0x2BBF JUMP JUMPDEST PUSH2 0xC8 PUSH2 0xE3 CALLDATASIZE PUSH1 0x4 PUSH2 0x281A JUMP JUMPDEST PUSH2 0x4B2 JUMP JUMPDEST PUSH2 0xC8 PUSH2 0xF6 CALLDATASIZE PUSH1 0x4 PUSH2 0x27CA JUMP JUMPDEST PUSH2 0x6D2 JUMP JUMPDEST PUSH2 0x9F PUSH2 0x109 CALLDATASIZE PUSH1 0x4 PUSH2 0x2A4B JUMP JUMPDEST PUSH2 0x87B JUMP JUMPDEST PUSH2 0x121 PUSH2 0x11C CALLDATASIZE PUSH1 0x4 PUSH2 0x2892 JUMP JUMPDEST PUSH2 0xA07 JUMP JUMPDEST PUSH1 0x40 MLOAD PUSH2 0xAC SWAP3 SWAP2 SWAP1 PUSH2 0x2BB1 JUMP JUMPDEST PUSH2 0xC8 PUSH2 0x13D CALLDATASIZE PUSH1 0x4 PUSH2 0x281A JUMP JUMPDEST PUSH2 0xCC5 JUMP JUMPDEST PUSH2 0x155 PUSH2 0x150 CALLDATASIZE PUSH1 0x4 PUSH2 0x2A18 JUMP JUMPDEST PUSH2 0xED1 JUMP JUMPDEST PUSH1 0x40 MLOAD PUSH2 0xAC SWAP2 SWAP1 PUSH2 0x2ADC JUMP JUMPDEST PUSH1 0x60 PUSH1 0x0 DUP4 DUP1 PUSH1 0x20 ADD SWAP1 MLOAD DUP2 ADD SWAP1 PUSH2 0x17A SWAP2 SWAP1 PUSH2 0x28E8 JUMP JUMPDEST SWAP1 POP PUSH1 0x0 DUP2 MLOAD PUSH8 0xFFFFFFFFFFFFFFFF DUP2 GT DUP1 ISZERO PUSH2 0x196 JUMPI PUSH1 0x0 DUP1 REVERT JUMPDEST POP PUSH1 0x40 MLOAD SWAP1 DUP1 DUP3 MSTORE DUP1 PUSH1 0x20 MUL PUSH1 0x20 ADD DUP3 ADD PUSH1 0x40 MSTORE DUP1 ISZERO PUSH2 0x1C0 JUMPI DUP2 PUSH1 0x20 ADD PUSH1 0x20 DUP3 MUL DUP1 CALLDATASIZE DUP4 CALLDATACOPY ADD SWAP1 POP JUMPDEST POP DUP3 MLOAD SWAP1 SWAP2 POP PUSH1 0x0 NOT ADD JUMPDEST DUP3 DUP2 DUP2 MLOAD DUP2 LT PUSH2 0x1D7 JUMPI INVALID JUMPDEST PUSH1 0x20 MUL PUSH1 0x20 ADD ADD MLOAD PUSH1 0x60 ADD MLOAD PUSH1 0xFF AND PUSH1 0x0 EQ ISZERO PUSH2 0x276 JUMPI PUSH2 0x26F DUP4 DUP3 DUP2 MLOAD DUP2 LT PUSH2 0x1FD JUMPI INVALID JUMPDEST PUSH1 0x20 MUL PUSH1 0x20 ADD ADD MLOAD PUSH1 0x0 ADD MLOAD DUP5 DUP4 DUP2 MLOAD DUP2 LT PUSH2 0x215 JUMPI INVALID JUMPDEST PUSH1 0x20 MUL PUSH1 0x20 ADD ADD MLOAD PUSH1 0x20 ADD MLOAD DUP6 DUP5 DUP2 MLOAD DUP2 LT PUSH2 0x22D JUMPI INVALID JUMPDEST PUSH1 0x20 MUL PUSH1 0x20 ADD ADD MLOAD PUSH1 0x40 ADD MLOAD DUP7 DUP6 DUP2 MLOAD DUP2 LT PUSH2 0x245 JUMPI INVALID JUMPDEST PUSH1 0x20 MUL PUSH1 0x20 ADD ADD MLOAD PUSH1 0x80 ADD MLOAD DUP8 DUP7 DUP2 MLOAD DUP2 LT PUSH2 0x25D JUMPI INVALID JUMPDEST PUSH1 0x20 MUL PUSH1 0x20 ADD ADD MLOAD PUSH1 0xA0 ADD MLOAD DUP11 PUSH2 0x4B2 JUMP JUMPDEST SWAP5 POP PUSH2 0x2CA JUMP JUMPDEST PUSH2 0x2C7 DUP4 DUP3 DUP2 MLOAD DUP2 LT PUSH2 0x285 JUMPI INVALID JUMPDEST PUSH1 0x20 MUL PUSH1 0x20 ADD ADD MLOAD PUSH1 0x0 ADD MLOAD DUP5 DUP4 DUP2 MLOAD DUP2 LT PUSH2 0x29D JUMPI INVALID JUMPDEST PUSH1 0x20 MUL PUSH1 0x20 ADD ADD MLOAD PUSH1 0x20 ADD MLOAD DUP6 DUP5 DUP2 MLOAD DUP2 LT PUSH2 0x2B5 JUMPI INVALID JUMPDEST PUSH1 0x20 MUL PUSH1 0x20 ADD ADD MLOAD PUSH1 0x40 ADD MLOAD DUP9 PUSH2 0x6D2 JUMP JUMPDEST SWAP5 POP JUMPDEST DUP5 DUP3 DUP3 DUP2 MLOAD DUP2 LT PUSH2 0x2D7 JUMPI INVALID JUMPDEST PUSH1 0x20 SWAP1 DUP2 MUL SWAP2 SWAP1 SWAP2 ADD ADD MSTORE PUSH1 0x0 NOT ADD PUSH2 0x1CB JUMP JUMPDEST POP SWAP2 POP POP JUMPDEST SWAP3 SWAP2 POP POP JUMP JUMPDEST PUSH1 0x0 DUP3 DUP2 DUP1 PUSH1 0x1 PUSH1 0x1 PUSH1 0xA0 SHL SUB DUP1 DUP9 AND SWAP1 DUP10 AND LT PUSH2 0x315 JUMPI DUP7 DUP9 PUSH2 0x318 JUMP JUMPDEST DUP8 DUP8 JUMPDEST SWAP2 POP SWAP2 POP DUP2 PUSH1 0x1 PUSH1 0x1 PUSH1 0xA0 SHL SUB AND DUP4 PUSH1 0x1 PUSH1 0x1 PUSH1 0xA0 SHL SUB AND PUSH4 0xDFE1681 PUSH1 0x40 MLOAD DUP2 PUSH4 0xFFFFFFFF AND PUSH1 0xE0 SHL DUP2 MSTORE PUSH1 0x4 ADD PUSH1 0x20 PUSH1 0x40 MLOAD DUP1 DUP4 SUB DUP2 DUP7 DUP1 EXTCODESIZE ISZERO DUP1 ISZERO PUSH2 0x35F JUMPI PUSH1 0x0 DUP1 REVERT JUMPDEST POP GAS STATICCALL ISZERO DUP1 ISZERO PUSH2 0x373 JUMPI RETURNDATASIZE PUSH1 0x0 DUP1 RETURNDATACOPY RETURNDATASIZE PUSH1 0x0 REVERT JUMPDEST POP POP POP POP PUSH1 0x40 MLOAD RETURNDATASIZE PUSH1 0x1F NOT PUSH1 0x1F DUP3 ADD AND DUP3 ADD DUP1 PUSH1 0x40 MSTORE POP DUP2 ADD SWAP1 PUSH2 0x397 SWAP2 SWAP1 PUSH2 0x27AE JUMP JUMPDEST PUSH1 0x1 PUSH1 0x1 PUSH1 0xA0 SHL SUB AND EQ ISZERO DUP1 PUSH2 0x42F JUMPI POP DUP1 PUSH1 0x1 PUSH1 0x1 PUSH1 0xA0 SHL SUB AND DUP4 PUSH1 0x1 PUSH1 0x1 PUSH1 0xA0 SHL SUB AND PUSH4 0xD21220A7 PUSH1 0x40 MLOAD DUP2 PUSH4 0xFFFFFFFF AND PUSH1 0xE0 SHL DUP2 MSTORE PUSH1 0x4 ADD PUSH1 0x20 PUSH1 0x40 MLOAD DUP1 DUP4 SUB DUP2 DUP7 DUP1 EXTCODESIZE ISZERO DUP1 ISZERO PUSH2 0x3EB JUMPI PUSH1 0x0 DUP1 REVERT JUMPDEST POP GAS STATICCALL ISZERO DUP1 ISZERO PUSH2 0x3FF JUMPI RETURNDATASIZE PUSH1 0x0 DUP1 RETURNDATACOPY RETURNDATASIZE PUSH1 0x0 REVERT JUMPDEST POP POP POP POP PUSH1 0x40 MLOAD RETURNDATASIZE PUSH1 0x1F NOT PUSH1 0x1F DUP3 ADD AND DUP3 ADD DUP1 PUSH1 0x40 MSTORE POP DUP2 ADD SWAP1 PUSH2 0x423 SWAP2 SWAP1 PUSH2 0x27AE JUMP JUMPDEST PUSH1 0x1 PUSH1 0x1 PUSH1 0xA0 SHL SUB AND EQ ISZERO JUMPDEST ISZERO PUSH2 0x440 JUMPI PUSH1 0x0 SWAP4 POP POP POP POP PUSH2 0x4AA JUMP JUMPDEST PUSH1 0x1 PUSH1 0x1 PUSH1 0xA0 SHL SUB DUP1 DUP9 AND SWAP1 DUP10 AND LT PUSH1 0x0 DUP1 PUSH2 0x48A DUP10 DUP5 PUSH2 0x460 DUP12 PUSH2 0xEEF JUMP JUMPDEST DUP7 PUSH2 0x47F JUMPI PUSH20 0xFFFD8963EFD1FC6A506488495D951D5263988D25 PUSH2 0x11C JUMP JUMPDEST PUSH5 0x1000276A4 PUSH2 0xA07 JUMP JUMPDEST SWAP2 POP SWAP2 POP DUP3 PUSH2 0x49C JUMPI DUP2 PUSH1 0x0 SUB PUSH2 0x4A1 JUMP JUMPDEST DUP1 PUSH1 0x0 SUB JUMPDEST SWAP7 POP POP POP POP POP POP POP JUMPDEST SWAP5 SWAP4 POP POP POP POP JUMP JUMPDEST PUSH1 0x0 DUP5 DUP2 DUP1 PUSH1 0x1 PUSH1 0x1 PUSH1 0xA0 SHL SUB DUP1 DUP11 AND SWAP1 DUP12 AND LT PUSH2 0x4D1 JUMPI DUP9 DUP11 PUSH2 0x4D4 JUMP JUMPDEST DUP10 DUP10 JUMPDEST SWAP2 POP SWAP2 POP DUP2 PUSH1 0x1 PUSH1 0x1 PUSH1 0xA0 SHL SUB AND DUP4 PUSH1 0x1 PUSH1 0x1 PUSH1 0xA0 SHL SUB AND PUSH4 0xDFE1681 PUSH1 0x40 MLOAD DUP2 PUSH4 0xFFFFFFFF AND PUSH1 0xE0 SHL DUP2 MSTORE PUSH1 0x4 ADD PUSH1 0x20 PUSH1 0x40 MLOAD DUP1 DUP4 SUB DUP2 DUP7 DUP1 EXTCODESIZE ISZERO DUP1 ISZERO PUSH2 0x51B JUMPI PUSH1 0x0 DUP1 REVERT JUMPDEST POP GAS STATICCALL ISZERO DUP1 ISZERO PUSH2 0x52F JUMPI RETURNDATASIZE PUSH1 0x0 DUP1 RETURNDATACOPY RETURNDATASIZE PUSH1 0x0 REVERT JUMPDEST POP POP POP POP PUSH1 0x40 MLOAD RETURNDATASIZE PUSH1 0x1F NOT PUSH1 0x1F DUP3 ADD AND DUP3 ADD DUP1 PUSH1 0x40 MSTORE POP DUP2 ADD SWAP1 PUSH2 0x553 SWAP2 SWAP1 PUSH2 0x27AE JUMP JUMPDEST PUSH1 0x1 PUSH1 0x1 PUSH1 0xA0 SHL SUB AND EQ ISZERO DUP1 PUSH2 0x5EB JUMPI POP DUP1 PUSH1 0x1 PUSH1 0x1 PUSH1 0xA0 SHL SUB AND DUP4 PUSH1 0x1 PUSH1 0x1 PUSH1 0xA0 SHL SUB AND PUSH4 0xD21220A7 PUSH1 0x40 MLOAD DUP2 PUSH4 0xFFFFFFFF AND PUSH1 0xE0 SHL DUP2 MSTORE PUSH1 0x4 ADD PUSH1 0x20 PUSH1 0x40 MLOAD DUP1 DUP4 SUB DUP2 DUP7 DUP1 EXTCODESIZE ISZERO DUP1 ISZERO PUSH2 0x5A7 JUMPI PUSH1 0x0 DUP1 REVERT JUMPDEST POP GAS STATICCALL ISZERO DUP1 ISZERO PUSH2 0x5BB JUMPI RETURNDATASIZE PUSH1 0x0 DUP1 RETURNDATACOPY RETURNDATASIZE PUSH1 0x0 REVERT JUMPDEST POP POP POP POP PUSH1 0x40 MLOAD RETURNDATASIZE PUSH1 0x1F NOT PUSH1 0x1F DUP3 ADD AND DUP3 ADD DUP1 PUSH1 0x40 MSTORE POP DUP2 ADD SWAP1 PUSH2 0x5DF SWAP2 SWAP1 PUSH2 0x27AE JUMP JUMPDEST PUSH1 0x1 PUSH1 0x1 PUSH1 0xA0 SHL SUB AND EQ ISZERO JUMPDEST ISZERO PUSH2 0x5FC JUMPI PUSH1 0x0 SWAP4 POP POP POP POP PUSH2 0x6C8 JUMP JUMPDEST PUSH1 0x0 DUP1 DUP5 PUSH1 0x1 PUSH1 0x1 PUSH1 0xA0 SHL SUB AND PUSH4 0x902F1AC PUSH1 0x40 MLOAD DUP2 PUSH4 0xFFFFFFFF AND PUSH1 0xE0 SHL DUP2 MSTORE PUSH1 0x4 ADD PUSH1 0x60 PUSH1 0x40 MLOAD DUP1 DUP4 SUB DUP2 DUP7 DUP1 EXTCODESIZE ISZERO DUP1 ISZERO PUSH2 0x638 JUMPI PUSH1 0x0 DUP1 REVERT JUMPDEST POP GAS STATICCALL ISZERO DUP1 ISZERO PUSH2 0x64C JUMPI RETURNDATASIZE PUSH1 0x0 DUP1 RETURNDATACOPY RETURNDATASIZE PUSH1 0x0 REVERT JUMPDEST POP POP POP POP PUSH1 0x40 MLOAD RETURNDATASIZE PUSH1 0x1F NOT PUSH1 0x1F DUP3 ADD AND DUP3 ADD DUP1 PUSH1 0x40 MSTORE POP DUP2 ADD SWAP1 PUSH2 0x670 SWAP2 SWAP1 PUSH2 0x2A8E JUMP JUMPDEST POP PUSH1 0x1 PUSH1 0x1 PUSH1 0x70 SHL SUB AND SWAP2 POP PUSH1 0x1 PUSH1 0x1 PUSH1 0x70 SHL SUB AND SWAP2 POP PUSH1 0x0 DUP1 DUP13 PUSH1 0x1 PUSH1 0x1 PUSH1 0xA0 SHL SUB AND DUP15 PUSH1 0x1 PUSH1 0x1 PUSH1 0xA0 SHL SUB AND LT PUSH2 0x6AA JUMPI DUP3 DUP5 PUSH2 0x6AD JUMP JUMPDEST DUP4 DUP4 JUMPDEST SWAP2 POP SWAP2 POP PUSH2 0x6BE DUP10 DUP4 DUP4 DUP15 DUP15 PUSH2 0xF05 JUMP JUMPDEST SWAP8 POP POP POP POP POP POP POP POP JUMPDEST SWAP7 SWAP6 POP POP POP POP POP POP JUMP JUMPDEST PUSH1 0x0 DUP3 DUP2 DUP1 PUSH1 0x1 PUSH1 0x1 PUSH1 0xA0 SHL SUB DUP1 DUP9 AND SWAP1 DUP10 AND LT PUSH2 0x6F1 JUMPI DUP7 DUP9 PUSH2 0x6F4 JUMP JUMPDEST DUP8 DUP8 JUMPDEST SWAP2 POP SWAP2 POP DUP2 PUSH1 0x1 PUSH1 0x1 PUSH1 0xA0 SHL SUB AND DUP4 PUSH1 0x1 PUSH1 0x1 PUSH1 0xA0 SHL SUB AND PUSH4 0xDFE1681 PUSH1 0x40 MLOAD DUP2 PUSH4 0xFFFFFFFF AND PUSH1 0xE0 SHL DUP2 MSTORE PUSH1 0x4 ADD PUSH1 0x20 PUSH1 0x40 MLOAD DUP1 DUP4 SUB DUP2 DUP7 DUP1 EXTCODESIZE ISZERO DUP1 ISZERO PUSH2 0x73B JUMPI PUSH1 0x0 DUP1 REVERT JUMPDEST POP GAS STATICCALL ISZERO DUP1 ISZERO PUSH2 0x74F JUMPI RETURNDATASIZE PUSH1 0x0 DUP1 RETURNDATACOPY RETURNDATASIZE PUSH1 0x0 REVERT JUMPDEST POP POP POP POP PUSH1 0x40 MLOAD RETURNDATASIZE PUSH1 0x1F NOT PUSH1 0x1F DUP3 ADD AND DUP3 ADD DUP1 PUSH1 0x40 MSTORE POP DUP2 ADD SWAP1 PUSH2 0x773 SWAP2 SWAP1 PUSH2 0x27AE JUMP JUMPDEST PUSH1 0x1 PUSH1 0x1 PUSH1 0xA0 SHL SUB AND EQ ISZERO DUP1 PUSH2 0x80B JUMPI POP DUP1 PUSH1 0x1 PUSH1 0x1 PUSH1 0xA0 SHL SUB AND DUP4 PUSH1 0x1 PUSH1 0x1 PUSH1 0xA0 SHL SUB AND PUSH4 0xD21220A7 PUSH1 0x40 MLOAD DUP2 PUSH4 0xFFFFFFFF AND PUSH1 0xE0 SHL DUP2 MSTORE PUSH1 0x4 ADD PUSH1 0x20 PUSH1 0x40 MLOAD DUP1 DUP4 SUB DUP2 DUP7 DUP1 EXTCODESIZE ISZERO DUP1 ISZERO PUSH2 0x7C7 JUMPI PUSH1 0x0 DUP1 REVERT JUMPDEST POP GAS STATICCALL ISZERO DUP1 ISZERO PUSH2 0x7DB JUMPI RETURNDATASIZE PUSH1 0x0 DUP1 RETURNDATACOPY RETURNDATASIZE PUSH1 0x0 REVERT JUMPDEST POP POP POP POP PUSH1 0x40 MLOAD RETURNDATASIZE PUSH1 0x1F NOT PUSH1 0x1F DUP3 ADD AND DUP3 ADD DUP1 PUSH1 0x40 MSTORE POP DUP2 ADD SWAP1 PUSH2 0x7FF SWAP2 SWAP1 PUSH2 0x27AE JUMP JUMPDEST PUSH1 0x1 PUSH1 0x1 PUSH1 0xA0 SHL SUB AND EQ ISZERO JUMPDEST ISZERO PUSH2 0x81C JUMPI PUSH1 0x0 SWAP4 POP POP POP POP PUSH2 0x4AA JUMP JUMPDEST PUSH1 0x1 PUSH1 0x1 PUSH1 0xA0 SHL SUB DUP1 DUP9 AND SWAP1 DUP10 AND LT PUSH1 0x0 DUP1 PUSH2 0x85E DUP10 DUP5 PUSH2 0x83C DUP12 PUSH2 0xEEF JUMP JUMPDEST PUSH1 0x0 SUB DUP7 PUSH2 0x47F JUMPI PUSH20 0xFFFD8963EFD1FC6A506488495D951D5263988D25 PUSH2 0x11C JUMP JUMPDEST SWAP2 POP SWAP2 POP DUP3 PUSH2 0x86D JUMPI DUP1 PUSH2 0x4A1 JUMP JUMPDEST POP SWAP10 SWAP9 POP POP POP POP POP POP POP POP POP JUMP JUMPDEST PUSH1 0x60 PUSH1 0x0 DUP4 DUP1 PUSH1 0x20 ADD SWAP1 MLOAD DUP2 ADD SWAP1 PUSH2 0x893 SWAP2 SWAP1 PUSH2 0x28E8 JUMP JUMPDEST SWAP1 POP PUSH1 0x0 DUP2 MLOAD PUSH8 0xFFFFFFFFFFFFFFFF DUP2 GT DUP1 ISZERO PUSH2 0x8AF JUMPI PUSH1 0x0 DUP1 REVERT JUMPDEST POP PUSH1 0x40 MLOAD SWAP1 DUP1 DUP3 MSTORE DUP1 PUSH1 0x20 MUL PUSH1 0x20 ADD DUP3 ADD PUSH1 0x40 MSTORE DUP1 ISZERO PUSH2 0x8D9 JUMPI DUP2 PUSH1 0x20 ADD PUSH1 0x20 DUP3 MUL DUP1 CALLDATASIZE DUP4 CALLDATACOPY ADD SWAP1 POP JUMPDEST POP SWAP1 POP PUSH1 0x0 JUMPDEST DUP3 MLOAD DUP2 LT ISZERO PUSH2 0x2EB JUMPI DUP3 DUP2 DUP2 MLOAD DUP2 LT PUSH2 0x8F4 JUMPI INVALID JUMPDEST PUSH1 0x20 MUL PUSH1 0x20 ADD ADD MLOAD PUSH1 0x60 ADD MLOAD PUSH1 0xFF AND PUSH1 0x0 EQ ISZERO PUSH2 0x993 JUMPI PUSH2 0x98C DUP4 DUP3 DUP2 MLOAD DUP2 LT PUSH2 0x91A JUMPI INVALID JUMPDEST PUSH1 0x20 MUL PUSH1 0x20 ADD ADD MLOAD PUSH1 0x0 ADD MLOAD DUP5 DUP4 DUP2 MLOAD DUP2 LT PUSH2 0x932 JUMPI INVALID JUMPDEST PUSH1 0x20 MUL PUSH1 0x20 ADD ADD MLOAD PUSH1 0x20 ADD MLOAD DUP6 DUP5 DUP2 MLOAD DUP2 LT PUSH2 0x94A JUMPI INVALID JUMPDEST PUSH1 0x20 MUL PUSH1 0x20 ADD ADD MLOAD PUSH1 0x40 ADD MLOAD DUP7 DUP6 DUP2 MLOAD DUP2 LT PUSH2 0x962 JUMPI INVALID JUMPDEST PUSH1 0x20 MUL PUSH1 0x20 ADD ADD MLOAD PUSH1 0x80 ADD MLOAD DUP8 DUP7 DUP2 MLOAD DUP2 LT PUSH2 0x97A JUMPI INVALID JUMPDEST PUSH1 0x20 MUL PUSH1 0x20 ADD ADD MLOAD PUSH1 0xA0 ADD MLOAD DUP11 PUSH2 0xCC5 JUMP JUMPDEST SWAP5 POP PUSH2 0x9E7 JUMP JUMPDEST PUSH2 0x9E4 DUP4 DUP3 DUP2 MLOAD DUP2 LT PUSH2 0x9A2 JUMPI INVALID JUMPDEST PUSH1 0x20 MUL PUSH1 0x20 ADD ADD MLOAD PUSH1 0x0 ADD MLOAD DUP5 DUP4 DUP2 MLOAD DUP2 LT PUSH2 0x9BA JUMPI INVALID JUMPDEST PUSH1 0x20 MUL PUSH1 0x20 ADD ADD MLOAD PUSH1 0x20 ADD MLOAD DUP6 DUP5 DUP2 MLOAD DUP2 LT PUSH2 0x9D2 JUMPI INVALID JUMPDEST PUSH1 0x20 MUL PUSH1 0x20 ADD ADD MLOAD PUSH1 0x40 ADD MLOAD DUP9 PUSH2 0x2F6 JUMP JUMPDEST SWAP5 POP JUMPDEST DUP5 DUP3 DUP3 DUP2 MLOAD DUP2 LT PUSH2 0x9F4 JUMPI INVALID JUMPDEST PUSH1 0x20 SWAP1 DUP2 MUL SWAP2 SWAP1 SWAP2 ADD ADD MSTORE PUSH1 0x1 ADD PUSH2 0x8DF JUMP JUMPDEST PUSH1 0x0 DUP1 DUP4 PUSH2 0xA5C JUMPI PUSH1 0x40 DUP1 MLOAD PUSH3 0x461BCD PUSH1 0xE5 SHL DUP2 MSTORE PUSH1 0x20 PUSH1 0x4 DUP3 ADD MSTORE PUSH1 0x1E PUSH1 0x24 DUP3 ADD MSTORE PUSH32 0x616D6F756E745370656369666965642063616E6E6F74206265207A65726F0000 PUSH1 0x44 DUP3 ADD MSTORE SWAP1 MLOAD SWAP1 DUP2 SWAP1 SUB PUSH1 0x64 ADD SWAP1 REVERT JUMPDEST PUSH1 0x0 DUP1 DUP6 SGT SWAP1 DUP1 DUP1 PUSH2 0xA70 DUP11 DUP11 DUP11 DUP11 PUSH2 0xF7F JUMP JUMPDEST SWAP3 POP SWAP3 POP SWAP3 POP JUMPDEST DUP1 MLOAD ISZERO DUP1 ISZERO SWAP1 PUSH2 0xA9D JUMPI POP DUP7 PUSH1 0x1 PUSH1 0x1 PUSH1 0xA0 SHL SUB AND DUP2 PUSH1 0x40 ADD MLOAD PUSH1 0x1 PUSH1 0x1 PUSH1 0xA0 SHL SUB AND EQ ISZERO JUMPDEST ISZERO PUSH2 0xC8E JUMPI PUSH2 0xAAA PUSH2 0x2692 JUMP JUMPDEST PUSH1 0x40 DUP3 ADD MLOAD PUSH1 0x1 PUSH1 0x1 PUSH1 0xA0 SHL SUB AND DUP2 MSTORE PUSH1 0x60 DUP3 ADD MLOAD PUSH2 0xACC SWAP1 DUP13 SWAP1 DUP7 DUP14 PUSH2 0x1012 JUMP JUMPDEST PUSH1 0x1 PUSH1 0x1 PUSH1 0xA0 SHL SUB AND PUSH1 0x60 DUP5 ADD DUP2 SWAP1 MSTORE SWAP1 ISZERO ISZERO PUSH1 0x40 DUP1 DUP6 ADD SWAP2 SWAP1 SWAP2 MSTORE PUSH1 0x2 SWAP3 DUP4 SIGNEXTEND SWAP1 SWAP3 SIGNEXTEND PUSH1 0x20 DUP5 ADD MSTORE SWAP1 DUP4 ADD MLOAD PUSH2 0xB1A SWAP2 PUSH2 0xB09 SWAP1 DUP14 SWAP1 DUP13 PUSH2 0x106F JUMP JUMPDEST PUSH1 0x80 DUP6 ADD MLOAD DUP6 MLOAD PUSH2 0xFFFF DUP9 AND PUSH2 0x10BC JUMP JUMPDEST PUSH1 0xC0 DUP6 ADD MSTORE PUSH1 0xA0 DUP5 ADD MSTORE PUSH1 0x80 DUP4 ADD MSTORE PUSH1 0x1 PUSH1 0x1 PUSH1 0xA0 SHL SUB AND PUSH1 0x40 DUP4 ADD MSTORE DUP5 ISZERO PUSH2 0xB7C JUMPI PUSH2 0xB50 DUP2 PUSH1 0xC0 ADD MLOAD DUP3 PUSH1 0x80 ADD MLOAD ADD PUSH2 0xEEF JUMP JUMPDEST DUP3 MLOAD SUB DUP3 MSTORE PUSH1 0xA0 DUP2 ADD MLOAD PUSH2 0xB72 SWAP1 PUSH2 0xB67 SWAP1 PUSH2 0xEEF JUMP JUMPDEST PUSH1 0x20 DUP5 ADD MLOAD SWAP1 PUSH2 0x12AE JUMP JUMPDEST PUSH1 0x20 DUP4 ADD MSTORE PUSH2 0xBB7 JUMP JUMPDEST PUSH2 0xB89 DUP2 PUSH1 0xA0 ADD MLOAD PUSH2 0xEEF JUMP JUMPDEST DUP3 MLOAD ADD DUP3 MSTORE PUSH1 0xC0 DUP2 ADD MLOAD PUSH1 0x80 DUP3 ADD MLOAD PUSH2 0xBB1 SWAP2 PUSH2 0xBA6 SWAP2 ADD PUSH2 0xEEF JUMP JUMPDEST PUSH1 0x20 DUP5 ADD MLOAD SWAP1 PUSH2 0x12C4 JUMP JUMPDEST PUSH1 0x20 DUP4 ADD MSTORE JUMPDEST DUP1 PUSH1 0x60 ADD MLOAD PUSH1 0x1 PUSH1 0x1 PUSH1 0xA0 SHL SUB AND DUP3 PUSH1 0x40 ADD MLOAD PUSH1 0x1 PUSH1 0x1 PUSH1 0xA0 SHL SUB AND EQ ISZERO PUSH2 0xC4D JUMPI DUP1 PUSH1 0x40 ADD MLOAD ISZERO PUSH2 0xC24 JUMPI PUSH1 0x0 PUSH2 0xBF3 DUP13 DUP4 PUSH1 0x20 ADD MLOAD PUSH2 0x12DA JUMP JUMPDEST POP POP POP POP POP POP SWAP2 POP POP DUP11 ISZERO PUSH2 0xC06 JUMPI PUSH1 0x0 SUB JUMPDEST PUSH2 0xC14 DUP4 PUSH1 0x80 ADD MLOAD DUP3 PUSH2 0x13A1 JUMP JUMPDEST PUSH1 0x1 PUSH1 0x1 PUSH1 0x80 SHL SUB AND PUSH1 0x80 DUP5 ADD MSTORE POP JUMPDEST DUP10 PUSH2 0xC33 JUMPI DUP1 PUSH1 0x20 ADD MLOAD PUSH2 0xC3C JUMP JUMPDEST PUSH1 0x1 DUP2 PUSH1 0x20 ADD MLOAD SUB JUMPDEST PUSH1 0x2 SWAP1 DUP2 SIGNEXTEND SWAP1 SIGNEXTEND PUSH1 0x60 DUP4 ADD MSTORE PUSH2 0xC88 JUMP JUMPDEST DUP1 PUSH1 0x0 ADD MLOAD PUSH1 0x1 PUSH1 0x1 PUSH1 0xA0 SHL SUB AND DUP3 PUSH1 0x40 ADD MLOAD PUSH1 0x1 PUSH1 0x1 PUSH1 0xA0 SHL SUB AND EQ PUSH2 0xC88 JUMPI PUSH2 0xC7B DUP3 PUSH1 0x40 ADD MLOAD PUSH2 0x1457 JUMP JUMPDEST PUSH1 0x2 SWAP1 DUP2 SIGNEXTEND SWAP1 SIGNEXTEND PUSH1 0x60 DUP4 ADD MSTORE JUMPDEST POP PUSH2 0xA77 JUMP JUMPDEST DUP4 ISZERO ISZERO DUP10 ISZERO ISZERO EQ PUSH2 0xCA7 JUMPI PUSH1 0x20 DUP2 ADD MLOAD DUP2 MLOAD DUP10 SUB PUSH2 0xCB4 JUMP JUMPDEST DUP1 PUSH1 0x0 ADD MLOAD DUP9 SUB DUP2 PUSH1 0x20 ADD MLOAD JUMPDEST SWAP1 SWAP12 SWAP1 SWAP11 POP SWAP9 POP POP POP POP POP POP POP POP POP JUMP JUMPDEST PUSH1 0x0 DUP5 DUP2 DUP1 PUSH1 0x1 PUSH1 0x1 PUSH1 0xA0 SHL SUB DUP1 DUP11 AND SWAP1 DUP12 AND LT PUSH2 0xCE4 JUMPI DUP9 DUP11 PUSH2 0xCE7 JUMP JUMPDEST DUP10 DUP10 JUMPDEST SWAP2 POP SWAP2 POP DUP2 PUSH1 0x1 PUSH1 0x1 PUSH1 0xA0 SHL SUB AND DUP4 PUSH1 0x1 PUSH1 0x1 PUSH1 0xA0 SHL SUB AND PUSH4 0xDFE1681 PUSH1 0x40 MLOAD DUP2 PUSH4 0xFFFFFFFF AND PUSH1 0xE0 SHL DUP2 MSTORE PUSH1 0x4 ADD PUSH1 0x20 PUSH1 0x40 MLOAD DUP1 DUP4 SUB DUP2 DUP7 DUP1 EXTCODESIZE ISZERO DUP1 ISZERO PUSH2 0xD2E JUMPI PUSH1 0x0 DUP1 REVERT JUMPDEST POP GAS STATICCALL ISZERO DUP1 ISZERO PUSH2 0xD42 JUMPI RETURNDATASIZE PUSH1 0x0 DUP1 RETURNDATACOPY RETURNDATASIZE PUSH1 0x0 REVERT JUMPDEST POP POP POP POP PUSH1 0x40 MLOAD RETURNDATASIZE PUSH1 0x1F NOT PUSH1 0x1F DUP3 ADD AND DUP3 ADD DUP1 PUSH1 0x40 MSTORE POP DUP2 ADD SWAP1 PUSH2 0xD66 SWAP2 SWAP1 PUSH2 0x27AE JUMP JUMPDEST PUSH1 0x1 PUSH1 0x1 PUSH1 0xA0 SHL SUB AND EQ ISZERO DUP1 PUSH2 0xDFE JUMPI POP DUP1 PUSH1 0x1 PUSH1 0x1 PUSH1 0xA0 SHL SUB AND DUP4 PUSH1 0x1 PUSH1 0x1 PUSH1 0xA0 SHL SUB AND PUSH4 0xD21220A7 PUSH1 0x40 MLOAD DUP2 PUSH4 0xFFFFFFFF AND PUSH1 0xE0 SHL DUP2 MSTORE PUSH1 0x4 ADD PUSH1 0x20 PUSH1 0x40 MLOAD DUP1 DUP4 SUB DUP2 DUP7 DUP1 EXTCODESIZE ISZERO DUP1 ISZERO PUSH2 0xDBA JUMPI PUSH1 0x0 DUP1 REVERT JUMPDEST POP GAS STATICCALL ISZERO DUP1 ISZERO PUSH2 0xDCE JUMPI RETURNDATASIZE PUSH1 0x0 DUP1 RETURNDATACOPY RETURNDATASIZE PUSH1 0x0 REVERT JUMPDEST POP POP POP POP PUSH1 0x40 MLOAD RETURNDATASIZE PUSH1 0x1F NOT PUSH1 0x1F DUP3 ADD AND DUP3 ADD DUP1 PUSH1 0x40 MSTORE POP DUP2 ADD SWAP1 PUSH2 0xDF2 SWAP2 SWAP1 PUSH2 0x27AE JUMP JUMPDEST PUSH1 0x1 PUSH1 0x1 PUSH1 0xA0 SHL SUB AND EQ ISZERO JUMPDEST ISZERO PUSH2 0xE0F JUMPI PUSH1 0x0 SWAP4 POP POP POP POP PUSH2 0x6C8 JUMP JUMPDEST PUSH1 0x0 DUP1 DUP5 PUSH1 0x1 PUSH1 0x1 PUSH1 0xA0 SHL SUB AND PUSH4 0x902F1AC PUSH1 0x40 MLOAD DUP2 PUSH4 0xFFFFFFFF AND PUSH1 0xE0 SHL DUP2 MSTORE PUSH1 0x4 ADD PUSH1 0x60 PUSH1 0x40 MLOAD DUP1 DUP4 SUB DUP2 DUP7 DUP1 EXTCODESIZE ISZERO DUP1 ISZERO PUSH2 0xE4B JUMPI PUSH1 0x0 DUP1 REVERT JUMPDEST POP GAS STATICCALL ISZERO DUP1 ISZERO PUSH2 0xE5F JUMPI RETURNDATASIZE PUSH1 0x0 DUP1 RETURNDATACOPY RETURNDATASIZE PUSH1 0x0 REVERT JUMPDEST POP POP POP POP PUSH1 0x40 MLOAD RETURNDATASIZE PUSH1 0x1F NOT PUSH1 0x1F DUP3 ADD AND DUP3 ADD DUP1 PUSH1 0x40 MSTORE POP DUP2 ADD SWAP1 PUSH2 0xE83 SWAP2 SWAP1 PUSH2 0x2A8E JUMP JUMPDEST POP PUSH1 0x1 PUSH1 0x1 PUSH1 0x70 SHL SUB AND SWAP2 POP PUSH1 0x1 PUSH1 0x1 PUSH1 0x70 SHL SUB AND SWAP2 POP PUSH1 0x0 DUP1 DUP13 PUSH1 0x1 PUSH1 0x1 PUSH1 0xA0 SHL SUB AND DUP15 PUSH1 0x1 PUSH1 0x1 PUSH1 0xA0 SHL SUB AND LT PUSH2 0xEBD JUMPI DUP3 DUP5 PUSH2 0xEC0 JUMP JUMPDEST DUP4 DUP4 JUMPDEST SWAP2 POP SWAP2 POP PUSH2 0x6BE DUP10 DUP4 DUP4 DUP15 DUP15 PUSH2 0x1776 JUMP JUMPDEST PUSH1 0x60 DUP2 DUP1 PUSH1 0x20 ADD SWAP1 MLOAD DUP2 ADD SWAP1 PUSH2 0xEE7 SWAP2 SWAP1 PUSH2 0x28E8 JUMP JUMPDEST SWAP1 POP JUMPDEST SWAP2 SWAP1 POP JUMP JUMPDEST PUSH1 0x0 PUSH1 0x1 PUSH1 0xFF SHL DUP3 LT PUSH2 0xF01 JUMPI PUSH1 0x0 DUP1 REVERT JUMPDEST POP SWAP1 JUMP JUMPDEST PUSH1 0x0 DUP6 PUSH2 0xF14 JUMPI POP PUSH1 0x0 PUSH2 0xF76 JUMP JUMPDEST DUP5 ISZERO DUP1 PUSH2 0xF1F JUMPI POP DUP4 ISZERO JUMPDEST ISZERO PUSH2 0xF2C JUMPI POP PUSH1 0x0 PUSH2 0xF76 JUMP JUMPDEST PUSH1 0x0 PUSH2 0xF45 PUSH1 0xFF DUP5 AND PUSH2 0xF3F DUP9 DUP11 PUSH2 0x17EE JUMP JUMPDEST SWAP1 PUSH2 0x17EE JUMP JUMPDEST SWAP1 POP PUSH1 0x0 PUSH2 0xF5A PUSH1 0xFF DUP7 AND PUSH2 0xF3F DUP9 DUP12 PUSH2 0x1812 JUMP JUMPDEST SWAP1 POP PUSH2 0xF71 PUSH1 0x1 DUP3 DUP5 DUP2 PUSH2 0xF6A JUMPI INVALID JUMPDEST DIV SWAP1 PUSH2 0x1822 JUMP JUMPDEST SWAP3 POP POP POP JUMPDEST SWAP6 SWAP5 POP POP POP POP POP JUMP JUMPDEST PUSH1 0x0 DUP1 PUSH2 0xF8A PUSH2 0x26CE JUMP JUMPDEST PUSH1 0x0 PUSH2 0xF95 DUP9 PUSH2 0x1832 JUMP JUMPDEST SWAP1 POP PUSH2 0xFA6 DUP8 DUP7 DUP4 PUSH1 0x0 ADD MLOAD PUSH2 0x18E0 JUMP JUMPDEST PUSH2 0xFAF DUP9 PUSH2 0x19B1 JUMP JUMPDEST SWAP4 POP DUP1 PUSH1 0x40 ADD MLOAD SWAP3 POP PUSH1 0x40 MLOAD DUP1 PUSH1 0xA0 ADD PUSH1 0x40 MSTORE DUP1 DUP8 DUP2 MSTORE PUSH1 0x20 ADD PUSH1 0x0 DUP2 MSTORE PUSH1 0x20 ADD DUP3 PUSH1 0x0 ADD MLOAD PUSH1 0x1 PUSH1 0x1 PUSH1 0xA0 SHL SUB AND DUP2 MSTORE PUSH1 0x20 ADD DUP3 PUSH1 0x20 ADD MLOAD PUSH1 0x2 SIGNEXTEND DUP2 MSTORE PUSH1 0x20 ADD PUSH2 0xFF9 DUP11 PUSH2 0x1A1E JUMP JUMPDEST PUSH1 0x1 PUSH1 0x1 PUSH1 0x80 SHL SUB AND DUP2 MSTORE POP SWAP2 POP POP SWAP5 POP SWAP5 POP SWAP5 SWAP2 POP POP JUMP JUMPDEST PUSH1 0x0 DUP1 PUSH1 0x0 PUSH2 0x1023 DUP8 DUP8 DUP8 DUP8 PUSH2 0x1A59 JUMP JUMPDEST SWAP1 SWAP4 POP SWAP2 POP PUSH3 0xD89E7 NOT PUSH1 0x2 DUP5 SWAP1 SIGNEXTEND SLT ISZERO PUSH2 0x1044 JUMPI PUSH3 0xD89E7 NOT SWAP3 POP PUSH2 0x105A JUMP JUMPDEST PUSH3 0xD89E8 PUSH1 0x2 DUP5 SWAP1 SIGNEXTEND SGT ISZERO PUSH2 0x105A JUMPI PUSH3 0xD89E8 SWAP3 POP JUMPDEST PUSH2 0x1063 DUP4 PUSH2 0x1A75 JUMP JUMPDEST SWAP1 POP SWAP5 POP SWAP5 POP SWAP5 SWAP2 POP POP JUMP JUMPDEST PUSH1 0x0 DUP4 PUSH2 0x1090 JUMPI DUP2 PUSH1 0x1 PUSH1 0x1 PUSH1 0xA0 SHL SUB AND DUP4 PUSH1 0x1 PUSH1 0x1 PUSH1 0xA0 SHL SUB AND GT PUSH2 0x10A6 JUMP JUMPDEST DUP2 PUSH1 0x1 PUSH1 0x1 PUSH1 0xA0 SHL SUB AND DUP4 PUSH1 0x1 PUSH1 0x1 PUSH1 0xA0 SHL SUB AND LT JUMPDEST PUSH2 0x10B0 JUMPI DUP3 PUSH2 0x10B2 JUMP JUMPDEST DUP2 JUMPDEST SWAP1 POP JUMPDEST SWAP4 SWAP3 POP POP POP JUMP JUMPDEST PUSH1 0x0 DUP1 DUP1 DUP1 PUSH1 0x1 PUSH1 0x1 PUSH1 0xA0 SHL SUB DUP1 DUP10 AND SWAP1 DUP11 AND LT ISZERO DUP2 DUP8 SLT DUP1 ISZERO SWAP1 PUSH2 0x1141 JUMPI PUSH1 0x0 PUSH2 0x10F5 DUP10 DUP10 PUSH3 0xF4240 SUB PUSH3 0xFFFFFF AND PUSH3 0xF4240 PUSH2 0x1DA7 JUMP JUMPDEST SWAP1 POP DUP3 PUSH2 0x110E JUMPI PUSH2 0x1109 DUP13 DUP13 DUP13 PUSH1 0x1 PUSH2 0x1E56 JUMP JUMPDEST PUSH2 0x111B JUMP JUMPDEST PUSH2 0x111B DUP12 DUP14 DUP13 PUSH1 0x1 PUSH2 0x1EC6 JUMP JUMPDEST SWAP6 POP DUP6 DUP2 LT PUSH2 0x112C JUMPI DUP11 SWAP7 POP PUSH2 0x113B JUMP JUMPDEST PUSH2 0x1138 DUP13 DUP12 DUP4 DUP7 PUSH2 0x1F71 JUMP JUMPDEST SWAP7 POP JUMPDEST POP PUSH2 0x118B JUMP JUMPDEST DUP2 PUSH2 0x1158 JUMPI PUSH2 0x1153 DUP12 DUP12 DUP12 PUSH1 0x0 PUSH2 0x1EC6 JUMP JUMPDEST PUSH2 0x1165 JUMP JUMPDEST PUSH2 0x1165 DUP11 DUP13 DUP12 PUSH1 0x0 PUSH2 0x1E56 JUMP JUMPDEST SWAP4 POP DUP4 DUP9 PUSH1 0x0 SUB LT PUSH2 0x1179 JUMPI DUP10 SWAP6 POP PUSH2 0x118B JUMP JUMPDEST PUSH2 0x1188 DUP12 DUP11 DUP11 PUSH1 0x0 SUB DUP6 PUSH2 0x1FBD JUMP JUMPDEST SWAP6 POP JUMPDEST PUSH1 0x1 PUSH1 0x1 PUSH1 0xA0 SHL SUB DUP11 DUP2 AND SWAP1 DUP8 AND EQ DUP3 ISZERO PUSH2 0x11EE JUMPI DUP1 DUP1 ISZERO PUSH2 0x11AA JUMPI POP DUP2 JUMPDEST PUSH2 0x11C0 JUMPI PUSH2 0x11BB DUP8 DUP14 DUP13 PUSH1 0x1 PUSH2 0x1EC6 JUMP JUMPDEST PUSH2 0x11C2 JUMP JUMPDEST DUP6 JUMPDEST SWAP6 POP DUP1 DUP1 ISZERO PUSH2 0x11CF JUMPI POP DUP2 ISZERO JUMPDEST PUSH2 0x11E5 JUMPI PUSH2 0x11E0 DUP8 DUP14 DUP13 PUSH1 0x0 PUSH2 0x1E56 JUMP JUMPDEST PUSH2 0x11E7 JUMP JUMPDEST DUP5 JUMPDEST SWAP5 POP PUSH2 0x1238 JUMP JUMPDEST DUP1 DUP1 ISZERO PUSH2 0x11F8 JUMPI POP DUP2 JUMPDEST PUSH2 0x120E JUMPI PUSH2 0x1209 DUP13 DUP9 DUP13 PUSH1 0x1 PUSH2 0x1E56 JUMP JUMPDEST PUSH2 0x1210 JUMP JUMPDEST DUP6 JUMPDEST SWAP6 POP DUP1 DUP1 ISZERO PUSH2 0x121D JUMPI POP DUP2 ISZERO JUMPDEST PUSH2 0x1233 JUMPI PUSH2 0x122E DUP13 DUP9 DUP13 PUSH1 0x0 PUSH2 0x1EC6 JUMP JUMPDEST PUSH2 0x1235 JUMP JUMPDEST DUP5 JUMPDEST SWAP5 POP JUMPDEST DUP2 ISZERO DUP1 ISZERO PUSH2 0x1248 JUMPI POP DUP9 PUSH1 0x0 SUB DUP6 GT JUMPDEST ISZERO PUSH2 0x1254 JUMPI DUP9 PUSH1 0x0 SUB SWAP5 POP JUMPDEST DUP2 DUP1 ISZERO PUSH2 0x1273 JUMPI POP DUP11 PUSH1 0x1 PUSH1 0x1 PUSH1 0xA0 SHL SUB AND DUP8 PUSH1 0x1 PUSH1 0x1 PUSH1 0xA0 SHL SUB AND EQ ISZERO JUMPDEST ISZERO PUSH2 0x1282 JUMPI DUP6 DUP10 SUB SWAP4 POP PUSH2 0x129F JUMP JUMPDEST PUSH2 0x129C DUP7 DUP10 PUSH3 0xFFFFFF AND DUP11 PUSH3 0xF4240 SUB PUSH3 0xFFFFFF AND PUSH2 0x2009 JUMP JUMPDEST SWAP4 POP JUMPDEST POP POP POP SWAP6 POP SWAP6 POP SWAP6 POP SWAP6 SWAP2 POP POP JUMP JUMPDEST DUP1 DUP3 SUB DUP3 DUP2 SGT ISZERO PUSH1 0x0 DUP4 SLT ISZERO EQ PUSH2 0x2F0 JUMPI PUSH1 0x0 DUP1 REVERT JUMPDEST DUP2 DUP2 ADD DUP3 DUP2 SLT ISZERO PUSH1 0x0 DUP4 SLT ISZERO EQ PUSH2 0x2F0 JUMPI PUSH1 0x0 DUP1 REVERT JUMPDEST PUSH1 0x0 DUP1 PUSH1 0x0 DUP1 PUSH1 0x0 DUP1 PUSH1 0x0 DUP1 DUP10 PUSH1 0x1 PUSH1 0x1 PUSH1 0xA0 SHL SUB AND PUSH4 0xF30DBA93 DUP11 PUSH1 0x40 MLOAD DUP3 PUSH4 0xFFFFFFFF AND PUSH1 0xE0 SHL DUP2 MSTORE PUSH1 0x4 ADD DUP1 DUP3 PUSH1 0x2 SIGNEXTEND DUP2 MSTORE PUSH1 0x20 ADD SWAP2 POP POP PUSH2 0x100 PUSH1 0x40 MLOAD DUP1 DUP4 SUB DUP2 DUP7 DUP1 EXTCODESIZE ISZERO DUP1 ISZERO PUSH2 0x132E JUMPI PUSH1 0x0 DUP1 REVERT JUMPDEST POP GAS STATICCALL ISZERO DUP1 ISZERO PUSH2 0x1342 JUMPI RETURNDATASIZE PUSH1 0x0 DUP1 RETURNDATACOPY RETURNDATASIZE PUSH1 0x0 REVERT JUMPDEST POP POP POP POP PUSH1 0x40 MLOAD RETURNDATASIZE PUSH2 0x100 DUP2 LT ISZERO PUSH2 0x1359 JUMPI PUSH1 0x0 DUP1 REVERT JUMPDEST POP DUP1 MLOAD PUSH1 0x20 DUP3 ADD MLOAD PUSH1 0x40 DUP4 ADD MLOAD PUSH1 0x60 DUP5 ADD MLOAD PUSH1 0x80 DUP6 ADD MLOAD PUSH1 0xA0 DUP7 ADD MLOAD PUSH1 0xC0 DUP8 ADD MLOAD PUSH1 0xE0 SWAP1 SWAP8 ADD MLOAD SWAP6 SWAP15 POP SWAP4 SWAP13 POP SWAP2 SWAP11 POP SWAP9 POP SWAP7 POP SWAP5 POP SWAP1 SWAP3 POP SWAP1 POP SWAP3 SWAP6 SWAP9 POP SWAP3 SWAP6 SWAP9 SWAP1 SWAP4 SWAP7 POP JUMP JUMPDEST PUSH1 0x0 DUP1 DUP3 PUSH1 0xF SIGNEXTEND SLT ISZERO PUSH2 0x1406 JUMPI DUP3 PUSH1 0x1 PUSH1 0x1 PUSH1 0x80 SHL SUB AND DUP3 PUSH1 0x0 SUB DUP5 SUB SWAP2 POP DUP2 PUSH1 0x1 PUSH1 0x1 PUSH1 0x80 SHL SUB AND LT PUSH2 0x1401 JUMPI PUSH1 0x40 DUP1 MLOAD PUSH3 0x461BCD PUSH1 0xE5 SHL DUP2 MSTORE PUSH1 0x20 PUSH1 0x4 DUP3 ADD MSTORE PUSH1 0x2 PUSH1 0x24 DUP3 ADD MSTORE PUSH2 0x4C53 PUSH1 0xF0 SHL PUSH1 0x44 DUP3 ADD MSTORE SWAP1 MLOAD SWAP1 DUP2 SWAP1 SUB PUSH1 0x64 ADD SWAP1 REVERT JUMPDEST PUSH2 0x2F0 JUMP JUMPDEST DUP3 PUSH1 0x1 PUSH1 0x1 PUSH1 0x80 SHL SUB AND DUP3 DUP5 ADD SWAP2 POP DUP2 PUSH1 0x1 PUSH1 0x1 PUSH1 0x80 SHL SUB AND LT ISZERO PUSH2 0x2F0 JUMPI PUSH1 0x40 DUP1 MLOAD PUSH3 0x461BCD PUSH1 0xE5 SHL DUP2 MSTORE PUSH1 0x20 PUSH1 0x4 DUP3 ADD MSTORE PUSH1 0x2 PUSH1 0x24 DUP3 ADD MSTORE PUSH2 0x4C41 PUSH1 0xF0 SHL PUSH1 0x44 DUP3 ADD MSTORE SWAP1 MLOAD SWAP1 DUP2 SWAP1 SUB PUSH1 0x64 ADD SWAP1 REVERT JUMPDEST PUSH1 0x0 PUSH5 0x1000276A3 PUSH1 0x1 PUSH1 0x1 PUSH1 0xA0 SHL SUB DUP4 AND LT DUP1 ISZERO SWAP1 PUSH2 0x1493 JUMPI POP PUSH20 0xFFFD8963EFD1FC6A506488495D951D5263988D26 PUSH1 0x1 PUSH1 0x1 PUSH1 0xA0 SHL SUB DUP4 AND LT JUMPDEST PUSH2 0x14C8 JUMPI PUSH1 0x40 DUP1 MLOAD PUSH3 0x461BCD PUSH1 0xE5 SHL DUP2 MSTORE PUSH1 0x20 PUSH1 0x4 DUP3 ADD MSTORE PUSH1 0x1 PUSH1 0x24 DUP3 ADD MSTORE PUSH1 0x29 PUSH1 0xF9 SHL PUSH1 0x44 DUP3 ADD MSTORE SWAP1 MLOAD SWAP1 DUP2 SWAP1 SUB PUSH1 0x64 ADD SWAP1 REVERT JUMPDEST PUSH5 0x100000000 PUSH1 0x1 PUSH1 0xC0 SHL SUB PUSH1 0x20 DUP4 SWAP1 SHL AND PUSH1 0x1 PUSH1 0x1 PUSH1 0x80 SHL SUB DUP2 GT PUSH1 0x7 SHL DUP2 DUP2 SHR PUSH8 0xFFFFFFFFFFFFFFFF DUP2 GT PUSH1 0x6 SHL SWAP1 DUP2 SHR PUSH4 0xFFFFFFFF DUP2 GT PUSH1 0x5 SHL SWAP1 DUP2 SHR PUSH2 0xFFFF DUP2 GT PUSH1 0x4 SHL SWAP1 DUP2 SHR PUSH1 0xFF DUP2 GT PUSH1 0x3 SWAP1 DUP2 SHL SWAP2 DUP3 SHR PUSH1 0xF DUP2 GT PUSH1 0x2 SHL SWAP1 DUP2 SHR SWAP2 DUP3 GT PUSH1 0x1 SWAP1 DUP2 SHL SWAP3 DUP4 SHR SWAP8 SWAP1 DUP9 GT SWAP7 OR SWAP1 SWAP5 OR SWAP1 SWAP3 OR OR SWAP1 SWAP2 OR OR OR PUSH1 0x80 DUP2 LT PUSH2 0x155C JUMPI PUSH1 0x7F DUP2 SUB DUP4 SWAP1 SHR SWAP2 POP PUSH2 0x1566 JUMP JUMPDEST DUP1 PUSH1 0x7F SUB DUP4 SWAP1 SHL SWAP2 POP JUMPDEST SWAP1 DUP1 MUL PUSH1 0x7F DUP2 DUP2 SHR PUSH1 0xFF DUP4 DUP2 SHR SWAP2 SWAP1 SWAP2 SHR DUP1 MUL DUP1 DUP4 SHR DUP2 DUP4 SHR SHR DUP1 MUL DUP1 DUP5 SHR DUP2 DUP5 SHR SHR DUP1 MUL DUP1 DUP6 SHR DUP2 DUP6 SHR SHR DUP1 MUL DUP1 DUP7 SHR DUP2 DUP7 SHR SHR DUP1 MUL DUP1 DUP8 SHR DUP2 DUP8 SHR SHR DUP1 MUL DUP1 DUP9 SHR DUP2 DUP9 SHR SHR DUP1 MUL DUP1 DUP10 SHR DUP2 DUP10 SHR SHR DUP1 MUL DUP1 DUP11 SHR DUP2 DUP11 SHR SHR DUP1 MUL DUP1 DUP12 SHR DUP2 DUP12 SHR SHR DUP1 MUL DUP1 DUP13 SHR DUP2 DUP13 SHR SHR DUP1 MUL DUP1 DUP14 SHR DUP2 DUP14 SHR SHR DUP1 MUL DUP1 DUP15 SHR SWAP13 DUP2 SWAP1 SHR SWAP13 SWAP1 SWAP13 SHR DUP1 MUL SWAP13 DUP14 SWAP1 SHR SWAP15 SWAP14 PUSH1 0x7F NOT DUP16 ADD PUSH1 0x40 SHL PUSH1 0xC0 SWAP2 SWAP1 SWAP2 SHR PUSH8 0x8000000000000000 AND OR PUSH1 0xC1 SWAP12 SWAP1 SWAP12 SHR PUSH8 0x4000000000000000 AND SWAP11 SWAP1 SWAP11 OR PUSH1 0xC2 SWAP10 SWAP1 SWAP10 SHR PUSH8 0x2000000000000000 AND SWAP9 SWAP1 SWAP9 OR PUSH1 0xC3 SWAP8 SWAP1 SWAP8 SHR PUSH8 0x1000000000000000 AND SWAP7 SWAP1 SWAP7 OR PUSH1 0xC4 SWAP6 SWAP1 SWAP6 SHR PUSH8 0x800000000000000 AND SWAP5 SWAP1 SWAP5 OR PUSH1 0xC5 SWAP4 SWAP1 SWAP4 SHR PUSH8 0x400000000000000 AND SWAP3 SWAP1 SWAP3 OR PUSH1 0xC6 SWAP2 SWAP1 SWAP2 SHR PUSH8 0x200000000000000 AND OR PUSH1 0xC7 SWAP2 SWAP1 SWAP2 SHR PUSH8 0x100000000000000 AND OR PUSH1 0xC8 SWAP2 SWAP1 SWAP2 SHR PUSH7 0x80000000000000 AND OR PUSH1 0xC9 SWAP2 SWAP1 SWAP2 SHR PUSH7 0x40000000000000 AND OR PUSH1 0xCA SWAP2 SWAP1 SWAP2 SHR PUSH7 0x20000000000000 AND OR PUSH1 0xCB SWAP2 SWAP1 SWAP2 SHR PUSH7 0x10000000000000 AND OR PUSH1 0xCC SWAP2 SWAP1 SWAP2 SHR PUSH7 0x8000000000000 AND OR PUSH1 0xCD SWAP2 SWAP1 SWAP2 SHR PUSH7 0x4000000000000 AND OR PUSH10 0x3627A301D71055774C85 DUP2 MUL PUSH16 0x28F6481AB7F045A5AF012A19D003AA9 NOT DUP2 ADD PUSH1 0x80 SWAP1 DUP2 SAR SWAP1 PUSH16 0xDB2DF09E81959A81455E260799A0632F DUP4 ADD SWAP1 SAR PUSH1 0x2 DUP2 DUP2 SIGNEXTEND SWAP1 DUP4 SWAP1 SIGNEXTEND EQ PUSH2 0x1767 JUMPI DUP9 PUSH1 0x1 PUSH1 0x1 PUSH1 0xA0 SHL SUB AND PUSH2 0x174B DUP3 PUSH2 0x1A75 JUMP JUMPDEST PUSH1 0x1 PUSH1 0x1 PUSH1 0xA0 SHL SUB AND GT ISZERO PUSH2 0x1760 JUMPI DUP2 PUSH2 0x1762 JUMP JUMPDEST DUP1 JUMPDEST PUSH2 0x1769 JUMP JUMPDEST DUP2 JUMPDEST SWAP10 SWAP9 POP POP POP POP POP POP POP POP POP JUMP JUMPDEST PUSH1 0x0 DUP6 PUSH2 0x1785 JUMPI POP PUSH1 0x0 PUSH2 0xF76 JUMP JUMPDEST DUP5 ISZERO DUP1 PUSH2 0x1790 JUMPI POP DUP4 ISZERO JUMPDEST ISZERO PUSH2 0x179D JUMPI POP PUSH1 0x0 PUSH2 0xF76 JUMP JUMPDEST PUSH1 0x0 PUSH2 0x17AC DUP8 PUSH1 0xFF DUP7 AND PUSH2 0x17EE JUMP JUMPDEST SWAP1 POP PUSH1 0x0 PUSH2 0x17BA DUP3 DUP8 PUSH2 0x17EE JUMP JUMPDEST SWAP1 POP PUSH1 0x0 PUSH2 0x17D5 DUP4 PUSH2 0x17CF DUP11 PUSH1 0xFF DUP10 AND PUSH2 0x17EE JUMP JUMPDEST SWAP1 PUSH2 0x1822 JUMP JUMPDEST SWAP1 POP DUP1 DUP3 DUP2 PUSH2 0x17E0 JUMPI INVALID JUMPDEST DIV SWAP10 SWAP9 POP POP POP POP POP POP POP POP POP JUMP JUMPDEST PUSH1 0x0 DUP3 ISZERO DUP1 PUSH2 0x1809 JUMPI POP POP DUP2 DUP2 MUL DUP2 DUP4 DUP3 DUP2 PUSH2 0x1806 JUMPI INVALID JUMPDEST DIV EQ JUMPDEST PUSH2 0x2F0 JUMPI PUSH1 0x0 DUP1 REVERT JUMPDEST DUP1 DUP3 SUB DUP3 DUP2 GT ISZERO PUSH2 0x2F0 JUMPI PUSH1 0x0 DUP1 REVERT JUMPDEST DUP1 DUP3 ADD DUP3 DUP2 LT ISZERO PUSH2 0x2F0 JUMPI PUSH1 0x0 DUP1 REVERT JUMPDEST PUSH2 0x183A PUSH2 0x26FC JUMP JUMPDEST PUSH2 0x1843 DUP3 PUSH2 0x2043 JUMP JUMPDEST DUP2 PUSH1 0x40 ADD SWAP1 PUSH2 0xFFFF AND SWAP1 DUP2 PUSH2 0xFFFF AND DUP2 MSTORE POP POP DUP2 PUSH1 0x1 PUSH1 0x1 PUSH1 0xA0 SHL SUB AND PUSH4 0x3850C7BD PUSH1 0x40 MLOAD DUP2 PUSH4 0xFFFFFFFF AND PUSH1 0xE0 SHL DUP2 MSTORE PUSH1 0x4 ADD PUSH1 0xE0 PUSH1 0x40 MLOAD DUP1 DUP4 SUB DUP2 DUP7 DUP1 EXTCODESIZE ISZERO DUP1 ISZERO PUSH2 0x188F JUMPI PUSH1 0x0 DUP1 REVERT JUMPDEST POP GAS STATICCALL ISZERO DUP1 ISZERO PUSH2 0x18A3 JUMPI RETURNDATASIZE PUSH1 0x0 DUP1 RETURNDATACOPY RETURNDATASIZE PUSH1 0x0 REVERT JUMPDEST POP POP POP POP PUSH1 0x40 MLOAD RETURNDATASIZE PUSH1 0xE0 DUP2 LT ISZERO PUSH2 0x18B9 JUMPI PUSH1 0x0 DUP1 REVERT JUMPDEST POP DUP1 MLOAD PUSH1 0x20 SWAP2 DUP3 ADD MLOAD PUSH1 0x2 SWAP1 DUP2 SIGNEXTEND SWAP1 SIGNEXTEND SWAP2 DUP4 ADD SWAP2 SWAP1 SWAP2 MSTORE PUSH1 0x1 PUSH1 0x1 PUSH1 0xA0 SHL SUB AND DUP2 MSTORE SWAP2 SWAP1 POP JUMP JUMPDEST PUSH1 0x0 DUP4 PUSH2 0x1929 JUMPI DUP2 PUSH1 0x1 PUSH1 0x1 PUSH1 0xA0 SHL SUB AND DUP4 PUSH1 0x1 PUSH1 0x1 PUSH1 0xA0 SHL SUB AND GT DUP1 ISZERO PUSH2 0x1924 JUMPI POP PUSH20 0xFFFD8963EFD1FC6A506488495D951D5263988D26 PUSH1 0x1 PUSH1 0x1 PUSH1 0xA0 SHL SUB DUP5 AND LT JUMPDEST PUSH2 0x1957 JUMP JUMPDEST DUP2 PUSH1 0x1 PUSH1 0x1 PUSH1 0xA0 SHL SUB AND DUP4 PUSH1 0x1 PUSH1 0x1 PUSH1 0xA0 SHL SUB AND LT DUP1 ISZERO PUSH2 0x1957 JUMPI POP PUSH5 0x1000276A3 PUSH1 0x1 PUSH1 0x1 PUSH1 0xA0 SHL SUB DUP5 AND GT JUMPDEST SWAP1 POP DUP1 PUSH2 0x19AB JUMPI PUSH1 0x40 DUP1 MLOAD PUSH3 0x461BCD PUSH1 0xE5 SHL DUP2 MSTORE PUSH1 0x20 PUSH1 0x4 DUP3 ADD MSTORE PUSH1 0x1C PUSH1 0x24 DUP3 ADD MSTORE PUSH32 0x7371727450726963654C696D6974206F7574206F6620626F756E647300000000 PUSH1 0x44 DUP3 ADD MSTORE SWAP1 MLOAD SWAP1 DUP2 SWAP1 SUB PUSH1 0x64 ADD SWAP1 REVERT JUMPDEST POP POP POP POP JUMP JUMPDEST PUSH1 0x0 DUP2 PUSH1 0x1 PUSH1 0x1 PUSH1 0xA0 SHL SUB AND PUSH4 0xD0C93A7C PUSH1 0x40 MLOAD DUP2 PUSH4 0xFFFFFFFF AND PUSH1 0xE0 SHL DUP2 MSTORE PUSH1 0x4 ADD PUSH1 0x20 PUSH1 0x40 MLOAD DUP1 DUP4 SUB DUP2 DUP7 DUP1 EXTCODESIZE ISZERO DUP1 ISZERO PUSH2 0x19EC JUMPI PUSH1 0x0 DUP1 REVERT JUMPDEST POP GAS STATICCALL ISZERO DUP1 ISZERO PUSH2 0x1A00 JUMPI RETURNDATASIZE PUSH1 0x0 DUP1 RETURNDATACOPY RETURNDATASIZE PUSH1 0x0 REVERT JUMPDEST POP POP POP POP PUSH1 0x40 MLOAD RETURNDATASIZE PUSH1 0x20 DUP2 LT ISZERO PUSH2 0x1A16 JUMPI PUSH1 0x0 DUP1 REVERT JUMPDEST POP MLOAD SWAP3 SWAP2 POP POP JUMP JUMPDEST PUSH1 0x0 DUP2 PUSH1 0x1 PUSH1 0x1 PUSH1 0xA0 SHL SUB AND PUSH4 0x1A686502 PUSH1 0x40 MLOAD DUP2 PUSH4 0xFFFFFFFF AND PUSH1 0xE0 SHL DUP2 MSTORE PUSH1 0x4 ADD PUSH1 0x20 PUSH1 0x40 MLOAD DUP1 DUP4 SUB DUP2 DUP7 DUP1 EXTCODESIZE ISZERO DUP1 ISZERO PUSH2 0x19EC JUMPI PUSH1 0x0 DUP1 REVERT JUMPDEST PUSH1 0x0 DUP1 PUSH2 0x1A68 DUP7 DUP7 DUP7 DUP7 PUSH2 0x211A JUMP JUMPDEST SWAP2 POP SWAP2 POP SWAP5 POP SWAP5 SWAP3 POP POP POP JUMP JUMPDEST PUSH1 0x0 DUP1 PUSH1 0x0 DUP4 PUSH1 0x2 SIGNEXTEND SLT PUSH2 0x1A8C JUMPI DUP3 PUSH1 0x2 SIGNEXTEND PUSH2 0x1A94 JUMP JUMPDEST DUP3 PUSH1 0x2 SIGNEXTEND PUSH1 0x0 SUB JUMPDEST SWAP1 POP PUSH3 0xD89E8 DUP2 GT ISZERO PUSH2 0x1AD2 JUMPI PUSH1 0x40 DUP1 MLOAD PUSH3 0x461BCD PUSH1 0xE5 SHL DUP2 MSTORE PUSH1 0x20 PUSH1 0x4 DUP3 ADD MSTORE PUSH1 0x1 PUSH1 0x24 DUP3 ADD MSTORE PUSH1 0x15 PUSH1 0xFA SHL PUSH1 0x44 DUP3 ADD MSTORE SWAP1 MLOAD SWAP1 DUP2 SWAP1 SUB PUSH1 0x64 ADD SWAP1 REVERT JUMPDEST PUSH1 0x0 PUSH1 0x1 DUP3 AND PUSH2 0x1AE6 JUMPI PUSH1 0x1 PUSH1 0x80 SHL PUSH2 0x1AF8 JUMP JUMPDEST PUSH16 0xFFFCB933BD6FAD37AA2D162D1A594001 JUMPDEST PUSH17 0xFFFFFFFFFFFFFFFFFFFFFFFFFFFFFFFFFF AND SWAP1 POP PUSH1 0x2 DUP3 AND ISZERO PUSH2 0x1B2C JUMPI PUSH16 0xFFF97272373D413259A46990580E213A MUL PUSH1 0x80 SHR JUMPDEST PUSH1 0x4 DUP3 AND ISZERO PUSH2 0x1B4B JUMPI PUSH16 0xFFF2E50F5F656932EF12357CF3C7FDCC MUL PUSH1 0x80 SHR JUMPDEST PUSH1 0x8 DUP3 AND ISZERO PUSH2 0x1B6A JUMPI PUSH16 0xFFE5CACA7E10E4E61C3624EAA0941CD0 MUL PUSH1 0x80 SHR JUMPDEST PUSH1 0x10 DUP3 AND ISZERO PUSH2 0x1B89 JUMPI PUSH16 0xFFCB9843D60F6159C9DB58835C926644 MUL PUSH1 0x80 SHR JUMPDEST PUSH1 0x20 DUP3 AND ISZERO PUSH2 0x1BA8 JUMPI PUSH16 0xFF973B41FA98C081472E6896DFB254C0 MUL PUSH1 0x80 SHR JUMPDEST PUSH1 0x40 DUP3 AND ISZERO PUSH2 0x1BC7 JUMPI PUSH16 0xFF2EA16466C96A3843EC78B326B52861 MUL PUSH1 0x80 SHR JUMPDEST PUSH1 0x80 DUP3 AND ISZERO PUSH2 0x1BE6 JUMPI PUSH16 0xFE5DEE046A99A2A811C461F1969C3053 MUL PUSH1 0x80 SHR JUMPDEST PUSH2 0x100 DUP3 AND ISZERO PUSH2 0x1C06 JUMPI PUSH16 0xFCBE86C7900A88AEDCFFC83B479AA3A4 MUL PUSH1 0x80 SHR JUMPDEST PUSH2 0x200 DUP3 AND ISZERO PUSH2 0x1C26 JUMPI PUSH16 0xF987A7253AC413176F2B074CF7815E54 MUL PUSH1 0x80 SHR JUMPDEST PUSH2 0x400 DUP3 AND ISZERO PUSH2 0x1C46 JUMPI PUSH16 0xF3392B0822B70005940C7A398E4B70F3 MUL PUSH1 0x80 SHR JUMPDEST PUSH2 0x800 DUP3 AND ISZERO PUSH2 0x1C66 JUMPI PUSH16 0xE7159475A2C29B7443B29C7FA6E889D9 MUL PUSH1 0x80 SHR JUMPDEST PUSH2 0x1000 DUP3 AND ISZERO PUSH2 0x1C86 JUMPI PUSH16 0xD097F3BDFD2022B8845AD8F792AA5825 MUL PUSH1 0x80 SHR JUMPDEST PUSH2 0x2000 DUP3 AND ISZERO PUSH2 0x1CA6 JUMPI PUSH16 0xA9F746462D870FDF8A65DC1F90E061E5 MUL PUSH1 0x80 SHR JUMPDEST PUSH2 0x4000 DUP3 AND ISZERO PUSH2 0x1CC6 JUMPI PUSH16 0x70D869A156D2A1B890BB3DF62BAF32F7 MUL PUSH1 0x80 SHR JUMPDEST PUSH2 0x8000 DUP3 AND ISZERO PUSH2 0x1CE6 JUMPI PUSH16 0x31BE135F97D08FD981231505542FCFA6 MUL PUSH1 0x80 SHR JUMPDEST PUSH3 0x10000 DUP3 AND ISZERO PUSH2 0x1D07 JUMPI PUSH16 0x9AA508B5B7A84E1C677DE54F3E99BC9 MUL PUSH1 0x80 SHR JUMPDEST PUSH3 0x20000 DUP3 AND ISZERO PUSH2 0x1D27 JUMPI PUSH15 0x5D6AF8DEDB81196699C329225EE604 MUL PUSH1 0x80 SHR JUMPDEST PUSH3 0x40000 DUP3 AND ISZERO PUSH2 0x1D46 JUMPI PUSH14 0x2216E584F5FA1EA926041BEDFE98 MUL PUSH1 0x80 SHR JUMPDEST PUSH3 0x80000 DUP3 AND ISZERO PUSH2 0x1D63 JUMPI PUSH12 0x48A170391F7DC42444E8FA2 MUL PUSH1 0x80 SHR JUMPDEST PUSH1 0x0 DUP5 PUSH1 0x2 SIGNEXTEND SGT ISZERO PUSH2 0x1D7E JUMPI DUP1 PUSH1 0x0 NOT DUP2 PUSH2 0x1D7A JUMPI INVALID JUMPDEST DIV SWAP1 POP JUMPDEST PUSH5 0x100000000 DUP2 MOD ISZERO PUSH2 0x1D92 JUMPI PUSH1 0x1 PUSH2 0x1D95 JUMP JUMPDEST PUSH1 0x0 JUMPDEST PUSH1 0xFF AND PUSH1 0x20 DUP3 SWAP1 SHR ADD SWAP3 POP POP POP SWAP2 SWAP1 POP JUMP JUMPDEST PUSH1 0x0 DUP1 DUP1 PUSH1 0x0 NOT DUP6 DUP8 MULMOD DUP7 DUP7 MUL SWAP3 POP DUP3 DUP2 LT SWAP1 DUP4 SWAP1 SUB SUB SWAP1 POP DUP1 PUSH2 0x1DDD JUMPI PUSH1 0x0 DUP5 GT PUSH2 0x1DD2 JUMPI PUSH1 0x0 DUP1 REVERT JUMPDEST POP DUP3 SWAP1 DIV SWAP1 POP PUSH2 0x10B5 JUMP JUMPDEST DUP1 DUP5 GT PUSH2 0x1DE9 JUMPI PUSH1 0x0 DUP1 REVERT JUMPDEST PUSH1 0x0 DUP5 DUP7 DUP9 MULMOD PUSH1 0x0 DUP7 DUP2 SUB DUP8 AND SWAP7 DUP8 SWAP1 DIV SWAP7 PUSH1 0x2 PUSH1 0x3 DUP10 MUL DUP2 XOR DUP1 DUP11 MUL DUP3 SUB MUL DUP1 DUP11 MUL DUP3 SUB MUL DUP1 DUP11 MUL DUP3 SUB MUL DUP1 DUP11 MUL DUP3 SUB MUL DUP1 DUP11 MUL DUP3 SUB MUL DUP1 DUP11 MUL SWAP1 SWAP2 SUB MUL SWAP2 DUP2 SWAP1 SUB DUP2 SWAP1 DIV PUSH1 0x1 ADD DUP7 DUP5 GT SWAP1 SWAP6 SUB SWAP5 SWAP1 SWAP5 MUL SWAP2 SWAP1 SWAP5 SUB SWAP3 SWAP1 SWAP3 DIV SWAP2 SWAP1 SWAP2 OR SWAP2 SWAP1 SWAP2 MUL SWAP2 POP POP SWAP4 SWAP3 POP POP POP JUMP JUMPDEST PUSH1 0x0 DUP4 PUSH1 0x1 PUSH1 0x1 PUSH1 0xA0 SHL SUB AND DUP6 PUSH1 0x1 PUSH1 0x1 PUSH1 0xA0 SHL SUB AND GT ISZERO PUSH2 0x1E76 JUMPI SWAP3 SWAP4 SWAP3 JUMPDEST DUP2 PUSH2 0x1EA3 JUMPI PUSH2 0x1E9E DUP4 PUSH1 0x1 PUSH1 0x1 PUSH1 0x80 SHL SUB AND DUP7 DUP7 SUB PUSH1 0x1 PUSH1 0x1 PUSH1 0xA0 SHL SUB AND PUSH1 0x1 PUSH1 0x60 SHL PUSH2 0x1DA7 JUMP JUMPDEST PUSH2 0xF76 JUMP JUMPDEST PUSH2 0xF76 DUP4 PUSH1 0x1 PUSH1 0x1 PUSH1 0x80 SHL SUB AND DUP7 DUP7 SUB PUSH1 0x1 PUSH1 0x1 PUSH1 0xA0 SHL SUB AND PUSH1 0x1 PUSH1 0x60 SHL PUSH2 0x2009 JUMP JUMPDEST PUSH1 0x0 DUP4 PUSH1 0x1 PUSH1 0x1 PUSH1 0xA0 SHL SUB AND DUP6 PUSH1 0x1 PUSH1 0x1 PUSH1 0xA0 SHL SUB AND GT ISZERO PUSH2 0x1EE6 JUMPI SWAP3 SWAP4 SWAP3 JUMPDEST PUSH1 0x1 PUSH1 0x60 SHL PUSH1 0x1 PUSH1 0xE0 SHL SUB PUSH1 0x60 DUP5 SWAP1 SHL AND PUSH1 0x1 PUSH1 0x1 PUSH1 0xA0 SHL SUB DUP7 DUP7 SUB DUP2 AND SWAP1 DUP8 AND PUSH2 0x1F10 JUMPI PUSH1 0x0 DUP1 REVERT JUMPDEST DUP4 PUSH2 0x1F40 JUMPI DUP7 PUSH1 0x1 PUSH1 0x1 PUSH1 0xA0 SHL SUB AND PUSH2 0x1F33 DUP4 DUP4 DUP10 PUSH1 0x1 PUSH1 0x1 PUSH1 0xA0 SHL SUB AND PUSH2 0x1DA7 JUMP JUMPDEST DUP2 PUSH2 0x1F3A JUMPI INVALID JUMPDEST DIV PUSH2 0x1F66 JUMP JUMPDEST PUSH2 0x1F66 PUSH2 0x1F57 DUP4 DUP4 DUP10 PUSH1 0x1 PUSH1 0x1 PUSH1 0xA0 SHL SUB AND PUSH2 0x2009 JUMP JUMPDEST DUP9 PUSH1 0x1 PUSH1 0x1 PUSH1 0xA0 SHL SUB AND PUSH2 0x2318 JUMP JUMPDEST SWAP8 SWAP7 POP POP POP POP POP POP POP JUMP JUMPDEST PUSH1 0x0 DUP1 DUP6 PUSH1 0x1 PUSH1 0x1 PUSH1 0xA0 SHL SUB AND GT PUSH2 0x1F88 JUMPI PUSH1 0x0 DUP1 REVERT JUMPDEST PUSH1 0x0 DUP5 PUSH1 0x1 PUSH1 0x1 PUSH1 0x80 SHL SUB AND GT PUSH2 0x1F9E JUMPI PUSH1 0x0 DUP1 REVERT JUMPDEST DUP2 PUSH2 0x1FB0 JUMPI PUSH2 0x1E9E DUP6 DUP6 DUP6 PUSH1 0x1 PUSH2 0x2323 JUMP JUMPDEST PUSH2 0xF76 DUP6 DUP6 DUP6 PUSH1 0x1 PUSH2 0x2404 JUMP JUMPDEST PUSH1 0x0 DUP1 DUP6 PUSH1 0x1 PUSH1 0x1 PUSH1 0xA0 SHL SUB AND GT PUSH2 0x1FD4 JUMPI PUSH1 0x0 DUP1 REVERT JUMPDEST PUSH1 0x0 DUP5 PUSH1 0x1 PUSH1 0x1 PUSH1 0x80 SHL SUB AND GT PUSH2 0x1FEA JUMPI PUSH1 0x0 DUP1 REVERT JUMPDEST DUP2 PUSH2 0x1FFC JUMPI PUSH2 0x1E9E DUP6 DUP6 DUP6 PUSH1 0x0 PUSH2 0x2404 JUMP JUMPDEST PUSH2 0xF76 DUP6 DUP6 DUP6 PUSH1 0x0 PUSH2 0x2323 JUMP JUMPDEST PUSH1 0x0 PUSH2 0x2016 DUP5 DUP5 DUP5 PUSH2 0x1DA7 JUMP JUMPDEST SWAP1 POP PUSH1 0x0 DUP3 DUP1 PUSH2 0x2022 JUMPI INVALID JUMPDEST DUP5 DUP7 MULMOD GT ISZERO PUSH2 0x10B5 JUMPI PUSH1 0x0 NOT DUP2 LT PUSH2 0x2039 JUMPI PUSH1 0x0 DUP1 REVERT JUMPDEST PUSH1 0x1 ADD SWAP4 SWAP3 POP POP POP JUMP JUMPDEST PUSH1 0x0 DUP2 PUSH1 0x1 PUSH1 0x1 PUSH1 0xA0 SHL SUB AND PUSH4 0xDA3C300D PUSH1 0x40 MLOAD DUP2 PUSH4 0xFFFFFFFF AND PUSH1 0xE0 SHL DUP2 MSTORE PUSH1 0x4 ADD PUSH1 0x20 PUSH1 0x40 MLOAD DUP1 DUP4 SUB DUP2 DUP7 DUP1 EXTCODESIZE ISZERO DUP1 ISZERO PUSH2 0x207E JUMPI PUSH1 0x0 DUP1 REVERT JUMPDEST POP GAS STATICCALL SWAP3 POP POP POP DUP1 ISZERO PUSH2 0x20A3 JUMPI POP PUSH1 0x40 MLOAD RETURNDATASIZE PUSH1 0x20 DUP2 LT ISZERO PUSH2 0x209E JUMPI PUSH1 0x0 DUP1 REVERT JUMPDEST POP MLOAD PUSH1 0x1 JUMPDEST PUSH2 0x2113 JUMPI DUP2 PUSH1 0x1 PUSH1 0x1 PUSH1 0xA0 SHL SUB AND PUSH4 0xDDCA3F43 PUSH1 0x40 MLOAD DUP2 PUSH4 0xFFFFFFFF AND PUSH1 0xE0 SHL DUP2 MSTORE PUSH1 0x4 ADD PUSH1 0x20 PUSH1 0x40 MLOAD DUP1 DUP4 SUB DUP2 DUP7 DUP1 EXTCODESIZE ISZERO DUP1 ISZERO PUSH2 0x20E0 JUMPI PUSH1 0x0 DUP1 REVERT JUMPDEST POP GAS STATICCALL ISZERO DUP1 ISZERO PUSH2 0x20F4 JUMPI RETURNDATASIZE PUSH1 0x0 DUP1 RETURNDATACOPY RETURNDATASIZE PUSH1 0x0 REVERT JUMPDEST POP POP POP POP PUSH1 0x40 MLOAD RETURNDATASIZE PUSH1 0x20 DUP2 LT ISZERO PUSH2 0x210A JUMPI PUSH1 0x0 DUP1 REVERT JUMPDEST POP MLOAD SWAP1 POP PUSH2 0xEEA JUMP JUMPDEST SWAP1 POP PUSH2 0xEEA JUMP JUMPDEST PUSH1 0x0 DUP1 DUP6 DUP2 PUSH1 0x2 DUP7 DUP2 SIGNEXTEND SWAP1 DUP9 SWAP1 SIGNEXTEND DUP2 PUSH2 0x212F JUMPI INVALID JUMPDEST SDIV SWAP1 POP PUSH1 0x0 DUP8 PUSH1 0x2 SIGNEXTEND SLT DUP1 ISZERO PUSH2 0x2156 JUMPI POP DUP6 PUSH1 0x2 SIGNEXTEND DUP8 PUSH1 0x2 SIGNEXTEND DUP2 PUSH2 0x214F JUMPI INVALID JUMPDEST SMOD PUSH1 0x2 SIGNEXTEND ISZERO ISZERO JUMPDEST ISZERO PUSH2 0x2160 JUMPI PUSH1 0x0 NOT ADD JUMPDEST DUP5 ISZERO PUSH2 0x2237 JUMPI PUSH1 0x0 DUP1 PUSH2 0x2172 DUP4 PUSH2 0x24E0 JUMP JUMPDEST PUSH1 0x40 DUP1 MLOAD PUSH4 0x299CE14B PUSH1 0xE1 SHL DUP2 MSTORE PUSH1 0x1 DUP5 DUP2 SIGNEXTEND PUSH1 0x4 DUP4 ADD MSTORE SWAP2 MLOAD SWAP4 SWAP6 POP SWAP2 SWAP4 POP PUSH1 0xFF DUP5 AND SHL DUP1 ADD PUSH1 0x0 NOT ADD SWAP2 PUSH1 0x0 SWAP2 DUP4 SWAP2 PUSH1 0x1 PUSH1 0x1 PUSH1 0xA0 SHL SUB DUP10 AND SWAP2 PUSH4 0x5339C296 SWAP2 PUSH1 0x24 DUP1 DUP4 ADD SWAP3 PUSH1 0x20 SWAP3 SWAP2 SWAP1 DUP3 SWAP1 SUB ADD DUP2 DUP7 DUP1 EXTCODESIZE ISZERO DUP1 ISZERO PUSH2 0x21D3 JUMPI PUSH1 0x0 DUP1 REVERT JUMPDEST POP GAS STATICCALL ISZERO DUP1 ISZERO PUSH2 0x21E7 JUMPI RETURNDATASIZE PUSH1 0x0 DUP1 RETURNDATACOPY RETURNDATASIZE PUSH1 0x0 REVERT JUMPDEST POP POP POP POP PUSH1 0x40 MLOAD RETURNDATASIZE PUSH1 0x20 DUP2 LT ISZERO PUSH2 0x21FD JUMPI PUSH1 0x0 DUP1 REVERT JUMPDEST POP MLOAD AND DUP1 ISZERO ISZERO SWAP8 POP SWAP1 POP DUP7 PUSH2 0x2219 JUMPI DUP10 DUP4 PUSH1 0xFF AND DUP7 SUB MUL PUSH2 0x222C JUMP JUMPDEST DUP10 PUSH2 0x2223 DUP3 PUSH2 0x24F2 JUMP JUMPDEST DUP5 SUB PUSH1 0xFF AND DUP7 SUB MUL JUMPDEST SWAP8 POP POP POP POP POP PUSH2 0x230D JUMP JUMPDEST PUSH1 0x0 DUP1 PUSH2 0x2246 DUP4 PUSH1 0x1 ADD PUSH2 0x24E0 JUMP JUMPDEST SWAP2 POP SWAP2 POP PUSH1 0x0 PUSH1 0x1 DUP3 PUSH1 0xFF AND PUSH1 0x1 SWAP1 SHL SUB NOT SWAP1 POP PUSH1 0x0 DUP2 DUP7 PUSH1 0x1 PUSH1 0x1 PUSH1 0xA0 SHL SUB AND PUSH4 0x5339C296 DUP7 PUSH1 0x40 MLOAD DUP3 PUSH4 0xFFFFFFFF AND PUSH1 0xE0 SHL DUP2 MSTORE PUSH1 0x4 ADD DUP1 DUP3 PUSH1 0x1 SIGNEXTEND DUP2 MSTORE PUSH1 0x20 ADD SWAP2 POP POP PUSH1 0x20 PUSH1 0x40 MLOAD DUP1 DUP4 SUB DUP2 DUP7 DUP1 EXTCODESIZE ISZERO DUP1 ISZERO PUSH2 0x22A4 JUMPI PUSH1 0x0 DUP1 REVERT JUMPDEST POP GAS STATICCALL ISZERO DUP1 ISZERO PUSH2 0x22B8 JUMPI RETURNDATASIZE PUSH1 0x0 DUP1 RETURNDATACOPY RETURNDATASIZE PUSH1 0x0 REVERT JUMPDEST POP POP POP POP PUSH1 0x40 MLOAD RETURNDATASIZE PUSH1 0x20 DUP2 LT ISZERO PUSH2 0x22CE JUMPI PUSH1 0x0 DUP1 REVERT JUMPDEST POP MLOAD AND DUP1 ISZERO ISZERO SWAP8 POP SWAP1 POP DUP7 PUSH2 0x22F0 JUMPI DUP10 DUP4 PUSH1 0xFF SUB PUSH1 0xFF AND DUP7 PUSH1 0x1 ADD ADD MUL PUSH2 0x2306 JUMP JUMPDEST DUP10 DUP4 PUSH2 0x22FB DUP4 PUSH2 0x2592 JUMP JUMPDEST SUB PUSH1 0xFF AND DUP7 PUSH1 0x1 ADD ADD MUL JUMPDEST SWAP8 POP POP POP POP POP JUMPDEST POP POP SWAP5 POP SWAP5 SWAP3 POP POP POP JUMP JUMPDEST DUP1 DUP3 DIV SWAP2 MOD ISZERO ISZERO ADD SWAP1 JUMP JUMPDEST PUSH1 0x0 DUP2 ISZERO PUSH2 0x2396 JUMPI PUSH1 0x0 PUSH1 0x1 PUSH1 0x1 PUSH1 0xA0 SHL SUB DUP5 GT ISZERO PUSH2 0x2359 JUMPI PUSH2 0x2354 DUP5 PUSH1 0x1 PUSH1 0x60 SHL DUP8 PUSH1 0x1 PUSH1 0x1 PUSH1 0x80 SHL SUB AND PUSH2 0x1DA7 JUMP JUMPDEST PUSH2 0x2371 JUMP JUMPDEST PUSH1 0x1 PUSH1 0x1 PUSH1 0x80 SHL SUB DUP6 AND PUSH1 0x60 DUP6 SWAP1 SHL DUP2 PUSH2 0x236F JUMPI INVALID JUMPDEST DIV JUMPDEST SWAP1 POP PUSH2 0x238E PUSH2 0x2389 PUSH1 0x1 PUSH1 0x1 PUSH1 0xA0 SHL SUB DUP9 AND DUP4 PUSH2 0x1822 JUMP JUMPDEST PUSH2 0x267C JUMP JUMPDEST SWAP2 POP POP PUSH2 0x4AA JUMP JUMPDEST PUSH1 0x0 PUSH1 0x1 PUSH1 0x1 PUSH1 0xA0 SHL SUB DUP5 GT ISZERO PUSH2 0x23C4 JUMPI PUSH2 0x23BF DUP5 PUSH1 0x1 PUSH1 0x60 SHL DUP8 PUSH1 0x1 PUSH1 0x1 PUSH1 0x80 SHL SUB AND PUSH2 0x2009 JUMP JUMPDEST PUSH2 0x23DB JUMP JUMPDEST PUSH2 0x23DB PUSH1 0x60 DUP6 SWAP1 SHL PUSH1 0x1 PUSH1 0x1 PUSH1 0x80 SHL SUB DUP8 AND PUSH2 0x2318 JUMP JUMPDEST SWAP1 POP DUP1 DUP7 PUSH1 0x1 PUSH1 0x1 PUSH1 0xA0 SHL SUB AND GT PUSH2 0x23F2 JUMPI PUSH1 0x0 DUP1 REVERT JUMPDEST PUSH1 0x1 PUSH1 0x1 PUSH1 0xA0 SHL SUB DUP7 AND SUB SWAP1 POP PUSH2 0x4AA JUMP JUMPDEST PUSH1 0x0 DUP3 PUSH2 0x2412 JUMPI POP DUP4 PUSH2 0x4AA JUMP JUMPDEST PUSH1 0x1 PUSH1 0x60 SHL PUSH1 0x1 PUSH1 0xE0 SHL SUB PUSH1 0x60 DUP6 SWAP1 SHL AND DUP3 ISZERO PUSH2 0x2499 JUMPI PUSH1 0x1 PUSH1 0x1 PUSH1 0xA0 SHL SUB DUP7 AND DUP5 DUP2 MUL SWAP1 DUP6 DUP3 DUP2 PUSH2 0x2440 JUMPI INVALID JUMPDEST DIV EQ ISZERO PUSH2 0x2471 JUMPI DUP2 DUP2 ADD DUP3 DUP2 LT PUSH2 0x246F JUMPI PUSH2 0x2465 DUP4 DUP10 PUSH1 0x1 PUSH1 0x1 PUSH1 0xA0 SHL SUB AND DUP4 PUSH2 0x2009 JUMP JUMPDEST SWAP4 POP POP POP POP PUSH2 0x4AA JUMP JUMPDEST POP JUMPDEST PUSH2 0x2490 DUP3 PUSH2 0x248B DUP8 DUP11 PUSH1 0x1 PUSH1 0x1 PUSH1 0xA0 SHL SUB AND DUP7 DUP2 PUSH2 0xF6A JUMPI INVALID JUMPDEST PUSH2 0x2318 JUMP JUMPDEST SWAP3 POP POP POP PUSH2 0x4AA JUMP JUMPDEST PUSH1 0x1 PUSH1 0x1 PUSH1 0xA0 SHL SUB DUP7 AND DUP5 DUP2 MUL SWAP1 DUP6 DUP3 DUP2 PUSH2 0x24B0 JUMPI INVALID JUMPDEST DIV EQ DUP1 ISZERO PUSH2 0x24BD JUMPI POP DUP1 DUP3 GT JUMPDEST PUSH2 0x24C6 JUMPI PUSH1 0x0 DUP1 REVERT JUMPDEST DUP1 DUP3 SUB PUSH2 0x2465 PUSH2 0x2389 DUP5 PUSH1 0x1 PUSH1 0x1 PUSH1 0xA0 SHL SUB DUP12 AND DUP5 PUSH2 0x2009 JUMP JUMPDEST PUSH1 0x2 SIGNEXTEND PUSH1 0x8 DUP2 SWAP1 SAR SWAP2 PUSH2 0x100 SWAP1 SWAP2 SMOD SWAP1 JUMP JUMPDEST PUSH1 0x0 DUP1 DUP3 GT PUSH2 0x2500 JUMPI PUSH1 0x0 DUP1 REVERT JUMPDEST PUSH1 0x1 PUSH1 0x80 SHL DUP3 LT PUSH2 0x2513 JUMPI PUSH1 0x80 SWAP2 DUP3 SHR SWAP2 ADD JUMPDEST PUSH9 0x10000000000000000 DUP3 LT PUSH2 0x252B JUMPI PUSH1 0x40 SWAP2 DUP3 SHR SWAP2 ADD JUMPDEST PUSH5 0x100000000 DUP3 LT PUSH2 0x253F JUMPI PUSH1 0x20 SWAP2 DUP3 SHR SWAP2 ADD JUMPDEST PUSH3 0x10000 DUP3 LT PUSH2 0x2551 JUMPI PUSH1 0x10 SWAP2 DUP3 SHR SWAP2 ADD JUMPDEST PUSH2 0x100 DUP3 LT PUSH2 0x2562 JUMPI PUSH1 0x8 SWAP2 DUP3 SHR SWAP2 ADD JUMPDEST PUSH1 0x10 DUP3 LT PUSH2 0x2572 JUMPI PUSH1 0x4 SWAP2 DUP3 SHR SWAP2 ADD JUMPDEST PUSH1 0x4 DUP3 LT PUSH2 0x2582 JUMPI PUSH1 0x2 SWAP2 DUP3 SHR SWAP2 ADD JUMPDEST PUSH1 0x2 DUP3 LT PUSH2 0xEEA JUMPI PUSH1 0x1 ADD SWAP2 SWAP1 POP JUMP JUMPDEST PUSH1 0x0 DUP1 DUP3 GT PUSH2 0x25A0 JUMPI PUSH1 0x0 DUP1 REVERT JUMPDEST POP PUSH1 0xFF PUSH1 0x1 PUSH1 0x1 PUSH1 0x80 SHL SUB DUP3 AND ISZERO PUSH2 0x25BB JUMPI PUSH1 0x7F NOT ADD PUSH2 0x25C3 JUMP JUMPDEST PUSH1 0x80 DUP3 SWAP1 SHR SWAP2 POP JUMPDEST PUSH8 0xFFFFFFFFFFFFFFFF DUP3 AND ISZERO PUSH2 0x25DC JUMPI PUSH1 0x3F NOT ADD PUSH2 0x25E4 JUMP JUMPDEST PUSH1 0x40 DUP3 SWAP1 SHR SWAP2 POP JUMPDEST PUSH4 0xFFFFFFFF DUP3 AND ISZERO PUSH2 0x25F9 JUMPI PUSH1 0x1F NOT ADD PUSH2 0x2601 JUMP JUMPDEST PUSH1 0x20 DUP3 SWAP1 SHR SWAP2 POP JUMPDEST PUSH2 0xFFFF DUP3 AND ISZERO PUSH2 0x2614 JUMPI PUSH1 0xF NOT ADD PUSH2 0x261C JUMP JUMPDEST PUSH1 0x10 DUP3 SWAP1 SHR SWAP2 POP JUMPDEST PUSH1 0xFF DUP3 AND ISZERO PUSH2 0x262E JUMPI PUSH1 0x7 NOT ADD PUSH2 0x2636 JUMP JUMPDEST PUSH1 0x8 DUP3 SWAP1 SHR SWAP2 POP JUMPDEST PUSH1 0xF DUP3 AND ISZERO PUSH2 0x2648 JUMPI PUSH1 0x3 NOT ADD PUSH2 0x2650 JUMP JUMPDEST PUSH1 0x4 DUP3 SWAP1 SHR SWAP2 POP JUMPDEST PUSH1 0x3 DUP3 AND ISZERO PUSH2 0x2662 JUMPI PUSH1 0x1 NOT ADD PUSH2 0x266A JUMP JUMPDEST PUSH1 0x2 DUP3 SWAP1 SHR SWAP2 POP JUMPDEST PUSH1 0x1 DUP3 AND ISZERO PUSH2 0xEEA JUMPI PUSH1 0x0 NOT ADD SWAP2 SWAP1 POP JUMP JUMPDEST DUP1 PUSH1 0x1 PUSH1 0x1 PUSH1 0xA0 SHL SUB DUP2 AND DUP2 EQ PUSH2 0xEEA JUMPI PUSH1 0x0 DUP1 REVERT JUMPDEST PUSH1 0x40 DUP1 MLOAD PUSH1 0xE0 DUP2 ADD DUP3 MSTORE PUSH1 0x0 DUP1 DUP3 MSTORE PUSH1 0x20 DUP3 ADD DUP2 SWAP1 MSTORE SWAP2 DUP2 ADD DUP3 SWAP1 MSTORE PUSH1 0x60 DUP2 ADD DUP3 SWAP1 MSTORE PUSH1 0x80 DUP2 ADD DUP3 SWAP1 MSTORE PUSH1 0xA0 DUP2 ADD DUP3 SWAP1 MSTORE PUSH1 0xC0 DUP2 ADD SWAP2 SWAP1 SWAP2 MSTORE SWAP1 JUMP JUMPDEST PUSH1 0x40 DUP1 MLOAD PUSH1 0xA0 DUP2 ADD DUP3 MSTORE PUSH1 0x0 DUP1 DUP3 MSTORE PUSH1 0x20 DUP3 ADD DUP2 SWAP1 MSTORE SWAP2 DUP2 ADD DUP3 SWAP1 MSTORE PUSH1 0x60 DUP2 ADD DUP3 SWAP1 MSTORE PUSH1 0x80 DUP2 ADD SWAP2 SWAP1 SWAP2 MSTORE SWAP1 JUMP JUMPDEST PUSH1 0x40 DUP1 MLOAD PUSH1 0x60 DUP2 ADD DUP3 MSTORE PUSH1 0x0 DUP1 DUP3 MSTORE PUSH1 0x20 DUP3 ADD DUP2 SWAP1 MSTORE SWAP2 DUP2 ADD SWAP2 SWAP1 SWAP2 MSTORE SWAP1 JUMP JUMPDEST DUP1 MLOAD PUSH2 0xEEA DUP2 PUSH2 0x2BEC JUMP JUMPDEST PUSH1 0x0 DUP3 PUSH1 0x1F DUP4 ADD SLT PUSH2 0x2737 JUMPI DUP1 DUP2 REVERT JUMPDEST DUP2 CALLDATALOAD PUSH8 0xFFFFFFFFFFFFFFFF DUP2 GT ISZERO PUSH2 0x274B JUMPI INVALID JUMPDEST PUSH2 0x275E PUSH1 0x1F DUP3 ADD PUSH1 0x1F NOT AND PUSH1 0x20 ADD PUSH2 0x2BC8 JUMP JUMPDEST DUP2 DUP2 MSTORE DUP5 PUSH1 0x20 DUP4 DUP7 ADD ADD GT ISZERO PUSH2 0x2772 JUMPI DUP3 DUP4 REVERT JUMPDEST DUP2 PUSH1 0x20 DUP6 ADD PUSH1 0x20 DUP4 ADD CALLDATACOPY SWAP1 DUP2 ADD PUSH1 0x20 ADD SWAP2 SWAP1 SWAP2 MSTORE SWAP3 SWAP2 POP POP JUMP JUMPDEST DUP1 MLOAD PUSH1 0x1 PUSH1 0x1 PUSH1 0x70 SHL SUB DUP2 AND DUP2 EQ PUSH2 0xEEA JUMPI PUSH1 0x0 DUP1 REVERT JUMPDEST DUP1 MLOAD PUSH2 0xEEA DUP2 PUSH2 0x2C04 JUMP JUMPDEST PUSH1 0x0 PUSH1 0x20 DUP3 DUP5 SUB SLT ISZERO PUSH2 0x27BF JUMPI DUP1 DUP2 REVERT JUMPDEST DUP2 MLOAD PUSH2 0x10B5 DUP2 PUSH2 0x2BEC JUMP JUMPDEST PUSH1 0x0 DUP1 PUSH1 0x0 DUP1 PUSH1 0x80 DUP6 DUP8 SUB SLT ISZERO PUSH2 0x27DF JUMPI DUP3 DUP4 REVERT JUMPDEST DUP5 CALLDATALOAD PUSH2 0x27EA DUP2 PUSH2 0x2BEC JUMP JUMPDEST SWAP4 POP PUSH1 0x20 DUP6 ADD CALLDATALOAD PUSH2 0x27FA DUP2 PUSH2 0x2BEC JUMP JUMPDEST SWAP3 POP PUSH1 0x40 DUP6 ADD CALLDATALOAD PUSH2 0x280A DUP2 PUSH2 0x2BEC JUMP JUMPDEST SWAP4 SWAP7 SWAP3 SWAP6 POP SWAP3 SWAP4 PUSH1 0x60 ADD CALLDATALOAD SWAP3 POP POP JUMP JUMPDEST PUSH1 0x0 DUP1 PUSH1 0x0 DUP1 PUSH1 0x0 DUP1 PUSH1 0xC0 DUP8 DUP10 SUB SLT ISZERO PUSH2 0x2832 JUMPI DUP2 DUP3 REVERT JUMPDEST DUP7 CALLDATALOAD PUSH2 0x283D DUP2 PUSH2 0x2BEC JUMP JUMPDEST SWAP6 POP PUSH1 0x20 DUP8 ADD CALLDATALOAD PUSH2 0x284D DUP2 PUSH2 0x2BEC JUMP JUMPDEST SWAP5 POP PUSH1 0x40 DUP8 ADD CALLDATALOAD PUSH2 0x285D DUP2 PUSH2 0x2BEC JUMP JUMPDEST SWAP4 POP PUSH1 0x60 DUP8 ADD CALLDATALOAD PUSH2 0x286D DUP2 PUSH2 0x2C04 JUMP JUMPDEST SWAP3 POP PUSH1 0x80 DUP8 ADD CALLDATALOAD PUSH2 0x287D DUP2 PUSH2 0x2C04 JUMP JUMPDEST DUP1 SWAP3 POP POP PUSH1 0xA0 DUP8 ADD CALLDATALOAD SWAP1 POP SWAP3 SWAP6 POP SWAP3 SWAP6 POP SWAP3 SWAP6 JUMP JUMPDEST PUSH1 0x0 DUP1 PUSH1 0x0 DUP1 PUSH1 0x80 DUP6 DUP8 SUB SLT ISZERO PUSH2 0x28A7 JUMPI DUP4 DUP5 REVERT JUMPDEST DUP5 CALLDATALOAD PUSH2 0x28B2 DUP2 PUSH2 0x2BEC JUMP JUMPDEST SWAP4 POP PUSH1 0x20 DUP6 ADD CALLDATALOAD DUP1 ISZERO ISZERO DUP2 EQ PUSH2 0x28C6 JUMPI DUP4 DUP5 REVERT JUMPDEST SWAP3 POP PUSH1 0x40 DUP6 ADD CALLDATALOAD SWAP2 POP PUSH1 0x60 DUP6 ADD CALLDATALOAD PUSH2 0x28DD DUP2 PUSH2 0x2BEC JUMP JUMPDEST SWAP4 SWAP7 SWAP3 SWAP6 POP SWAP1 SWAP4 POP POP JUMP JUMPDEST PUSH1 0x0 PUSH1 0x20 DUP1 DUP4 DUP6 SUB SLT ISZERO PUSH2 0x28FA JUMPI DUP2 DUP3 REVERT JUMPDEST DUP3 MLOAD PUSH8 0xFFFFFFFFFFFFFFFF DUP1 DUP3 GT ISZERO PUSH2 0x2911 JUMPI DUP4 DUP5 REVERT JUMPDEST DUP2 DUP6 ADD SWAP2 POP DUP6 PUSH1 0x1F DUP4 ADD SLT PUSH2 0x2924 JUMPI DUP4 DUP5 REVERT JUMPDEST DUP2 MLOAD DUP2 DUP2 GT ISZERO PUSH2 0x2930 JUMPI INVALID JUMPDEST PUSH2 0x293D DUP5 DUP6 DUP4 MUL ADD PUSH2 0x2BC8 JUMP JUMPDEST DUP2 DUP2 MSTORE DUP5 DUP2 ADD SWAP1 DUP5 DUP7 ADD PUSH1 0xC0 DUP1 DUP6 MUL DUP8 ADD DUP9 ADD DUP12 LT ISZERO PUSH2 0x295B JUMPI DUP9 DUP10 REVERT JUMPDEST DUP9 SWAP7 POP JUMPDEST DUP5 DUP8 LT ISZERO PUSH2 0x2A09 JUMPI DUP1 DUP3 DUP13 SUB SLT ISZERO PUSH2 0x2975 JUMPI DUP9 DUP10 REVERT JUMPDEST PUSH1 0x40 DUP1 MLOAD DUP3 DUP2 ADD DUP2 DUP2 LT DUP10 DUP3 GT OR ISZERO PUSH2 0x298A JUMPI INVALID JUMPDEST DUP3 MSTORE DUP4 MLOAD PUSH2 0x2997 DUP2 PUSH2 0x2BEC JUMP JUMPDEST DUP2 MSTORE PUSH2 0x29A4 DUP5 DUP12 ADD PUSH2 0x271C JUMP JUMPDEST DUP11 DUP3 ADD MSTORE PUSH2 0x29B3 DUP3 DUP6 ADD PUSH2 0x271C JUMP JUMPDEST DUP3 DUP3 ADD MSTORE PUSH1 0x60 SWAP2 POP PUSH2 0x29C6 DUP3 DUP6 ADD PUSH2 0x27A3 JUMP JUMPDEST DUP3 DUP3 ADD MSTORE PUSH1 0x80 SWAP2 POP PUSH2 0x29D9 DUP3 DUP6 ADD PUSH2 0x27A3 JUMP JUMPDEST DUP3 DUP3 ADD MSTORE PUSH1 0xA0 SWAP2 POP PUSH2 0x29EC DUP3 DUP6 ADD PUSH2 0x27A3 JUMP JUMPDEST SWAP2 DUP2 ADD SWAP2 SWAP1 SWAP2 MSTORE DUP5 MSTORE PUSH1 0x1 SWAP7 SWAP1 SWAP7 ADD SWAP6 SWAP3 DUP8 ADD SWAP3 SWAP1 DUP2 ADD SWAP1 PUSH2 0x295F JUMP JUMPDEST POP SWAP1 SWAP10 SWAP9 POP POP POP POP POP POP POP POP POP JUMP JUMPDEST PUSH1 0x0 PUSH1 0x20 DUP3 DUP5 SUB SLT ISZERO PUSH2 0x2A29 JUMPI DUP1 DUP2 REVERT JUMPDEST DUP2 CALLDATALOAD PUSH8 0xFFFFFFFFFFFFFFFF DUP2 GT ISZERO PUSH2 0x2A3F JUMPI DUP2 DUP3 REVERT JUMPDEST PUSH2 0x4AA DUP5 DUP3 DUP6 ADD PUSH2 0x2727 JUMP JUMPDEST PUSH1 0x0 DUP1 PUSH1 0x40 DUP4 DUP6 SUB SLT ISZERO PUSH2 0x2A5D JUMPI DUP2 DUP3 REVERT JUMPDEST DUP3 CALLDATALOAD PUSH8 0xFFFFFFFFFFFFFFFF DUP2 GT ISZERO PUSH2 0x2A73 JUMPI DUP3 DUP4 REVERT JUMPDEST PUSH2 0x2A7F DUP6 DUP3 DUP7 ADD PUSH2 0x2727 JUMP JUMPDEST SWAP6 PUSH1 0x20 SWAP5 SWAP1 SWAP5 ADD CALLDATALOAD SWAP5 POP POP POP POP JUMP JUMPDEST PUSH1 0x0 DUP1 PUSH1 0x0 PUSH1 0x60 DUP5 DUP7 SUB SLT ISZERO PUSH2 0x2AA2 JUMPI DUP1 DUP2 REVERT JUMPDEST PUSH2 0x2AAB DUP5 PUSH2 0x278C JUMP JUMPDEST SWAP3 POP PUSH2 0x2AB9 PUSH1 0x20 DUP6 ADD PUSH2 0x278C JUMP JUMPDEST SWAP2 POP PUSH1 0x40 DUP5 ADD MLOAD PUSH4 0xFFFFFFFF DUP2 AND DUP2 EQ PUSH2 0x2AD1 JUMPI DUP2 DUP3 REVERT JUMPDEST DUP1 SWAP2 POP POP SWAP3 POP SWAP3 POP SWAP3 JUMP JUMPDEST PUSH1 0x20 DUP1 DUP3 MSTORE DUP3 MLOAD DUP3 DUP3 ADD DUP2 SWAP1 MSTORE PUSH1 0x0 SWAP2 SWAP1 PUSH1 0x40 SWAP1 DUP2 DUP6 ADD SWAP1 DUP7 DUP5 ADD DUP6 JUMPDEST DUP3 DUP2 LT ISZERO PUSH2 0x2B60 JUMPI DUP2 MLOAD DUP1 MLOAD PUSH1 0x1 PUSH1 0x1 PUSH1 0xA0 SHL SUB SWAP1 DUP2 AND DUP7 MSTORE DUP8 DUP3 ADD MLOAD DUP2 AND DUP9 DUP8 ADD MSTORE DUP7 DUP3 ADD MLOAD AND DUP7 DUP7 ADD MSTORE PUSH1 0x60 DUP1 DUP3 ADD MLOAD PUSH1 0xFF SWAP1 DUP2 AND SWAP2 DUP8 ADD SWAP2 SWAP1 SWAP2 MSTORE PUSH1 0x80 DUP1 DUP4 ADD MLOAD DUP3 AND SWAP1 DUP8 ADD MSTORE PUSH1 0xA0 SWAP2 DUP3 ADD MLOAD AND SWAP1 DUP6 ADD MSTORE PUSH1 0xC0 SWAP1 SWAP4 ADD SWAP3 SWAP1 DUP6 ADD SWAP1 PUSH1 0x1 ADD PUSH2 0x2AF9 JUMP JUMPDEST POP SWAP2 SWAP8 SWAP7 POP POP POP POP POP POP POP JUMP JUMPDEST PUSH1 0x20 DUP1 DUP3 MSTORE DUP3 MLOAD DUP3 DUP3 ADD DUP2 SWAP1 MSTORE PUSH1 0x0 SWAP2 SWAP1 DUP5 DUP3 ADD SWAP1 PUSH1 0x40 DUP6 ADD SWAP1 DUP5 JUMPDEST DUP2 DUP2 LT ISZERO PUSH2 0x2BA5 JUMPI DUP4 MLOAD DUP4 MSTORE SWAP3 DUP5 ADD SWAP3 SWAP2 DUP5 ADD SWAP2 PUSH1 0x1 ADD PUSH2 0x2B89 JUMP JUMPDEST POP SWAP1 SWAP7 SWAP6 POP POP POP POP POP POP JUMP JUMPDEST SWAP2 DUP3 MSTORE PUSH1 0x20 DUP3 ADD MSTORE PUSH1 0x40 ADD SWAP1 JUMP JUMPDEST SWAP1 DUP2 MSTORE PUSH1 0x20 ADD SWAP1 JUMP JUMPDEST PUSH1 0x40 MLOAD DUP2 DUP2 ADD PUSH8 0xFFFFFFFFFFFFFFFF DUP2 GT DUP3 DUP3 LT OR ISZERO PUSH2 0x2BE4 JUMPI INVALID JUMPDEST PUSH1 0x40 MSTORE SWAP2 SWAP1 POP JUMP JUMPDEST PUSH1 0x1 PUSH1 0x1 PUSH1 0xA0 SHL SUB DUP2 AND DUP2 EQ PUSH2 0x2C01 JUMPI PUSH1 0x0 DUP1 REVERT JUMPDEST POP JUMP JUMPDEST PUSH1 0xFF DUP2 AND DUP2 EQ PUSH2 0x2C01 JUMPI PUSH1 0x0 DUP1 REVERT INVALID LOG2 PUSH5 0x6970667358 0x22 SLT KECCAK256 0x5F SUB ADD 0xB9 0x4A 0xCC GASPRICE 0xE7 0xC9 0x5C SWAP13 0xF7 0x28 0x2B PUSH6 0x9B38B1111B95 SLT NUMBER SAR PUSH13 0x6AE24F2141335364736F6C6343 STOP SMOD MOD STOP CALLER "},"gasEstimates":{"creation":{"codeDepositCost":"2267400","executionCost":"2427","totalCost":"2269827"},"external":{"decodePath(bytes)":"infinite","getAmountIn(bytes,uint256)":"infinite","getAmountInV2(address,address,address,uint8,uint8,uint256)":"infinite","getAmountInV3(address,address,address,uint256)":"infinite","getAmountOut(bytes,uint256)":"infinite","getAmountOutV2(address,address,address,uint8,uint8,uint256)":"infinite","getAmountOutV3(address,address,address,uint256)":"infinite","quote(address,bool,int256,uint160)":"infinite"},"internal":{"_getAmountInV2(uint256,uint256,uint256,uint8,uint8)":"infinite","_getAmountOutV2(uint256,uint256,uint256,uint8,uint8)":"infinite"}},"methodIdentifiers":{"decodePath(bytes)":"c25ddce0","getAmountIn(bytes,uint256)":"00614b2e","getAmountInV2(address,address,address,uint8,uint8,uint256)":"53201a4c","getAmountInV3(address,address,address,uint256)":"6e95d3d8","getAmountOut(bytes,uint256)":"77cd49e4","getAmountOutV2(address,address,address,uint8,uint8,uint256)":"97de0a84","getAmountOutV3(address,address,address,uint256)":"2d0f9a30","quote(address,bool,int256,uint160)":"90405d36"}},"storageLayout":{"storage":[],"types":null},"userdoc":{"kind":"user","methods":{},"version":1}}}}