{"contracts/UniswapV3StaticQuoter.sol":{"UniswapV3StaticQuoter":{"abi":[{"inputs":[{"internalType":"address","name":"_factory","type":"address"}],"stateMutability":"nonpayable","type":"constructor"},{"inputs":[{"internalType":"address","name":"tokenIn","type":"address"},{"internalType":"address","name":"tokenOut","type":"address"},{"internalType":"address","name":"pool","type":"address"},{"internalType":"uint256","name":"amountOut","type":"uint256"}],"name":"getAmountIn","outputs":[{"internalType":"uint256","name":"amountIn","type":"uint256"}],"stateMutability":"view","type":"function"},{"inputs":[{"internalType":"address","name":"tokenIn","type":"address"},{"internalType":"address","name":"tokenOut","type":"address"},{"internalType":"address","name":"pool","type":"address"},{"internalType":"uint256","name":"amountIn","type":"uint256"}],"name":"getAmountOut","outputs":[{"internalType":"uint256","name":"amountOut","type":"uint256"}],"stateMutability":"view","type":"function"},{"inputs":[{"internalType":"address","name":"poolAddress","type":"address"},{"internalType":"bool","name":"zeroForOne","type":"bool"},{"internalType":"int256","name":"amountSpecified","type":"int256"},{"internalType":"uint160","name":"sqrtPriceLimitX96","type":"uint160"}],"name":"quote","outputs":[{"internalType":"int256","name":"amount0","type":"int256"},{"internalType":"int256","name":"amount1","type":"int256"}],"stateMutability":"view","type":"function"},{"inputs":[{"internalType":"bytes","name":"path","type":"bytes"},{"internalType":"uint256","name":"amountIn","type":"uint256"}],"name":"quoteExactInput","outputs":[{"internalType":"uint256","name":"amountOut","type":"uint256"}],"stateMutability":"view","type":"function"},{"inputs":[{"components":[{"internalType":"address","name":"tokenIn","type":"address"},{"internalType":"address","name":"tokenOut","type":"address"},{"internalType":"uint256","name":"amountIn","type":"uint256"},{"internalType":"uint24","name":"fee","type":"uint24"},{"internalType":"uint160","name":"sqrtPriceLimitX96","type":"uint160"}],"internalType":"struct IUniswapV3StaticQuoter.QuoteExactInputSingleParams","name":"params","type":"tuple"}],"name":"quoteExactInputSingle","outputs":[{"internalType":"uint256","name":"amountOut","type":"uint256"}],"stateMutability":"view","type":"function"},{"inputs":[{"internalType":"bytes","name":"path","type":"bytes"},{"internalType":"uint256","name":"amountOut","type":"uint256"}],"name":"quoteExactOutput","outputs":[{"internalType":"uint256","name":"amountIn","type":"uint256"}],"stateMutability":"view","type":"function"},{"inputs":[{"components":[{"internalType":"address","name":"tokenIn","type":"address"},{"internalType":"address","name":"tokenOut","type":"address"},{"internalType":"uint256","name":"amount","type":"uint256"},{"internalType":"uint24","name":"fee","type":"uint24"},{"internalType":"uint160","name":"sqrtPriceLimitX96","type":"uint160"}],"internalType":"struct IUniswapV3StaticQuoter.QuoteExactOutputSingleParams","name":"params","type":"tuple"}],"name":"quoteExactOutputSingle","outputs":[{"internalType":"uint256","name":"amountIn","type":"uint256"}],"stateMutability":"view","type":"function"}],"devdoc":{"kind":"dev","methods":{"quoteExactInput(bytes,uint256)":{"params":{"amountIn":"The amount of the first token to swap","path":"The path of the swap, i.e. each token pair and the pool fee"},"returns":{"amountOut":"The amount of the last token that would be received"}},"quoteExactInputSingle((address,address,uint256,uint24,uint160))":{"params":{"params":"The params for the quote, encoded as `QuoteExactInputSingleParams` tokenIn The token being swapped in tokenOut The token being swapped out fee The fee of the token pool to consider for the pair amountIn The desired input amount sqrtPriceLimitX96 The price limit of the pool that cannot be exceeded by the swap"},"returns":{"amountOut":"The amount of `tokenOut` that would be received"}},"quoteExactOutput(bytes,uint256)":{"params":{"amountOut":"The amount of the last token that would be received","path":"The path of the swap, i.e. each token pair and the pool fee"},"returns":{"amountIn":"The amount of the first token to swap"}},"quoteExactOutputSingle((address,address,uint256,uint24,uint160))":{"params":{"params":"The params for the quote, encoded as `QuoteExactOutputSingleParams` tokenIn The token being swapped in tokenOut The token being swapped out fee The fee of the token pool to consider for the pair amountOut The desired output amount sqrtPriceLimitX96 The price limit of the pool that cannot be exceeded by the swap"},"returns":{"amountIn":"The amount of `tokenIn` that would be needed"}}},"version":1},"evm":{"bytecode":{"linkReferences":{},"object":"60a06040523480156200001157600080fd5b50604051620028933803806200289383398101604081905262000034916200004a565b60601b6001600160601b0319166080526200007a565b6000602082840312156200005c578081fd5b81516001600160a01b038116811462000073578182fd5b9392505050565b60805160601c6127fb62000098600039806112af52506127fb6000f3fe608060405234801561001057600080fd5b506004361061007d5760003560e01c8063c6a5026a1161005b578063c6a5026a146100df578063cdca1753146100f2578063d7176ca914610105578063ec278309146101185761007d565b80632f80bb1d1461008257806390405d36146100ab578063bd21704a146100cc575b600080fd5b61009561009036600461269c565b61012b565b6040516100a2919061276f565b60405180910390f35b6100be6100b9366004612646565b6101cb565b6040516100a2929190612761565b6100956100da36600461272a565b610489565b6100956100ed36600461272a565b610534565b61009561010036600461269c565b6105b1565b6100956101133660046125f6565b61063b565b6100956101263660046125f6565b61084a565b60005b600080600061013c86610a4b565b9250925092506101926040518060a00160405280846001600160a01b03168152602001856001600160a01b031681526020018781526020018362ffffff16815260200160006001600160a01b0316815250610489565b945061019d86610a7c565b156101b2576101ab86610a84565b95506101bd565b8493505050506101c5565b50505061012e565b92915050565b60008083610220576040805162461bcd60e51b815260206004820152601e60248201527f616d6f756e745370656369666965642063616e6e6f74206265207a65726f0000604482015290519081900360640190fd5b60008085139080806102348a8a8a8a610a9b565b9250925092505b8051158015906102615750866001600160a01b031681604001516001600160a01b031614155b156104525761026e6124c4565b60408201516001600160a01b031681526060820151610290908c90868d610b2e565b6001600160a01b031660608401819052901515604080850191909152600292830b90920b6020840152908301516102de916102cd908d908c610b8b565b6080850151855161ffff8816610bd8565b60c085015260a084015260808301526001600160a01b031660408301528415610340576103148160c00151826080015101610dca565b825103825260a08101516103369061032b90610dca565b602084015190610de0565b602083015261037b565b61034d8160a00151610dca565b825101825260c081015160808201516103759161036a9101610dca565b602084015190610df6565b60208301525b80606001516001600160a01b031682604001516001600160a01b03161415610411578060400151156103e85760006103b78c8360200151610e0c565b5050505050509150508a156103ca576000035b6103d8836080015182610ed3565b6001600160801b03166080840152505b896103f7578060200151610400565b60018160200151035b600290810b900b606083015261044c565b80600001516001600160a01b031682604001516001600160a01b03161461044c5761043f8260400151610f89565b600290810b900b60608301525b5061023b565b8315158915151461046b57602081015181518903610478565b8060000151880381602001515b909b909a5098505050505050505050565b6020810151815160608301516000926001600160a01b03808216908416109284926104b492906112a8565b905060008061051783856104cb8960400151610dca565b60000389608001516001600160a01b03166000146104ed5789608001516100b9565b8761050c5773fffd8963efd1fc6a506488495d951d5263988d256100b9565b6401000276a46101cb565b91509150836105265780610528565b815b9450505050505b919050565b6020810151815160608301516000926001600160a01b038082169084161092849261055f92906112a8565b905060008061059383856105768960400151610dca565b60808a01516001600160a01b0316156104ed5789608001516100b9565b91509150836105a55781600003610528565b60000395945050505050565b60005b60008060006105c286610a4b565b9250925092506106186040518060a00160405280856001600160a01b03168152602001846001600160a01b031681526020018781526020018362ffffff16815260200160006001600160a01b0316815250610534565b945061062386610a7c565b156101b25761063186610a84565b95505050506105b4565b60008281806001600160a01b038088169089161161065a57868861065d565b87875b91509150816001600160a01b0316836001600160a01b0316630dfe16816040518163ffffffff1660e01b815260040160206040518083038186803b1580156106a457600080fd5b505afa1580156106b8573d6000803e3d6000fd5b505050506040513d601f19601f820116820180604052508101906106dc91906125da565b6001600160a01b03161415806107745750806001600160a01b0316836001600160a01b031663d21220a76040518163ffffffff1660e01b815260040160206040518083038186803b15801561073057600080fd5b505afa158015610744573d6000803e3d6000fd5b505050506040513d601f19601f8201168201806040525081019061076891906125da565b6001600160a01b031614155b156107855760009350505050610842565b61083c6040518060a001604052808a6001600160a01b03168152602001896001600160a01b03168152602001878152602001856001600160a01b031663ddca3f436040518163ffffffff1660e01b815260040160206040518083038186803b1580156107f057600080fd5b505afa158015610804573d6000803e3d6000fd5b505050506040513d601f19601f820116820180604052508101906108289190612745565b62ffffff1681526000602090910152610534565b93505050505b949350505050565b60008281806001600160a01b038088169089161161086957868861086c565b87875b91509150816001600160a01b0316836001600160a01b0316630dfe16816040518163ffffffff1660e01b815260040160206040518083038186803b1580156108b357600080fd5b505afa1580156108c7573d6000803e3d6000fd5b505050506040513d601f19601f820116820180604052508101906108eb91906125da565b6001600160a01b03161415806109835750806001600160a01b0316836001600160a01b031663d21220a76040518163ffffffff1660e01b815260040160206040518083038186803b15801561093f57600080fd5b505afa158015610953573d6000803e3d6000fd5b505050506040513d601f19601f8201168201806040525081019061097791906125da565b6001600160a01b031614155b156109945760009350505050610842565b61083c6040518060a001604052808a6001600160a01b03168152602001896001600160a01b03168152602001878152602001856001600160a01b031663ddca3f436040518163ffffffff1660e01b815260040160206040518083038186803b1580156109ff57600080fd5b505afa158015610a13573d6000803e3d6000fd5b505050506040513d601f19601f82011682018060405250810190610a379190612745565b62ffffff1681526000602090910152610489565b60008080610a5984826112de565b9250610a6684601461138e565b9050610a738460176112de565b91509193909250565b516042111590565b80516060906101c590839060179060161901611435565b600080610aa6612500565b6000610ab188611586565b9050610ac28786836000015161168f565b610acb88611760565b9350806040015192506040518060a001604052808781526020016000815260200182600001516001600160a01b03168152602001826020015160020b8152602001610b158a6117cd565b6001600160801b03168152509150509450945094915050565b6000806000610b3f87878787611808565b9093509150620d89e719600284900b1215610b6057620d89e7199250610b76565b620d89e8600284900b1315610b7657620d89e892505b610b7f83611824565b90509450945094915050565b600083610bac57816001600160a01b0316836001600160a01b031611610bc2565b816001600160a01b0316836001600160a01b0316105b610bcc5782610bce565b815b90505b9392505050565b60008080806001600160a01b03808916908a161015818712801590610c5d576000610c118989620f42400362ffffff16620f4240611b56565b905082610c2a57610c258c8c8c6001611c05565b610c37565b610c378b8d8c6001611c7e565b9550858110610c48578a9650610c57565b610c548c8b8386611d29565b96505b50610ca7565b81610c7457610c6f8b8b8b6000611c7e565b610c81565b610c818a8c8b6000611c05565b9350838860000310610c9557899550610ca7565b610ca48b8a8a60000385611d75565b95505b6001600160a01b038a8116908716148215610d0a57808015610cc65750815b610cdc57610cd7878d8c6001611c7e565b610cde565b855b9550808015610ceb575081155b610d0157610cfc878d8c6000611c05565b610d03565b845b9450610d54565b808015610d145750815b610d2a57610d258c888c6001611c05565b610d2c565b855b9550808015610d39575081155b610d4f57610d4a8c888c6000611c7e565b610d51565b845b94505b81158015610d6457508860000385115b15610d70578860000394505b818015610d8f57508a6001600160a01b0316876001600160a01b031614155b15610d9e578589039350610dbb565b610db8868962ffffff168a620f42400362ffffff16611dc1565b93505b50505095509550955095915050565b6000600160ff1b8210610ddc57600080fd5b5090565b808203828113156000831215146101c557600080fd5b818101828112156000831215146101c557600080fd5b600080600080600080600080896001600160a01b031663f30dba938a6040518263ffffffff1660e01b8152600401808260020b81526020019150506101006040518083038186803b158015610e6057600080fd5b505afa158015610e74573d6000803e3d6000fd5b505050506040513d610100811015610e8b57600080fd5b508051602082015160408301516060840151608085015160a086015160c087015160e090970151959e50939c50919a5098509650945090925090509295985092959890939650565b60008082600f0b1215610f3857826001600160801b03168260000384039150816001600160801b031610610f33576040805162461bcd60e51b81526020600482015260026024820152614c5360f01b604482015290519081900360640190fd5b6101c5565b826001600160801b03168284019150816001600160801b031610156101c5576040805162461bcd60e51b81526020600482015260026024820152614c4160f01b604482015290519081900360640190fd5b60006401000276a36001600160a01b03831610801590610fc5575073fffd8963efd1fc6a506488495d951d5263988d266001600160a01b038316105b610ffa576040805162461bcd60e51b81526020600482015260016024820152602960f91b604482015290519081900360640190fd5b640100000000600160c01b03602083901b166001600160801b03811160071b81811c67ffffffffffffffff811160061b90811c63ffffffff811160051b90811c61ffff811160041b90811c60ff8111600390811b91821c600f811160021b90811c918211600190811b92831c9790881196179094179092171790911717176080811061108e57607f810383901c9150611098565b80607f0383901b91505b908002607f81811c60ff83811c9190911c800280831c81831c1c800280841c81841c1c800280851c81851c1c800280861c81861c1c800280871c81871c1c800280881c81881c1c800280891c81891c1c8002808a1c818a1c1c8002808b1c818b1c1c8002808c1c818c1c1c8002808d1c818d1c1c8002808e1c9c81901c9c909c1c80029c8d901c9e9d607f198f0160401b60c09190911c678000000000000000161760c19b909b1c674000000000000000169a909a1760c29990991c672000000000000000169890981760c39790971c671000000000000000169690961760c49590951c670800000000000000169490941760c59390931c670400000000000000169290921760c69190911c670200000000000000161760c79190911c670100000000000000161760c89190911c6680000000000000161760c99190911c6640000000000000161760ca9190911c6620000000000000161760cb9190911c6610000000000000161760cc9190911c6608000000000000161760cd9190911c66040000000000001617693627a301d71055774c8581026f028f6481ab7f045a5af012a19d003aa9198101608090811d906fdb2df09e81959a81455e260799a0632f8301901d600281810b9083900b1461129957886001600160a01b031661127d82611824565b6001600160a01b031611156112925781611294565b805b61129b565b815b9998505050505050505050565b6000610bce7f00000000000000000000000000000000000000000000000000000000000000006112d9868686611dfb565b611e51565b60008182601401101561132d576040805162461bcd60e51b8152602060048201526012602482015271746f416464726573735f6f766572666c6f7760701b604482015290519081900360640190fd5b816014018351101561137e576040805162461bcd60e51b8152602060048201526015602482015274746f416464726573735f6f75744f66426f756e647360581b604482015290519081900360640190fd5b500160200151600160601b900490565b6000818260030110156113dc576040805162461bcd60e51b8152602060048201526011602482015270746f55696e7432345f6f766572666c6f7760781b604482015290519081900360640190fd5b816003018351101561142c576040805162461bcd60e51b8152602060048201526014602482015273746f55696e7432345f6f75744f66426f756e647360601b604482015290519081900360640190fd5b50016003015190565b60608182601f011015611480576040805162461bcd60e51b815260206004820152600e60248201526d736c6963655f6f766572666c6f7760901b604482015290519081900360640190fd5b8282840110156114c8576040805162461bcd60e51b815260206004820152600e60248201526d736c6963655f6f766572666c6f7760901b604482015290519081900360640190fd5b81830184511015611514576040805162461bcd60e51b8152602060048201526011602482015270736c6963655f6f75744f66426f756e647360781b604482015290519081900360640190fd5b606082158015611533576040519150600082526020820160405261157d565b6040519150601f8416801560200281840101858101878315602002848b0101015b8183101561156c578051835260209283019201611554565b5050858452601f01601f1916604052505b50949350505050565b61158e61252e565b816001600160a01b031663ddca3f436040518163ffffffff1660e01b815260040160206040518083038186803b1580156115c757600080fd5b505afa1580156115db573d6000803e3d6000fd5b505050506040513d60208110156115f157600080fd5b505161ffff166040808301919091528051633850c7bd60e01b815290516001600160a01b03841691633850c7bd9160048083019260e0929190829003018186803b15801561163e57600080fd5b505afa158015611652573d6000803e3d6000fd5b505050506040513d60e081101561166857600080fd5b508051602091820151600290810b900b918301919091526001600160a01b03168152919050565b6000836116d857816001600160a01b0316836001600160a01b03161180156116d3575073fffd8963efd1fc6a506488495d951d5263988d266001600160a01b038416105b611706565b816001600160a01b0316836001600160a01b031610801561170657506401000276a36001600160a01b038416115b90508061175a576040805162461bcd60e51b815260206004820152601c60248201527f7371727450726963654c696d6974206f7574206f6620626f756e647300000000604482015290519081900360640190fd5b50505050565b6000816001600160a01b031663d0c93a7c6040518163ffffffff1660e01b815260040160206040518083038186803b15801561179b57600080fd5b505afa1580156117af573d6000803e3d6000fd5b505050506040513d60208110156117c557600080fd5b505192915050565b6000816001600160a01b0316631a6865026040518163ffffffff1660e01b815260040160206040518083038186803b15801561179b57600080fd5b60008061181786868686611f35565b9150915094509492505050565b60008060008360020b1261183b578260020b611843565b8260020b6000035b9050620d89e8811115611881576040805162461bcd60e51b81526020600482015260016024820152601560fa1b604482015290519081900360640190fd5b60006001821661189557600160801b6118a7565b6ffffcb933bd6fad37aa2d162d1a5940015b70ffffffffffffffffffffffffffffffffff16905060028216156118db576ffff97272373d413259a46990580e213a0260801c5b60048216156118fa576ffff2e50f5f656932ef12357cf3c7fdcc0260801c5b6008821615611919576fffe5caca7e10e4e61c3624eaa0941cd00260801c5b6010821615611938576fffcb9843d60f6159c9db58835c9266440260801c5b6020821615611957576fff973b41fa98c081472e6896dfb254c00260801c5b6040821615611976576fff2ea16466c96a3843ec78b326b528610260801c5b6080821615611995576ffe5dee046a99a2a811c461f1969c30530260801c5b6101008216156119b5576ffcbe86c7900a88aedcffc83b479aa3a40260801c5b6102008216156119d5576ff987a7253ac413176f2b074cf7815e540260801c5b6104008216156119f5576ff3392b0822b70005940c7a398e4b70f30260801c5b610800821615611a15576fe7159475a2c29b7443b29c7fa6e889d90260801c5b611000821615611a35576fd097f3bdfd2022b8845ad8f792aa58250260801c5b612000821615611a55576fa9f746462d870fdf8a65dc1f90e061e50260801c5b614000821615611a75576f70d869a156d2a1b890bb3df62baf32f70260801c5b618000821615611a95576f31be135f97d08fd981231505542fcfa60260801c5b62010000821615611ab6576f09aa508b5b7a84e1c677de54f3e99bc90260801c5b62020000821615611ad6576e5d6af8dedb81196699c329225ee6040260801c5b62040000821615611af5576d2216e584f5fa1ea926041bedfe980260801c5b62080000821615611b12576b048a170391f7dc42444e8fa20260801c5b60008460020b1315611b2d578060001981611b2957fe5b0490505b640100000000810615611b41576001611b44565b60005b60ff16602082901c0192505050919050565b6000808060001985870986860292508281109083900303905080611b8c5760008411611b8157600080fd5b508290049050610bd1565b808411611b9857600080fd5b6000848688096000868103871696879004966002600389028118808a02820302808a02820302808a02820302808a02820302808a02820302808a02909103029181900381900460010186841190950394909402919094039290920491909117919091029150509392505050565b6000836001600160a01b0316856001600160a01b03161115611c25579293925b81611c5257611c4d836001600160801b03168686036001600160a01b0316600160601b611b56565b611c75565b611c75836001600160801b03168686036001600160a01b0316600160601b611dc1565b95945050505050565b6000836001600160a01b0316856001600160a01b03161115611c9e579293925b600160601b600160e01b03606084901b166001600160a01b038686038116908716611cc857600080fd5b83611cf857866001600160a01b0316611ceb8383896001600160a01b0316611b56565b81611cf257fe5b04611d1e565b611d1e611d0f8383896001600160a01b0316611dc1565b886001600160a01b0316612133565b979650505050505050565b600080856001600160a01b031611611d4057600080fd5b6000846001600160801b031611611d5657600080fd5b81611d6857611c4d858585600161213e565b611c75858585600161221f565b600080856001600160a01b031611611d8c57600080fd5b6000846001600160801b031611611da257600080fd5b81611db457611c4d858585600061221f565b611c75858585600061213e565b6000611dce848484611b56565b905060008280611dda57fe5b8486091115610bd1576000198110611df157600080fd5b6001019392505050565b611e0361252e565b826001600160a01b0316846001600160a01b03161115611e21579192915b50604080516060810182526001600160a01b03948516815292909316602083015262ffffff169181019190915290565b600081602001516001600160a01b031682600001516001600160a01b031610611e7957600080fd5b50805160208083015160409384015184516001600160a01b0394851681850152939091168385015262ffffff166060808401919091528351808403820181526080840185528051908301206001600160f81b031960a085015294901b6bffffffffffffffffffffffff191660a183015260b58201939093527fe34f199b19b2b4f47f68442619d555527d244f78a3297ea89325f843f87b8b5460d5808301919091528251808303909101815260f5909101909152805191012090565b6000808581600286810b9088900b81611f4a57fe5b05905060008760020b128015611f7157508560020b8760020b81611f6a57fe5b0760020b15155b15611f7b57600019015b841561205257600080611f8d83612302565b6040805163299ce14b60e11b8152600184810b6004830152915193955091935060ff84161b8001600019019160009183916001600160a01b03891691635339c296916024808301926020929190829003018186803b158015611fee57600080fd5b505afa158015612002573d6000803e3d6000fd5b505050506040513d602081101561201857600080fd5b505116801515975090508661203457898360ff16860302612047565b8961203e82612314565b840360ff168603025b975050505050612128565b60008061206183600101612302565b91509150600060018260ff166001901b03199050600081866001600160a01b0316635339c296866040518263ffffffff1660e01b8152600401808260010b815260200191505060206040518083038186803b1580156120bf57600080fd5b505afa1580156120d3573d6000803e3d6000fd5b505050506040513d60208110156120e957600080fd5b505116801515975090508661210b57898360ff0360ff16866001010102612121565b8983612116836123b4565b0360ff168660010101025b9750505050505b505094509492505050565b808204910615150190565b600081156121b15760006001600160a01b038411156121745761216f84600160601b876001600160801b0316611b56565b61218c565b6001600160801b038516606085901b8161218a57fe5b045b90506121a96121a46001600160a01b0388168361249e565b6124ae565b915050610842565b60006001600160a01b038411156121df576121da84600160601b876001600160801b0316611dc1565b6121f6565b6121f6606085901b6001600160801b038716612133565b905080866001600160a01b03161161220d57600080fd5b6001600160a01b038616039050610842565b60008261222d575083610842565b600160601b600160e01b03606085901b1682156122bb576001600160a01b0386168481029085828161225b57fe5b04141561228c5781810182811061228a5761228083896001600160a01b031683611dc1565b9350505050610842565b505b6122b2826122ad878a6001600160a01b031686816122a657fe5b049061249e565b612133565b92505050610842565b6001600160a01b038616848102908582816122d257fe5b041480156122df57508082115b6122e857600080fd5b8082036122806121a4846001600160a01b038b1684611dc1565b60020b600881901d9161010090910790565b600080821161232257600080fd5b600160801b821061233557608091821c91015b68010000000000000000821061234d57604091821c91015b640100000000821061236157602091821c91015b62010000821061237357601091821c91015b610100821061238457600891821c91015b6010821061239457600491821c91015b600482106123a457600291821c91015b6002821061052f57600101919050565b60008082116123c257600080fd5b5060ff6001600160801b038216156123dd57607f19016123e5565b608082901c91505b67ffffffffffffffff8216156123fe57603f1901612406565b604082901c91505b63ffffffff82161561241b57601f1901612423565b602082901c91505b61ffff82161561243657600f190161243e565b601082901c91505b60ff8216156124505760071901612458565b600882901c91505b600f82161561246a5760031901612472565b600482901c91505b6003821615612484576001190161248c565b600282901c91505b600182161561052f5760001901919050565b808201828110156101c557600080fd5b806001600160a01b038116811461052f57600080fd5b6040805160e081018252600080825260208201819052918101829052606081018290526080810182905260a0810182905260c081019190915290565b6040805160a08101825260008082526020820181905291810182905260608101829052608081019190915290565b604080516060810182526000808252602082018190529181019190915290565b600060a0828403121561255f578081fd5b60405160a0810181811067ffffffffffffffff8211171561257c57fe5b604052905080823561258d8161279c565b8152602083013561259d8161279c565b60208201526040838101359082015260608301356125ba816127b4565b606082015260808301356125cd8161279c565b6080919091015292915050565b6000602082840312156125eb578081fd5b8151610bd18161279c565b6000806000806080858703121561260b578283fd5b84356126168161279c565b935060208501356126268161279c565b925060408501356126368161279c565b9396929550929360600135925050565b6000806000806080858703121561265b578384fd5b84356126668161279c565b93506020850135801515811461267a578384fd5b92506040850135915060608501356126918161279c565b939692955090935050565b600080604083850312156126ae578182fd5b823567ffffffffffffffff808211156126c5578384fd5b818501915085601f8301126126d8578384fd5b81356020828211156126e657fe5b6126f8601f8301601f19168201612778565b9250818352878183860101111561270d578586fd5b818185018285013790820181019490945295939092013593505050565b600060a0828403121561273b578081fd5b610bd1838361254e565b600060208284031215612756578081fd5b8151610bd1816127b4565b918252602082015260400190565b90815260200190565b60405181810167ffffffffffffffff8111828210171561279457fe5b604052919050565b6001600160a01b03811681146127b157600080fd5b50565b62ffffff811681146127b157600080fdfea264697066735822122054ba7c7fc27e4b8851854201705bbbd884f0e3b7c6637b75aedeea8f52c9cef864736f6c63430007060033","opcodes":"PUSH1 0xA0 PUSH1 0x40 MSTORE CALLVALUE DUP1 ISZERO PUSH3 0x11 JUMPI PUSH1 0x0 DUP1 REVERT JUMPDEST POP PUSH1 0x40 MLOAD PUSH3 0x2893 CODESIZE SUB DUP1 PUSH3 0x2893 DUP4 CODECOPY DUP2 ADD PUSH1 0x40 DUP2 SWAP1 MSTORE PUSH3 0x34 SWAP2 PUSH3 0x4A JUMP JUMPDEST PUSH1 0x60 SHL PUSH1 0x1 PUSH1 0x1 PUSH1 0x60 SHL SUB NOT AND PUSH1 0x80 MSTORE PUSH3 0x7A JUMP JUMPDEST PUSH1 0x0 PUSH1 0x20 DUP3 DUP5 SUB SLT ISZERO PUSH3 0x5C JUMPI DUP1 DUP2 REVERT JUMPDEST DUP2 MLOAD PUSH1 0x1 PUSH1 0x1 PUSH1 0xA0 SHL SUB DUP2 AND DUP2 EQ PUSH3 0x73 JUMPI DUP2 DUP3 REVERT JUMPDEST SWAP4 SWAP3 POP POP POP JUMP JUMPDEST PUSH1 0x80 MLOAD PUSH1 0x60 SHR PUSH2 0x27FB PUSH3 0x98 PUSH1 0x0 CODECOPY DUP1 PUSH2 0x12AF MSTORE POP PUSH2 0x27FB PUSH1 0x0 RETURN INVALID PUSH1 0x80 PUSH1 0x40 MSTORE CALLVALUE DUP1 ISZERO PUSH2 0x10 JUMPI PUSH1 0x0 DUP1 REVERT JUMPDEST POP PUSH1 0x4 CALLDATASIZE LT PUSH2 0x7D JUMPI PUSH1 0x0 CALLDATALOAD PUSH1 0xE0 SHR DUP1 PUSH4 0xC6A5026A GT PUSH2 0x5B JUMPI DUP1 PUSH4 0xC6A5026A EQ PUSH2 0xDF JUMPI DUP1 PUSH4 0xCDCA1753 EQ PUSH2 0xF2 JUMPI DUP1 PUSH4 0xD7176CA9 EQ PUSH2 0x105 JUMPI DUP1 PUSH4 0xEC278309 EQ PUSH2 0x118 JUMPI PUSH2 0x7D JUMP JUMPDEST DUP1 PUSH4 0x2F80BB1D EQ PUSH2 0x82 JUMPI DUP1 PUSH4 0x90405D36 EQ PUSH2 0xAB JUMPI DUP1 PUSH4 0xBD21704A EQ PUSH2 0xCC JUMPI JUMPDEST PUSH1 0x0 DUP1 REVERT JUMPDEST PUSH2 0x95 PUSH2 0x90 CALLDATASIZE PUSH1 0x4 PUSH2 0x269C JUMP JUMPDEST PUSH2 0x12B JUMP JUMPDEST PUSH1 0x40 MLOAD PUSH2 0xA2 SWAP2 SWAP1 PUSH2 0x276F JUMP JUMPDEST PUSH1 0x40 MLOAD DUP1 SWAP2 SUB SWAP1 RETURN JUMPDEST PUSH2 0xBE PUSH2 0xB9 CALLDATASIZE PUSH1 0x4 PUSH2 0x2646 JUMP JUMPDEST PUSH2 0x1CB JUMP JUMPDEST PUSH1 0x40 MLOAD PUSH2 0xA2 SWAP3 SWAP2 SWAP1 PUSH2 0x2761 JUMP JUMPDEST PUSH2 0x95 PUSH2 0xDA CALLDATASIZE PUSH1 0x4 PUSH2 0x272A JUMP JUMPDEST PUSH2 0x489 JUMP JUMPDEST PUSH2 0x95 PUSH2 0xED CALLDATASIZE PUSH1 0x4 PUSH2 0x272A JUMP JUMPDEST PUSH2 0x534 JUMP JUMPDEST PUSH2 0x95 PUSH2 0x100 CALLDATASIZE PUSH1 0x4 PUSH2 0x269C JUMP JUMPDEST PUSH2 0x5B1 JUMP JUMPDEST PUSH2 0x95 PUSH2 0x113 CALLDATASIZE PUSH1 0x4 PUSH2 0x25F6 JUMP JUMPDEST PUSH2 0x63B JUMP JUMPDEST PUSH2 0x95 PUSH2 0x126 CALLDATASIZE PUSH1 0x4 PUSH2 0x25F6 JUMP JUMPDEST PUSH2 0x84A JUMP JUMPDEST PUSH1 0x0 JUMPDEST PUSH1 0x0 DUP1 PUSH1 0x0 PUSH2 0x13C DUP7 PUSH2 0xA4B JUMP JUMPDEST SWAP3 POP SWAP3 POP SWAP3 POP PUSH2 0x192 PUSH1 0x40 MLOAD DUP1 PUSH1 0xA0 ADD PUSH1 0x40 MSTORE DUP1 DUP5 PUSH1 0x1 PUSH1 0x1 PUSH1 0xA0 SHL SUB AND DUP2 MSTORE PUSH1 0x20 ADD DUP6 PUSH1 0x1 PUSH1 0x1 PUSH1 0xA0 SHL SUB AND DUP2 MSTORE PUSH1 0x20 ADD DUP8 DUP2 MSTORE PUSH1 0x20 ADD DUP4 PUSH3 0xFFFFFF AND DUP2 MSTORE PUSH1 0x20 ADD PUSH1 0x0 PUSH1 0x1 PUSH1 0x1 PUSH1 0xA0 SHL SUB AND DUP2 MSTORE POP PUSH2 0x489 JUMP JUMPDEST SWAP5 POP PUSH2 0x19D DUP7 PUSH2 0xA7C JUMP JUMPDEST ISZERO PUSH2 0x1B2 JUMPI PUSH2 0x1AB DUP7 PUSH2 0xA84 JUMP JUMPDEST SWAP6 POP PUSH2 0x1BD JUMP JUMPDEST DUP5 SWAP4 POP POP POP POP PUSH2 0x1C5 JUMP JUMPDEST POP POP POP PUSH2 0x12E JUMP JUMPDEST SWAP3 SWAP2 POP POP JUMP JUMPDEST PUSH1 0x0 DUP1 DUP4 PUSH2 0x220 JUMPI PUSH1 0x40 DUP1 MLOAD PUSH3 0x461BCD PUSH1 0xE5 SHL DUP2 MSTORE PUSH1 0x20 PUSH1 0x4 DUP3 ADD MSTORE PUSH1 0x1E PUSH1 0x24 DUP3 ADD MSTORE PUSH32 0x616D6F756E745370656369666965642063616E6E6F74206265207A65726F0000 PUSH1 0x44 DUP3 ADD MSTORE SWAP1 MLOAD SWAP1 DUP2 SWAP1 SUB PUSH1 0x64 ADD SWAP1 REVERT JUMPDEST PUSH1 0x0 DUP1 DUP6 SGT SWAP1 DUP1 DUP1 PUSH2 0x234 DUP11 DUP11 DUP11 DUP11 PUSH2 0xA9B JUMP JUMPDEST SWAP3 POP SWAP3 POP SWAP3 POP JUMPDEST DUP1 MLOAD ISZERO DUP1 ISZERO SWAP1 PUSH2 0x261 JUMPI POP DUP7 PUSH1 0x1 PUSH1 0x1 PUSH1 0xA0 SHL SUB AND DUP2 PUSH1 0x40 ADD MLOAD PUSH1 0x1 PUSH1 0x1 PUSH1 0xA0 SHL SUB AND EQ ISZERO JUMPDEST ISZERO PUSH2 0x452 JUMPI PUSH2 0x26E PUSH2 0x24C4 JUMP JUMPDEST PUSH1 0x40 DUP3 ADD MLOAD PUSH1 0x1 PUSH1 0x1 PUSH1 0xA0 SHL SUB AND DUP2 MSTORE PUSH1 0x60 DUP3 ADD MLOAD PUSH2 0x290 SWAP1 DUP13 SWAP1 DUP7 DUP14 PUSH2 0xB2E JUMP JUMPDEST PUSH1 0x1 PUSH1 0x1 PUSH1 0xA0 SHL SUB AND PUSH1 0x60 DUP5 ADD DUP2 SWAP1 MSTORE SWAP1 ISZERO ISZERO PUSH1 0x40 DUP1 DUP6 ADD SWAP2 SWAP1 SWAP2 MSTORE PUSH1 0x2 SWAP3 DUP4 SIGNEXTEND SWAP1 SWAP3 SIGNEXTEND PUSH1 0x20 DUP5 ADD MSTORE SWAP1 DUP4 ADD MLOAD PUSH2 0x2DE SWAP2 PUSH2 0x2CD SWAP1 DUP14 SWAP1 DUP13 PUSH2 0xB8B JUMP JUMPDEST PUSH1 0x80 DUP6 ADD MLOAD DUP6 MLOAD PUSH2 0xFFFF DUP9 AND PUSH2 0xBD8 JUMP JUMPDEST PUSH1 0xC0 DUP6 ADD MSTORE PUSH1 0xA0 DUP5 ADD MSTORE PUSH1 0x80 DUP4 ADD MSTORE PUSH1 0x1 PUSH1 0x1 PUSH1 0xA0 SHL SUB AND PUSH1 0x40 DUP4 ADD MSTORE DUP5 ISZERO PUSH2 0x340 JUMPI PUSH2 0x314 DUP2 PUSH1 0xC0 ADD MLOAD DUP3 PUSH1 0x80 ADD MLOAD ADD PUSH2 0xDCA JUMP JUMPDEST DUP3 MLOAD SUB DUP3 MSTORE PUSH1 0xA0 DUP2 ADD MLOAD PUSH2 0x336 SWAP1 PUSH2 0x32B SWAP1 PUSH2 0xDCA JUMP JUMPDEST PUSH1 0x20 DUP5 ADD MLOAD SWAP1 PUSH2 0xDE0 JUMP JUMPDEST PUSH1 0x20 DUP4 ADD MSTORE PUSH2 0x37B JUMP JUMPDEST PUSH2 0x34D DUP2 PUSH1 0xA0 ADD MLOAD PUSH2 0xDCA JUMP JUMPDEST DUP3 MLOAD ADD DUP3 MSTORE PUSH1 0xC0 DUP2 ADD MLOAD PUSH1 0x80 DUP3 ADD MLOAD PUSH2 0x375 SWAP2 PUSH2 0x36A SWAP2 ADD PUSH2 0xDCA JUMP JUMPDEST PUSH1 0x20 DUP5 ADD MLOAD SWAP1 PUSH2 0xDF6 JUMP JUMPDEST PUSH1 0x20 DUP4 ADD MSTORE JUMPDEST DUP1 PUSH1 0x60 ADD MLOAD PUSH1 0x1 PUSH1 0x1 PUSH1 0xA0 SHL SUB AND DUP3 PUSH1 0x40 ADD MLOAD PUSH1 0x1 PUSH1 0x1 PUSH1 0xA0 SHL SUB AND EQ ISZERO PUSH2 0x411 JUMPI DUP1 PUSH1 0x40 ADD MLOAD ISZERO PUSH2 0x3E8 JUMPI PUSH1 0x0 PUSH2 0x3B7 DUP13 DUP4 PUSH1 0x20 ADD MLOAD PUSH2 0xE0C JUMP JUMPDEST POP POP POP POP POP POP SWAP2 POP POP DUP11 ISZERO PUSH2 0x3CA JUMPI PUSH1 0x0 SUB JUMPDEST PUSH2 0x3D8 DUP4 PUSH1 0x80 ADD MLOAD DUP3 PUSH2 0xED3 JUMP JUMPDEST PUSH1 0x1 PUSH1 0x1 PUSH1 0x80 SHL SUB AND PUSH1 0x80 DUP5 ADD MSTORE POP JUMPDEST DUP10 PUSH2 0x3F7 JUMPI DUP1 PUSH1 0x20 ADD MLOAD PUSH2 0x400 JUMP JUMPDEST PUSH1 0x1 DUP2 PUSH1 0x20 ADD MLOAD SUB JUMPDEST PUSH1 0x2 SWAP1 DUP2 SIGNEXTEND SWAP1 SIGNEXTEND PUSH1 0x60 DUP4 ADD MSTORE PUSH2 0x44C JUMP JUMPDEST DUP1 PUSH1 0x0 ADD MLOAD PUSH1 0x1 PUSH1 0x1 PUSH1 0xA0 SHL SUB AND DUP3 PUSH1 0x40 ADD MLOAD PUSH1 0x1 PUSH1 0x1 PUSH1 0xA0 SHL SUB AND EQ PUSH2 0x44C JUMPI PUSH2 0x43F DUP3 PUSH1 0x40 ADD MLOAD PUSH2 0xF89 JUMP JUMPDEST PUSH1 0x2 SWAP1 DUP2 SIGNEXTEND SWAP1 SIGNEXTEND PUSH1 0x60 DUP4 ADD MSTORE JUMPDEST POP PUSH2 0x23B JUMP JUMPDEST DUP4 ISZERO ISZERO DUP10 ISZERO ISZERO EQ PUSH2 0x46B JUMPI PUSH1 0x20 DUP2 ADD MLOAD DUP2 MLOAD DUP10 SUB PUSH2 0x478 JUMP JUMPDEST DUP1 PUSH1 0x0 ADD MLOAD DUP9 SUB DUP2 PUSH1 0x20 ADD MLOAD JUMPDEST SWAP1 SWAP12 SWAP1 SWAP11 POP SWAP9 POP POP POP POP POP POP POP POP POP JUMP JUMPDEST PUSH1 0x20 DUP2 ADD MLOAD DUP2 MLOAD PUSH1 0x60 DUP4 ADD MLOAD PUSH1 0x0 SWAP3 PUSH1 0x1 PUSH1 0x1 PUSH1 0xA0 SHL SUB DUP1 DUP3 AND SWAP1 DUP5 AND LT SWAP3 DUP5 SWAP3 PUSH2 0x4B4 SWAP3 SWAP1 PUSH2 0x12A8 JUMP JUMPDEST SWAP1 POP PUSH1 0x0 DUP1 PUSH2 0x517 DUP4 DUP6 PUSH2 0x4CB DUP10 PUSH1 0x40 ADD MLOAD PUSH2 0xDCA JUMP JUMPDEST PUSH1 0x0 SUB DUP10 PUSH1 0x80 ADD MLOAD PUSH1 0x1 PUSH1 0x1 PUSH1 0xA0 SHL SUB AND PUSH1 0x0 EQ PUSH2 0x4ED JUMPI DUP10 PUSH1 0x80 ADD MLOAD PUSH2 0xB9 JUMP JUMPDEST DUP8 PUSH2 0x50C JUMPI PUSH20 0xFFFD8963EFD1FC6A506488495D951D5263988D25 PUSH2 0xB9 JUMP JUMPDEST PUSH5 0x1000276A4 PUSH2 0x1CB JUMP JUMPDEST SWAP2 POP SWAP2 POP DUP4 PUSH2 0x526 JUMPI DUP1 PUSH2 0x528 JUMP JUMPDEST DUP2 JUMPDEST SWAP5 POP POP POP POP POP JUMPDEST SWAP2 SWAP1 POP JUMP JUMPDEST PUSH1 0x20 DUP2 ADD MLOAD DUP2 MLOAD PUSH1 0x60 DUP4 ADD MLOAD PUSH1 0x0 SWAP3 PUSH1 0x1 PUSH1 0x1 PUSH1 0xA0 SHL SUB DUP1 DUP3 AND SWAP1 DUP5 AND LT SWAP3 DUP5 SWAP3 PUSH2 0x55F SWAP3 SWAP1 PUSH2 0x12A8 JUMP JUMPDEST SWAP1 POP PUSH1 0x0 DUP1 PUSH2 0x593 DUP4 DUP6 PUSH2 0x576 DUP10 PUSH1 0x40 ADD MLOAD PUSH2 0xDCA JUMP JUMPDEST PUSH1 0x80 DUP11 ADD MLOAD PUSH1 0x1 PUSH1 0x1 PUSH1 0xA0 SHL SUB AND ISZERO PUSH2 0x4ED JUMPI DUP10 PUSH1 0x80 ADD MLOAD PUSH2 0xB9 JUMP JUMPDEST SWAP2 POP SWAP2 POP DUP4 PUSH2 0x5A5 JUMPI DUP2 PUSH1 0x0 SUB PUSH2 0x528 JUMP JUMPDEST PUSH1 0x0 SUB SWAP6 SWAP5 POP POP POP POP POP JUMP JUMPDEST PUSH1 0x0 JUMPDEST PUSH1 0x0 DUP1 PUSH1 0x0 PUSH2 0x5C2 DUP7 PUSH2 0xA4B JUMP JUMPDEST SWAP3 POP SWAP3 POP SWAP3 POP PUSH2 0x618 PUSH1 0x40 MLOAD DUP1 PUSH1 0xA0 ADD PUSH1 0x40 MSTORE DUP1 DUP6 PUSH1 0x1 PUSH1 0x1 PUSH1 0xA0 SHL SUB AND DUP2 MSTORE PUSH1 0x20 ADD DUP5 PUSH1 0x1 PUSH1 0x1 PUSH1 0xA0 SHL SUB AND DUP2 MSTORE PUSH1 0x20 ADD DUP8 DUP2 MSTORE PUSH1 0x20 ADD DUP4 PUSH3 0xFFFFFF AND DUP2 MSTORE PUSH1 0x20 ADD PUSH1 0x0 PUSH1 0x1 PUSH1 0x1 PUSH1 0xA0 SHL SUB AND DUP2 MSTORE POP PUSH2 0x534 JUMP JUMPDEST SWAP5 POP PUSH2 0x623 DUP7 PUSH2 0xA7C JUMP JUMPDEST ISZERO PUSH2 0x1B2 JUMPI PUSH2 0x631 DUP7 PUSH2 0xA84 JUMP JUMPDEST SWAP6 POP POP POP POP PUSH2 0x5B4 JUMP JUMPDEST PUSH1 0x0 DUP3 DUP2 DUP1 PUSH1 0x1 PUSH1 0x1 PUSH1 0xA0 SHL SUB DUP1 DUP9 AND SWAP1 DUP10 AND GT PUSH2 0x65A JUMPI DUP7 DUP9 PUSH2 0x65D JUMP JUMPDEST DUP8 DUP8 JUMPDEST SWAP2 POP SWAP2 POP DUP2 PUSH1 0x1 PUSH1 0x1 PUSH1 0xA0 SHL SUB AND DUP4 PUSH1 0x1 PUSH1 0x1 PUSH1 0xA0 SHL SUB AND PUSH4 0xDFE1681 PUSH1 0x40 MLOAD DUP2 PUSH4 0xFFFFFFFF AND PUSH1 0xE0 SHL DUP2 MSTORE PUSH1 0x4 ADD PUSH1 0x20 PUSH1 0x40 MLOAD DUP1 DUP4 SUB DUP2 DUP7 DUP1 EXTCODESIZE ISZERO DUP1 ISZERO PUSH2 0x6A4 JUMPI PUSH1 0x0 DUP1 REVERT JUMPDEST POP GAS STATICCALL ISZERO DUP1 ISZERO PUSH2 0x6B8 JUMPI RETURNDATASIZE PUSH1 0x0 DUP1 RETURNDATACOPY RETURNDATASIZE PUSH1 0x0 REVERT JUMPDEST POP POP POP POP PUSH1 0x40 MLOAD RETURNDATASIZE PUSH1 0x1F NOT PUSH1 0x1F DUP3 ADD AND DUP3 ADD DUP1 PUSH1 0x40 MSTORE POP DUP2 ADD SWAP1 PUSH2 0x6DC SWAP2 SWAP1 PUSH2 0x25DA JUMP JUMPDEST PUSH1 0x1 PUSH1 0x1 PUSH1 0xA0 SHL SUB AND EQ ISZERO DUP1 PUSH2 0x774 JUMPI POP DUP1 PUSH1 0x1 PUSH1 0x1 PUSH1 0xA0 SHL SUB AND DUP4 PUSH1 0x1 PUSH1 0x1 PUSH1 0xA0 SHL SUB AND PUSH4 0xD21220A7 PUSH1 0x40 MLOAD DUP2 PUSH4 0xFFFFFFFF AND PUSH1 0xE0 SHL DUP2 MSTORE PUSH1 0x4 ADD PUSH1 0x20 PUSH1 0x40 MLOAD DUP1 DUP4 SUB DUP2 DUP7 DUP1 EXTCODESIZE ISZERO DUP1 ISZERO PUSH2 0x730 JUMPI PUSH1 0x0 DUP1 REVERT JUMPDEST POP GAS STATICCALL ISZERO DUP1 ISZERO PUSH2 0x744 JUMPI RETURNDATASIZE PUSH1 0x0 DUP1 RETURNDATACOPY RETURNDATASIZE PUSH1 0x0 REVERT JUMPDEST POP POP POP POP PUSH1 0x40 MLOAD RETURNDATASIZE PUSH1 0x1F NOT PUSH1 0x1F DUP3 ADD AND DUP3 ADD DUP1 PUSH1 0x40 MSTORE POP DUP2 ADD SWAP1 PUSH2 0x768 SWAP2 SWAP1 PUSH2 0x25DA JUMP JUMPDEST PUSH1 0x1 PUSH1 0x1 PUSH1 0xA0 SHL SUB AND EQ ISZERO JUMPDEST ISZERO PUSH2 0x785 JUMPI PUSH1 0x0 SWAP4 POP POP POP POP PUSH2 0x842 JUMP JUMPDEST PUSH2 0x83C PUSH1 0x40 MLOAD DUP1 PUSH1 0xA0 ADD PUSH1 0x40 MSTORE DUP1 DUP11 PUSH1 0x1 PUSH1 0x1 PUSH1 0xA0 SHL SUB AND DUP2 MSTORE PUSH1 0x20 ADD DUP10 PUSH1 0x1 PUSH1 0x1 PUSH1 0xA0 SHL SUB AND DUP2 MSTORE PUSH1 0x20 ADD DUP8 DUP2 MSTORE PUSH1 0x20 ADD DUP6 PUSH1 0x1 PUSH1 0x1 PUSH1 0xA0 SHL SUB AND PUSH4 0xDDCA3F43 PUSH1 0x40 MLOAD DUP2 PUSH4 0xFFFFFFFF AND PUSH1 0xE0 SHL DUP2 MSTORE PUSH1 0x4 ADD PUSH1 0x20 PUSH1 0x40 MLOAD DUP1 DUP4 SUB DUP2 DUP7 DUP1 EXTCODESIZE ISZERO DUP1 ISZERO PUSH2 0x7F0 JUMPI PUSH1 0x0 DUP1 REVERT JUMPDEST POP GAS STATICCALL ISZERO DUP1 ISZERO PUSH2 0x804 JUMPI RETURNDATASIZE PUSH1 0x0 DUP1 RETURNDATACOPY RETURNDATASIZE PUSH1 0x0 REVERT JUMPDEST POP POP POP POP PUSH1 0x40 MLOAD RETURNDATASIZE PUSH1 0x1F NOT PUSH1 0x1F DUP3 ADD AND DUP3 ADD DUP1 PUSH1 0x40 MSTORE POP DUP2 ADD SWAP1 PUSH2 0x828 SWAP2 SWAP1 PUSH2 0x2745 JUMP JUMPDEST PUSH3 0xFFFFFF AND DUP2 MSTORE PUSH1 0x0 PUSH1 0x20 SWAP1 SWAP2 ADD MSTORE PUSH2 0x534 JUMP JUMPDEST SWAP4 POP POP POP POP JUMPDEST SWAP5 SWAP4 POP POP POP POP JUMP JUMPDEST PUSH1 0x0 DUP3 DUP2 DUP1 PUSH1 0x1 PUSH1 0x1 PUSH1 0xA0 SHL SUB DUP1 DUP9 AND SWAP1 DUP10 AND GT PUSH2 0x869 JUMPI DUP7 DUP9 PUSH2 0x86C JUMP JUMPDEST DUP8 DUP8 JUMPDEST SWAP2 POP SWAP2 POP DUP2 PUSH1 0x1 PUSH1 0x1 PUSH1 0xA0 SHL SUB AND DUP4 PUSH1 0x1 PUSH1 0x1 PUSH1 0xA0 SHL SUB AND PUSH4 0xDFE1681 PUSH1 0x40 MLOAD DUP2 PUSH4 0xFFFFFFFF AND PUSH1 0xE0 SHL DUP2 MSTORE PUSH1 0x4 ADD PUSH1 0x20 PUSH1 0x40 MLOAD DUP1 DUP4 SUB DUP2 DUP7 DUP1 EXTCODESIZE ISZERO DUP1 ISZERO PUSH2 0x8B3 JUMPI PUSH1 0x0 DUP1 REVERT JUMPDEST POP GAS STATICCALL ISZERO DUP1 ISZERO PUSH2 0x8C7 JUMPI RETURNDATASIZE PUSH1 0x0 DUP1 RETURNDATACOPY RETURNDATASIZE PUSH1 0x0 REVERT JUMPDEST POP POP POP POP PUSH1 0x40 MLOAD RETURNDATASIZE PUSH1 0x1F NOT PUSH1 0x1F DUP3 ADD AND DUP3 ADD DUP1 PUSH1 0x40 MSTORE POP DUP2 ADD SWAP1 PUSH2 0x8EB SWAP2 SWAP1 PUSH2 0x25DA JUMP JUMPDEST PUSH1 0x1 PUSH1 0x1 PUSH1 0xA0 SHL SUB AND EQ ISZERO DUP1 PUSH2 0x983 JUMPI POP DUP1 PUSH1 0x1 PUSH1 0x1 PUSH1 0xA0 SHL SUB AND DUP4 PUSH1 0x1 PUSH1 0x1 PUSH1 0xA0 SHL SUB AND PUSH4 0xD21220A7 PUSH1 0x40 MLOAD DUP2 PUSH4 0xFFFFFFFF AND PUSH1 0xE0 SHL DUP2 MSTORE PUSH1 0x4 ADD PUSH1 0x20 PUSH1 0x40 MLOAD DUP1 DUP4 SUB DUP2 DUP7 DUP1 EXTCODESIZE ISZERO DUP1 ISZERO PUSH2 0x93F JUMPI PUSH1 0x0 DUP1 REVERT JUMPDEST POP GAS STATICCALL ISZERO DUP1 ISZERO PUSH2 0x953 JUMPI RETURNDATASIZE PUSH1 0x0 DUP1 RETURNDATACOPY RETURNDATASIZE PUSH1 0x0 REVERT JUMPDEST POP POP POP POP PUSH1 0x40 MLOAD RETURNDATASIZE PUSH1 0x1F NOT PUSH1 0x1F DUP3 ADD AND DUP3 ADD DUP1 PUSH1 0x40 MSTORE POP DUP2 ADD SWAP1 PUSH2 0x977 SWAP2 SWAP1 PUSH2 0x25DA JUMP JUMPDEST PUSH1 0x1 PUSH1 0x1 PUSH1 0xA0 SHL SUB AND EQ ISZERO JUMPDEST ISZERO PUSH2 0x994 JUMPI PUSH1 0x0 SWAP4 POP POP POP POP PUSH2 0x842 JUMP JUMPDEST PUSH2 0x83C PUSH1 0x40 MLOAD DUP1 PUSH1 0xA0 ADD PUSH1 0x40 MSTORE DUP1 DUP11 PUSH1 0x1 PUSH1 0x1 PUSH1 0xA0 SHL SUB AND DUP2 MSTORE PUSH1 0x20 ADD DUP10 PUSH1 0x1 PUSH1 0x1 PUSH1 0xA0 SHL SUB AND DUP2 MSTORE PUSH1 0x20 ADD DUP8 DUP2 MSTORE PUSH1 0x20 ADD DUP6 PUSH1 0x1 PUSH1 0x1 PUSH1 0xA0 SHL SUB AND PUSH4 0xDDCA3F43 PUSH1 0x40 MLOAD DUP2 PUSH4 0xFFFFFFFF AND PUSH1 0xE0 SHL DUP2 MSTORE PUSH1 0x4 ADD PUSH1 0x20 PUSH1 0x40 MLOAD DUP1 DUP4 SUB DUP2 DUP7 DUP1 EXTCODESIZE ISZERO DUP1 ISZERO PUSH2 0x9FF JUMPI PUSH1 0x0 DUP1 REVERT JUMPDEST POP GAS STATICCALL ISZERO DUP1 ISZERO PUSH2 0xA13 JUMPI RETURNDATASIZE PUSH1 0x0 DUP1 RETURNDATACOPY RETURNDATASIZE PUSH1 0x0 REVERT JUMPDEST POP POP POP POP PUSH1 0x40 MLOAD RETURNDATASIZE PUSH1 0x1F NOT PUSH1 0x1F DUP3 ADD AND DUP3 ADD DUP1 PUSH1 0x40 MSTORE POP DUP2 ADD SWAP1 PUSH2 0xA37 SWAP2 SWAP1 PUSH2 0x2745 JUMP JUMPDEST PUSH3 0xFFFFFF AND DUP2 MSTORE PUSH1 0x0 PUSH1 0x20 SWAP1 SWAP2 ADD MSTORE PUSH2 0x489 JUMP JUMPDEST PUSH1 0x0 DUP1 DUP1 PUSH2 0xA59 DUP5 DUP3 PUSH2 0x12DE JUMP JUMPDEST SWAP3 POP PUSH2 0xA66 DUP5 PUSH1 0x14 PUSH2 0x138E JUMP JUMPDEST SWAP1 POP PUSH2 0xA73 DUP5 PUSH1 0x17 PUSH2 0x12DE JUMP JUMPDEST SWAP2 POP SWAP2 SWAP4 SWAP1 SWAP3 POP JUMP JUMPDEST MLOAD PUSH1 0x42 GT ISZERO SWAP1 JUMP JUMPDEST DUP1 MLOAD PUSH1 0x60 SWAP1 PUSH2 0x1C5 SWAP1 DUP4 SWAP1 PUSH1 0x17 SWAP1 PUSH1 0x16 NOT ADD PUSH2 0x1435 JUMP JUMPDEST PUSH1 0x0 DUP1 PUSH2 0xAA6 PUSH2 0x2500 JUMP JUMPDEST PUSH1 0x0 PUSH2 0xAB1 DUP9 PUSH2 0x1586 JUMP JUMPDEST SWAP1 POP PUSH2 0xAC2 DUP8 DUP7 DUP4 PUSH1 0x0 ADD MLOAD PUSH2 0x168F JUMP JUMPDEST PUSH2 0xACB DUP9 PUSH2 0x1760 JUMP JUMPDEST SWAP4 POP DUP1 PUSH1 0x40 ADD MLOAD SWAP3 POP PUSH1 0x40 MLOAD DUP1 PUSH1 0xA0 ADD PUSH1 0x40 MSTORE DUP1 DUP8 DUP2 MSTORE PUSH1 0x20 ADD PUSH1 0x0 DUP2 MSTORE PUSH1 0x20 ADD DUP3 PUSH1 0x0 ADD MLOAD PUSH1 0x1 PUSH1 0x1 PUSH1 0xA0 SHL SUB AND DUP2 MSTORE PUSH1 0x20 ADD DUP3 PUSH1 0x20 ADD MLOAD PUSH1 0x2 SIGNEXTEND DUP2 MSTORE PUSH1 0x20 ADD PUSH2 0xB15 DUP11 PUSH2 0x17CD JUMP JUMPDEST PUSH1 0x1 PUSH1 0x1 PUSH1 0x80 SHL SUB AND DUP2 MSTORE POP SWAP2 POP POP SWAP5 POP SWAP5 POP SWAP5 SWAP2 POP POP JUMP JUMPDEST PUSH1 0x0 DUP1 PUSH1 0x0 PUSH2 0xB3F DUP8 DUP8 DUP8 DUP8 PUSH2 0x1808 JUMP JUMPDEST SWAP1 SWAP4 POP SWAP2 POP PUSH3 0xD89E7 NOT PUSH1 0x2 DUP5 SWAP1 SIGNEXTEND SLT ISZERO PUSH2 0xB60 JUMPI PUSH3 0xD89E7 NOT SWAP3 POP PUSH2 0xB76 JUMP JUMPDEST PUSH3 0xD89E8 PUSH1 0x2 DUP5 SWAP1 SIGNEXTEND SGT ISZERO PUSH2 0xB76 JUMPI PUSH3 0xD89E8 SWAP3 POP JUMPDEST PUSH2 0xB7F DUP4 PUSH2 0x1824 JUMP JUMPDEST SWAP1 POP SWAP5 POP SWAP5 POP SWAP5 SWAP2 POP POP JUMP JUMPDEST PUSH1 0x0 DUP4 PUSH2 0xBAC JUMPI DUP2 PUSH1 0x1 PUSH1 0x1 PUSH1 0xA0 SHL SUB AND DUP4 PUSH1 0x1 PUSH1 0x1 PUSH1 0xA0 SHL SUB AND GT PUSH2 0xBC2 JUMP JUMPDEST DUP2 PUSH1 0x1 PUSH1 0x1 PUSH1 0xA0 SHL SUB AND DUP4 PUSH1 0x1 PUSH1 0x1 PUSH1 0xA0 SHL SUB AND LT JUMPDEST PUSH2 0xBCC JUMPI DUP3 PUSH2 0xBCE JUMP JUMPDEST DUP2 JUMPDEST SWAP1 POP JUMPDEST SWAP4 SWAP3 POP POP POP JUMP JUMPDEST PUSH1 0x0 DUP1 DUP1 DUP1 PUSH1 0x1 PUSH1 0x1 PUSH1 0xA0 SHL SUB DUP1 DUP10 AND SWAP1 DUP11 AND LT ISZERO DUP2 DUP8 SLT DUP1 ISZERO SWAP1 PUSH2 0xC5D JUMPI PUSH1 0x0 PUSH2 0xC11 DUP10 DUP10 PUSH3 0xF4240 SUB PUSH3 0xFFFFFF AND PUSH3 0xF4240 PUSH2 0x1B56 JUMP JUMPDEST SWAP1 POP DUP3 PUSH2 0xC2A JUMPI PUSH2 0xC25 DUP13 DUP13 DUP13 PUSH1 0x1 PUSH2 0x1C05 JUMP JUMPDEST PUSH2 0xC37 JUMP JUMPDEST PUSH2 0xC37 DUP12 DUP14 DUP13 PUSH1 0x1 PUSH2 0x1C7E JUMP JUMPDEST SWAP6 POP DUP6 DUP2 LT PUSH2 0xC48 JUMPI DUP11 SWAP7 POP PUSH2 0xC57 JUMP JUMPDEST PUSH2 0xC54 DUP13 DUP12 DUP4 DUP7 PUSH2 0x1D29 JUMP JUMPDEST SWAP7 POP JUMPDEST POP PUSH2 0xCA7 JUMP JUMPDEST DUP2 PUSH2 0xC74 JUMPI PUSH2 0xC6F DUP12 DUP12 DUP12 PUSH1 0x0 PUSH2 0x1C7E JUMP JUMPDEST PUSH2 0xC81 JUMP JUMPDEST PUSH2 0xC81 DUP11 DUP13 DUP12 PUSH1 0x0 PUSH2 0x1C05 JUMP JUMPDEST SWAP4 POP DUP4 DUP9 PUSH1 0x0 SUB LT PUSH2 0xC95 JUMPI DUP10 SWAP6 POP PUSH2 0xCA7 JUMP JUMPDEST PUSH2 0xCA4 DUP12 DUP11 DUP11 PUSH1 0x0 SUB DUP6 PUSH2 0x1D75 JUMP JUMPDEST SWAP6 POP JUMPDEST PUSH1 0x1 PUSH1 0x1 PUSH1 0xA0 SHL SUB DUP11 DUP2 AND SWAP1 DUP8 AND EQ DUP3 ISZERO PUSH2 0xD0A JUMPI DUP1 DUP1 ISZERO PUSH2 0xCC6 JUMPI POP DUP2 JUMPDEST PUSH2 0xCDC JUMPI PUSH2 0xCD7 DUP8 DUP14 DUP13 PUSH1 0x1 PUSH2 0x1C7E JUMP JUMPDEST PUSH2 0xCDE JUMP JUMPDEST DUP6 JUMPDEST SWAP6 POP DUP1 DUP1 ISZERO PUSH2 0xCEB JUMPI POP DUP2 ISZERO JUMPDEST PUSH2 0xD01 JUMPI PUSH2 0xCFC DUP8 DUP14 DUP13 PUSH1 0x0 PUSH2 0x1C05 JUMP JUMPDEST PUSH2 0xD03 JUMP JUMPDEST DUP5 JUMPDEST SWAP5 POP PUSH2 0xD54 JUMP JUMPDEST DUP1 DUP1 ISZERO PUSH2 0xD14 JUMPI POP DUP2 JUMPDEST PUSH2 0xD2A JUMPI PUSH2 0xD25 DUP13 DUP9 DUP13 PUSH1 0x1 PUSH2 0x1C05 JUMP JUMPDEST PUSH2 0xD2C JUMP JUMPDEST DUP6 JUMPDEST SWAP6 POP DUP1 DUP1 ISZERO PUSH2 0xD39 JUMPI POP DUP2 ISZERO JUMPDEST PUSH2 0xD4F JUMPI PUSH2 0xD4A DUP13 DUP9 DUP13 PUSH1 0x0 PUSH2 0x1C7E JUMP JUMPDEST PUSH2 0xD51 JUMP JUMPDEST DUP5 JUMPDEST SWAP5 POP JUMPDEST DUP2 ISZERO DUP1 ISZERO PUSH2 0xD64 JUMPI POP DUP9 PUSH1 0x0 SUB DUP6 GT JUMPDEST ISZERO PUSH2 0xD70 JUMPI DUP9 PUSH1 0x0 SUB SWAP5 POP JUMPDEST DUP2 DUP1 ISZERO PUSH2 0xD8F JUMPI POP DUP11 PUSH1 0x1 PUSH1 0x1 PUSH1 0xA0 SHL SUB AND DUP8 PUSH1 0x1 PUSH1 0x1 PUSH1 0xA0 SHL SUB AND EQ ISZERO JUMPDEST ISZERO PUSH2 0xD9E JUMPI DUP6 DUP10 SUB SWAP4 POP PUSH2 0xDBB JUMP JUMPDEST PUSH2 0xDB8 DUP7 DUP10 PUSH3 0xFFFFFF AND DUP11 PUSH3 0xF4240 SUB PUSH3 0xFFFFFF AND PUSH2 0x1DC1 JUMP JUMPDEST SWAP4 POP JUMPDEST POP POP POP SWAP6 POP SWAP6 POP SWAP6 POP SWAP6 SWAP2 POP POP JUMP JUMPDEST PUSH1 0x0 PUSH1 0x1 PUSH1 0xFF SHL DUP3 LT PUSH2 0xDDC JUMPI PUSH1 0x0 DUP1 REVERT JUMPDEST POP SWAP1 JUMP JUMPDEST DUP1 DUP3 SUB DUP3 DUP2 SGT ISZERO PUSH1 0x0 DUP4 SLT ISZERO EQ PUSH2 0x1C5 JUMPI PUSH1 0x0 DUP1 REVERT JUMPDEST DUP2 DUP2 ADD DUP3 DUP2 SLT ISZERO PUSH1 0x0 DUP4 SLT ISZERO EQ PUSH2 0x1C5 JUMPI PUSH1 0x0 DUP1 REVERT JUMPDEST PUSH1 0x0 DUP1 PUSH1 0x0 DUP1 PUSH1 0x0 DUP1 PUSH1 0x0 DUP1 DUP10 PUSH1 0x1 PUSH1 0x1 PUSH1 0xA0 SHL SUB AND PUSH4 0xF30DBA93 DUP11 PUSH1 0x40 MLOAD DUP3 PUSH4 0xFFFFFFFF AND PUSH1 0xE0 SHL DUP2 MSTORE PUSH1 0x4 ADD DUP1 DUP3 PUSH1 0x2 SIGNEXTEND DUP2 MSTORE PUSH1 0x20 ADD SWAP2 POP POP PUSH2 0x100 PUSH1 0x40 MLOAD DUP1 DUP4 SUB DUP2 DUP7 DUP1 EXTCODESIZE ISZERO DUP1 ISZERO PUSH2 0xE60 JUMPI PUSH1 0x0 DUP1 REVERT JUMPDEST POP GAS STATICCALL ISZERO DUP1 ISZERO PUSH2 0xE74 JUMPI RETURNDATASIZE PUSH1 0x0 DUP1 RETURNDATACOPY RETURNDATASIZE PUSH1 0x0 REVERT JUMPDEST POP POP POP POP PUSH1 0x40 MLOAD RETURNDATASIZE PUSH2 0x100 DUP2 LT ISZERO PUSH2 0xE8B JUMPI PUSH1 0x0 DUP1 REVERT JUMPDEST POP DUP1 MLOAD PUSH1 0x20 DUP3 ADD MLOAD PUSH1 0x40 DUP4 ADD MLOAD PUSH1 0x60 DUP5 ADD MLOAD PUSH1 0x80 DUP6 ADD MLOAD PUSH1 0xA0 DUP7 ADD MLOAD PUSH1 0xC0 DUP8 ADD MLOAD PUSH1 0xE0 SWAP1 SWAP8 ADD MLOAD SWAP6 SWAP15 POP SWAP4 SWAP13 POP SWAP2 SWAP11 POP SWAP9 POP SWAP7 POP SWAP5 POP SWAP1 SWAP3 POP SWAP1 POP SWAP3 SWAP6 SWAP9 POP SWAP3 SWAP6 SWAP9 SWAP1 SWAP4 SWAP7 POP JUMP JUMPDEST PUSH1 0x0 DUP1 DUP3 PUSH1 0xF SIGNEXTEND SLT ISZERO PUSH2 0xF38 JUMPI DUP3 PUSH1 0x1 PUSH1 0x1 PUSH1 0x80 SHL SUB AND DUP3 PUSH1 0x0 SUB DUP5 SUB SWAP2 POP DUP2 PUSH1 0x1 PUSH1 0x1 PUSH1 0x80 SHL SUB AND LT PUSH2 0xF33 JUMPI PUSH1 0x40 DUP1 MLOAD PUSH3 0x461BCD PUSH1 0xE5 SHL DUP2 MSTORE PUSH1 0x20 PUSH1 0x4 DUP3 ADD MSTORE PUSH1 0x2 PUSH1 0x24 DUP3 ADD MSTORE PUSH2 0x4C53 PUSH1 0xF0 SHL PUSH1 0x44 DUP3 ADD MSTORE SWAP1 MLOAD SWAP1 DUP2 SWAP1 SUB PUSH1 0x64 ADD SWAP1 REVERT JUMPDEST PUSH2 0x1C5 JUMP JUMPDEST DUP3 PUSH1 0x1 PUSH1 0x1 PUSH1 0x80 SHL SUB AND DUP3 DUP5 ADD SWAP2 POP DUP2 PUSH1 0x1 PUSH1 0x1 PUSH1 0x80 SHL SUB AND LT ISZERO PUSH2 0x1C5 JUMPI PUSH1 0x40 DUP1 MLOAD PUSH3 0x461BCD PUSH1 0xE5 SHL DUP2 MSTORE PUSH1 0x20 PUSH1 0x4 DUP3 ADD MSTORE PUSH1 0x2 PUSH1 0x24 DUP3 ADD MSTORE PUSH2 0x4C41 PUSH1 0xF0 SHL PUSH1 0x44 DUP3 ADD MSTORE SWAP1 MLOAD SWAP1 DUP2 SWAP1 SUB PUSH1 0x64 ADD SWAP1 REVERT JUMPDEST PUSH1 0x0 PUSH5 0x1000276A3 PUSH1 0x1 PUSH1 0x1 PUSH1 0xA0 SHL SUB DUP4 AND LT DUP1 ISZERO SWAP1 PUSH2 0xFC5 JUMPI POP PUSH20 0xFFFD8963EFD1FC6A506488495D951D5263988D26 PUSH1 0x1 PUSH1 0x1 PUSH1 0xA0 SHL SUB DUP4 AND LT JUMPDEST PUSH2 0xFFA JUMPI PUSH1 0x40 DUP1 MLOAD PUSH3 0x461BCD PUSH1 0xE5 SHL DUP2 MSTORE PUSH1 0x20 PUSH1 0x4 DUP3 ADD MSTORE PUSH1 0x1 PUSH1 0x24 DUP3 ADD MSTORE PUSH1 0x29 PUSH1 0xF9 SHL PUSH1 0x44 DUP3 ADD MSTORE SWAP1 MLOAD SWAP1 DUP2 SWAP1 SUB PUSH1 0x64 ADD SWAP1 REVERT JUMPDEST PUSH5 0x100000000 PUSH1 0x1 PUSH1 0xC0 SHL SUB PUSH1 0x20 DUP4 SWAP1 SHL AND PUSH1 0x1 PUSH1 0x1 PUSH1 0x80 SHL SUB DUP2 GT PUSH1 0x7 SHL DUP2 DUP2 SHR PUSH8 0xFFFFFFFFFFFFFFFF DUP2 GT PUSH1 0x6 SHL SWAP1 DUP2 SHR PUSH4 0xFFFFFFFF DUP2 GT PUSH1 0x5 SHL SWAP1 DUP2 SHR PUSH2 0xFFFF DUP2 GT PUSH1 0x4 SHL SWAP1 DUP2 SHR PUSH1 0xFF DUP2 GT PUSH1 0x3 SWAP1 DUP2 SHL SWAP2 DUP3 SHR PUSH1 0xF DUP2 GT PUSH1 0x2 SHL SWAP1 DUP2 SHR SWAP2 DUP3 GT PUSH1 0x1 SWAP1 DUP2 SHL SWAP3 DUP4 SHR SWAP8 SWAP1 DUP9 GT SWAP7 OR SWAP1 SWAP5 OR SWAP1 SWAP3 OR OR SWAP1 SWAP2 OR OR OR PUSH1 0x80 DUP2 LT PUSH2 0x108E JUMPI PUSH1 0x7F DUP2 SUB DUP4 SWAP1 SHR SWAP2 POP PUSH2 0x1098 JUMP JUMPDEST DUP1 PUSH1 0x7F SUB DUP4 SWAP1 SHL SWAP2 POP JUMPDEST SWAP1 DUP1 MUL PUSH1 0x7F DUP2 DUP2 SHR PUSH1 0xFF DUP4 DUP2 SHR SWAP2 SWAP1 SWAP2 SHR DUP1 MUL DUP1 DUP4 SHR DUP2 DUP4 SHR SHR DUP1 MUL DUP1 DUP5 SHR DUP2 DUP5 SHR SHR DUP1 MUL DUP1 DUP6 SHR DUP2 DUP6 SHR SHR DUP1 MUL DUP1 DUP7 SHR DUP2 DUP7 SHR SHR DUP1 MUL DUP1 DUP8 SHR DUP2 DUP8 SHR SHR DUP1 MUL DUP1 DUP9 SHR DUP2 DUP9 SHR SHR DUP1 MUL DUP1 DUP10 SHR DUP2 DUP10 SHR SHR DUP1 MUL DUP1 DUP11 SHR DUP2 DUP11 SHR SHR DUP1 MUL DUP1 DUP12 SHR DUP2 DUP12 SHR SHR DUP1 MUL DUP1 DUP13 SHR DUP2 DUP13 SHR SHR DUP1 MUL DUP1 DUP14 SHR DUP2 DUP14 SHR SHR DUP1 MUL DUP1 DUP15 SHR SWAP13 DUP2 SWAP1 SHR SWAP13 SWAP1 SWAP13 SHR DUP1 MUL SWAP13 DUP14 SWAP1 SHR SWAP15 SWAP14 PUSH1 0x7F NOT DUP16 ADD PUSH1 0x40 SHL PUSH1 0xC0 SWAP2 SWAP1 SWAP2 SHR PUSH8 0x8000000000000000 AND OR PUSH1 0xC1 SWAP12 SWAP1 SWAP12 SHR PUSH8 0x4000000000000000 AND SWAP11 SWAP1 SWAP11 OR PUSH1 0xC2 SWAP10 SWAP1 SWAP10 SHR PUSH8 0x2000000000000000 AND SWAP9 SWAP1 SWAP9 OR PUSH1 0xC3 SWAP8 SWAP1 SWAP8 SHR PUSH8 0x1000000000000000 AND SWAP7 SWAP1 SWAP7 OR PUSH1 0xC4 SWAP6 SWAP1 SWAP6 SHR PUSH8 0x800000000000000 AND SWAP5 SWAP1 SWAP5 OR PUSH1 0xC5 SWAP4 SWAP1 SWAP4 SHR PUSH8 0x400000000000000 AND SWAP3 SWAP1 SWAP3 OR PUSH1 0xC6 SWAP2 SWAP1 SWAP2 SHR PUSH8 0x200000000000000 AND OR PUSH1 0xC7 SWAP2 SWAP1 SWAP2 SHR PUSH8 0x100000000000000 AND OR PUSH1 0xC8 SWAP2 SWAP1 SWAP2 SHR PUSH7 0x80000000000000 AND OR PUSH1 0xC9 SWAP2 SWAP1 SWAP2 SHR PUSH7 0x40000000000000 AND OR PUSH1 0xCA SWAP2 SWAP1 SWAP2 SHR PUSH7 0x20000000000000 AND OR PUSH1 0xCB SWAP2 SWAP1 SWAP2 SHR PUSH7 0x10000000000000 AND OR PUSH1 0xCC SWAP2 SWAP1 SWAP2 SHR PUSH7 0x8000000000000 AND OR PUSH1 0xCD SWAP2 SWAP1 SWAP2 SHR PUSH7 0x4000000000000 AND OR PUSH10 0x3627A301D71055774C85 DUP2 MUL PUSH16 0x28F6481AB7F045A5AF012A19D003AA9 NOT DUP2 ADD PUSH1 0x80 SWAP1 DUP2 SAR SWAP1 PUSH16 0xDB2DF09E81959A81455E260799A0632F DUP4 ADD SWAP1 SAR PUSH1 0x2 DUP2 DUP2 SIGNEXTEND SWAP1 DUP4 SWAP1 SIGNEXTEND EQ PUSH2 0x1299 JUMPI DUP9 PUSH1 0x1 PUSH1 0x1 PUSH1 0xA0 SHL SUB AND PUSH2 0x127D DUP3 PUSH2 0x1824 JUMP JUMPDEST PUSH1 0x1 PUSH1 0x1 PUSH1 0xA0 SHL SUB AND GT ISZERO PUSH2 0x1292 JUMPI DUP2 PUSH2 0x1294 JUMP JUMPDEST DUP1 JUMPDEST PUSH2 0x129B JUMP JUMPDEST DUP2 JUMPDEST SWAP10 SWAP9 POP POP POP POP POP POP POP POP POP JUMP JUMPDEST PUSH1 0x0 PUSH2 0xBCE PUSH32 0x0 PUSH2 0x12D9 DUP7 DUP7 DUP7 PUSH2 0x1DFB JUMP JUMPDEST PUSH2 0x1E51 JUMP JUMPDEST PUSH1 0x0 DUP2 DUP3 PUSH1 0x14 ADD LT ISZERO PUSH2 0x132D JUMPI PUSH1 0x40 DUP1 MLOAD PUSH3 0x461BCD PUSH1 0xE5 SHL DUP2 MSTORE PUSH1 0x20 PUSH1 0x4 DUP3 ADD MSTORE PUSH1 0x12 PUSH1 0x24 DUP3 ADD MSTORE PUSH18 0x746F416464726573735F6F766572666C6F77 PUSH1 0x70 SHL PUSH1 0x44 DUP3 ADD MSTORE SWAP1 MLOAD SWAP1 DUP2 SWAP1 SUB PUSH1 0x64 ADD SWAP1 REVERT JUMPDEST DUP2 PUSH1 0x14 ADD DUP4 MLOAD LT ISZERO PUSH2 0x137E JUMPI PUSH1 0x40 DUP1 MLOAD PUSH3 0x461BCD PUSH1 0xE5 SHL DUP2 MSTORE PUSH1 0x20 PUSH1 0x4 DUP3 ADD MSTORE PUSH1 0x15 PUSH1 0x24 DUP3 ADD MSTORE PUSH21 0x746F416464726573735F6F75744F66426F756E6473 PUSH1 0x58 SHL PUSH1 0x44 DUP3 ADD MSTORE SWAP1 MLOAD SWAP1 DUP2 SWAP1 SUB PUSH1 0x64 ADD SWAP1 REVERT JUMPDEST POP ADD PUSH1 0x20 ADD MLOAD PUSH1 0x1 PUSH1 0x60 SHL SWAP1 DIV SWAP1 JUMP JUMPDEST PUSH1 0x0 DUP2 DUP3 PUSH1 0x3 ADD LT ISZERO PUSH2 0x13DC JUMPI PUSH1 0x40 DUP1 MLOAD PUSH3 0x461BCD PUSH1 0xE5 SHL DUP2 MSTORE PUSH1 0x20 PUSH1 0x4 DUP3 ADD MSTORE PUSH1 0x11 PUSH1 0x24 DUP3 ADD MSTORE PUSH17 0x746F55696E7432345F6F766572666C6F77 PUSH1 0x78 SHL PUSH1 0x44 DUP3 ADD MSTORE SWAP1 MLOAD SWAP1 DUP2 SWAP1 SUB PUSH1 0x64 ADD SWAP1 REVERT JUMPDEST DUP2 PUSH1 0x3 ADD DUP4 MLOAD LT ISZERO PUSH2 0x142C JUMPI PUSH1 0x40 DUP1 MLOAD PUSH3 0x461BCD PUSH1 0xE5 SHL DUP2 MSTORE PUSH1 0x20 PUSH1 0x4 DUP3 ADD MSTORE PUSH1 0x14 PUSH1 0x24 DUP3 ADD MSTORE PUSH20 0x746F55696E7432345F6F75744F66426F756E6473 PUSH1 0x60 SHL PUSH1 0x44 DUP3 ADD MSTORE SWAP1 MLOAD SWAP1 DUP2 SWAP1 SUB PUSH1 0x64 ADD SWAP1 REVERT JUMPDEST POP ADD PUSH1 0x3 ADD MLOAD SWAP1 JUMP JUMPDEST PUSH1 0x60 DUP2 DUP3 PUSH1 0x1F ADD LT ISZERO PUSH2 0x1480 JUMPI PUSH1 0x40 DUP1 MLOAD PUSH3 0x461BCD PUSH1 0xE5 SHL DUP2 MSTORE PUSH1 0x20 PUSH1 0x4 DUP3 ADD MSTORE PUSH1 0xE PUSH1 0x24 DUP3 ADD MSTORE PUSH14 0x736C6963655F6F766572666C6F77 PUSH1 0x90 SHL PUSH1 0x44 DUP3 ADD MSTORE SWAP1 MLOAD SWAP1 DUP2 SWAP1 SUB PUSH1 0x64 ADD SWAP1 REVERT JUMPDEST DUP3 DUP3 DUP5 ADD LT ISZERO PUSH2 0x14C8 JUMPI PUSH1 0x40 DUP1 MLOAD PUSH3 0x461BCD PUSH1 0xE5 SHL DUP2 MSTORE PUSH1 0x20 PUSH1 0x4 DUP3 ADD MSTORE PUSH1 0xE PUSH1 0x24 DUP3 ADD MSTORE PUSH14 0x736C6963655F6F766572666C6F77 PUSH1 0x90 SHL PUSH1 0x44 DUP3 ADD MSTORE SWAP1 MLOAD SWAP1 DUP2 SWAP1 SUB PUSH1 0x64 ADD SWAP1 REVERT JUMPDEST DUP2 DUP4 ADD DUP5 MLOAD LT ISZERO PUSH2 0x1514 JUMPI PUSH1 0x40 DUP1 MLOAD PUSH3 0x461BCD PUSH1 0xE5 SHL DUP2 MSTORE PUSH1 0x20 PUSH1 0x4 DUP3 ADD MSTORE PUSH1 0x11 PUSH1 0x24 DUP3 ADD MSTORE PUSH17 0x736C6963655F6F75744F66426F756E6473 PUSH1 0x78 SHL PUSH1 0x44 DUP3 ADD MSTORE SWAP1 MLOAD SWAP1 DUP2 SWAP1 SUB PUSH1 0x64 ADD SWAP1 REVERT JUMPDEST PUSH1 0x60 DUP3 ISZERO DUP1 ISZERO PUSH2 0x1533 JUMPI PUSH1 0x40 MLOAD SWAP2 POP PUSH1 0x0 DUP3 MSTORE PUSH1 0x20 DUP3 ADD PUSH1 0x40 MSTORE PUSH2 0x157D JUMP JUMPDEST PUSH1 0x40 MLOAD SWAP2 POP PUSH1 0x1F DUP5 AND DUP1 ISZERO PUSH1 0x20 MUL DUP2 DUP5 ADD ADD DUP6 DUP2 ADD DUP8 DUP4 ISZERO PUSH1 0x20 MUL DUP5 DUP12 ADD ADD ADD JUMPDEST DUP2 DUP4 LT ISZERO PUSH2 0x156C JUMPI DUP1 MLOAD DUP4 MSTORE PUSH1 0x20 SWAP3 DUP4 ADD SWAP3 ADD PUSH2 0x1554 JUMP JUMPDEST POP POP DUP6 DUP5 MSTORE PUSH1 0x1F ADD PUSH1 0x1F NOT AND PUSH1 0x40 MSTORE POP JUMPDEST POP SWAP5 SWAP4 POP POP POP POP JUMP JUMPDEST PUSH2 0x158E PUSH2 0x252E JUMP JUMPDEST DUP2 PUSH1 0x1 PUSH1 0x1 PUSH1 0xA0 SHL SUB AND PUSH4 0xDDCA3F43 PUSH1 0x40 MLOAD DUP2 PUSH4 0xFFFFFFFF AND PUSH1 0xE0 SHL DUP2 MSTORE PUSH1 0x4 ADD PUSH1 0x20 PUSH1 0x40 MLOAD DUP1 DUP4 SUB DUP2 DUP7 DUP1 EXTCODESIZE ISZERO DUP1 ISZERO PUSH2 0x15C7 JUMPI PUSH1 0x0 DUP1 REVERT JUMPDEST POP GAS STATICCALL ISZERO DUP1 ISZERO PUSH2 0x15DB JUMPI RETURNDATASIZE PUSH1 0x0 DUP1 RETURNDATACOPY RETURNDATASIZE PUSH1 0x0 REVERT JUMPDEST POP POP POP POP PUSH1 0x40 MLOAD RETURNDATASIZE PUSH1 0x20 DUP2 LT ISZERO PUSH2 0x15F1 JUMPI PUSH1 0x0 DUP1 REVERT JUMPDEST POP MLOAD PUSH2 0xFFFF AND PUSH1 0x40 DUP1 DUP4 ADD SWAP2 SWAP1 SWAP2 MSTORE DUP1 MLOAD PUSH4 0x3850C7BD PUSH1 0xE0 SHL DUP2 MSTORE SWAP1 MLOAD PUSH1 0x1 PUSH1 0x1 PUSH1 0xA0 SHL SUB DUP5 AND SWAP2 PUSH4 0x3850C7BD SWAP2 PUSH1 0x4 DUP1 DUP4 ADD SWAP3 PUSH1 0xE0 SWAP3 SWAP2 SWAP1 DUP3 SWAP1 SUB ADD DUP2 DUP7 DUP1 EXTCODESIZE ISZERO DUP1 ISZERO PUSH2 0x163E JUMPI PUSH1 0x0 DUP1 REVERT JUMPDEST POP GAS STATICCALL ISZERO DUP1 ISZERO PUSH2 0x1652 JUMPI RETURNDATASIZE PUSH1 0x0 DUP1 RETURNDATACOPY RETURNDATASIZE PUSH1 0x0 REVERT JUMPDEST POP POP POP POP PUSH1 0x40 MLOAD RETURNDATASIZE PUSH1 0xE0 DUP2 LT ISZERO PUSH2 0x1668 JUMPI PUSH1 0x0 DUP1 REVERT JUMPDEST POP DUP1 MLOAD PUSH1 0x20 SWAP2 DUP3 ADD MLOAD PUSH1 0x2 SWAP1 DUP2 SIGNEXTEND SWAP1 SIGNEXTEND SWAP2 DUP4 ADD SWAP2 SWAP1 SWAP2 MSTORE PUSH1 0x1 PUSH1 0x1 PUSH1 0xA0 SHL SUB AND DUP2 MSTORE SWAP2 SWAP1 POP JUMP JUMPDEST PUSH1 0x0 DUP4 PUSH2 0x16D8 JUMPI DUP2 PUSH1 0x1 PUSH1 0x1 PUSH1 0xA0 SHL SUB AND DUP4 PUSH1 0x1 PUSH1 0x1 PUSH1 0xA0 SHL SUB AND GT DUP1 ISZERO PUSH2 0x16D3 JUMPI POP PUSH20 0xFFFD8963EFD1FC6A506488495D951D5263988D26 PUSH1 0x1 PUSH1 0x1 PUSH1 0xA0 SHL SUB DUP5 AND LT JUMPDEST PUSH2 0x1706 JUMP JUMPDEST DUP2 PUSH1 0x1 PUSH1 0x1 PUSH1 0xA0 SHL SUB AND DUP4 PUSH1 0x1 PUSH1 0x1 PUSH1 0xA0 SHL SUB AND LT DUP1 ISZERO PUSH2 0x1706 JUMPI POP PUSH5 0x1000276A3 PUSH1 0x1 PUSH1 0x1 PUSH1 0xA0 SHL SUB DUP5 AND GT JUMPDEST SWAP1 POP DUP1 PUSH2 0x175A JUMPI PUSH1 0x40 DUP1 MLOAD PUSH3 0x461BCD PUSH1 0xE5 SHL DUP2 MSTORE PUSH1 0x20 PUSH1 0x4 DUP3 ADD MSTORE PUSH1 0x1C PUSH1 0x24 DUP3 ADD MSTORE PUSH32 0x7371727450726963654C696D6974206F7574206F6620626F756E647300000000 PUSH1 0x44 DUP3 ADD MSTORE SWAP1 MLOAD SWAP1 DUP2 SWAP1 SUB PUSH1 0x64 ADD SWAP1 REVERT JUMPDEST POP POP POP POP JUMP JUMPDEST PUSH1 0x0 DUP2 PUSH1 0x1 PUSH1 0x1 PUSH1 0xA0 SHL SUB AND PUSH4 0xD0C93A7C PUSH1 0x40 MLOAD DUP2 PUSH4 0xFFFFFFFF AND PUSH1 0xE0 SHL DUP2 MSTORE PUSH1 0x4 ADD PUSH1 0x20 PUSH1 0x40 MLOAD DUP1 DUP4 SUB DUP2 DUP7 DUP1 EXTCODESIZE ISZERO DUP1 ISZERO PUSH2 0x179B JUMPI PUSH1 0x0 DUP1 REVERT JUMPDEST POP GAS STATICCALL ISZERO DUP1 ISZERO PUSH2 0x17AF JUMPI RETURNDATASIZE PUSH1 0x0 DUP1 RETURNDATACOPY RETURNDATASIZE PUSH1 0x0 REVERT JUMPDEST POP POP POP POP PUSH1 0x40 MLOAD RETURNDATASIZE PUSH1 0x20 DUP2 LT ISZERO PUSH2 0x17C5 JUMPI PUSH1 0x0 DUP1 REVERT JUMPDEST POP MLOAD SWAP3 SWAP2 POP POP JUMP JUMPDEST PUSH1 0x0 DUP2 PUSH1 0x1 PUSH1 0x1 PUSH1 0xA0 SHL SUB AND PUSH4 0x1A686502 PUSH1 0x40 MLOAD DUP2 PUSH4 0xFFFFFFFF AND PUSH1 0xE0 SHL DUP2 MSTORE PUSH1 0x4 ADD PUSH1 0x20 PUSH1 0x40 MLOAD DUP1 DUP4 SUB DUP2 DUP7 DUP1 EXTCODESIZE ISZERO DUP1 ISZERO PUSH2 0x179B JUMPI PUSH1 0x0 DUP1 REVERT JUMPDEST PUSH1 0x0 DUP1 PUSH2 0x1817 DUP7 DUP7 DUP7 DUP7 PUSH2 0x1F35 JUMP JUMPDEST SWAP2 POP SWAP2 POP SWAP5 POP SWAP5 SWAP3 POP POP POP JUMP JUMPDEST PUSH1 0x0 DUP1 PUSH1 0x0 DUP4 PUSH1 0x2 SIGNEXTEND SLT PUSH2 0x183B JUMPI DUP3 PUSH1 0x2 SIGNEXTEND PUSH2 0x1843 JUMP JUMPDEST DUP3 PUSH1 0x2 SIGNEXTEND PUSH1 0x0 SUB JUMPDEST SWAP1 POP PUSH3 0xD89E8 DUP2 GT ISZERO PUSH2 0x1881 JUMPI PUSH1 0x40 DUP1 MLOAD PUSH3 0x461BCD PUSH1 0xE5 SHL DUP2 MSTORE PUSH1 0x20 PUSH1 0x4 DUP3 ADD MSTORE PUSH1 0x1 PUSH1 0x24 DUP3 ADD MSTORE PUSH1 0x15 PUSH1 0xFA SHL PUSH1 0x44 DUP3 ADD MSTORE SWAP1 MLOAD SWAP1 DUP2 SWAP1 SUB PUSH1 0x64 ADD SWAP1 REVERT JUMPDEST PUSH1 0x0 PUSH1 0x1 DUP3 AND PUSH2 0x1895 JUMPI PUSH1 0x1 PUSH1 0x80 SHL PUSH2 0x18A7 JUMP JUMPDEST PUSH16 0xFFFCB933BD6FAD37AA2D162D1A594001 JUMPDEST PUSH17 0xFFFFFFFFFFFFFFFFFFFFFFFFFFFFFFFFFF AND SWAP1 POP PUSH1 0x2 DUP3 AND ISZERO PUSH2 0x18DB JUMPI PUSH16 0xFFF97272373D413259A46990580E213A MUL PUSH1 0x80 SHR JUMPDEST PUSH1 0x4 DUP3 AND ISZERO PUSH2 0x18FA JUMPI PUSH16 0xFFF2E50F5F656932EF12357CF3C7FDCC MUL PUSH1 0x80 SHR JUMPDEST PUSH1 0x8 DUP3 AND ISZERO PUSH2 0x1919 JUMPI PUSH16 0xFFE5CACA7E10E4E61C3624EAA0941CD0 MUL PUSH1 0x80 SHR JUMPDEST PUSH1 0x10 DUP3 AND ISZERO PUSH2 0x1938 JUMPI PUSH16 0xFFCB9843D60F6159C9DB58835C926644 MUL PUSH1 0x80 SHR JUMPDEST PUSH1 0x20 DUP3 AND ISZERO PUSH2 0x1957 JUMPI PUSH16 0xFF973B41FA98C081472E6896DFB254C0 MUL PUSH1 0x80 SHR JUMPDEST PUSH1 0x40 DUP3 AND ISZERO PUSH2 0x1976 JUMPI PUSH16 0xFF2EA16466C96A3843EC78B326B52861 MUL PUSH1 0x80 SHR JUMPDEST PUSH1 0x80 DUP3 AND ISZERO PUSH2 0x1995 JUMPI PUSH16 0xFE5DEE046A99A2A811C461F1969C3053 MUL PUSH1 0x80 SHR JUMPDEST PUSH2 0x100 DUP3 AND ISZERO PUSH2 0x19B5 JUMPI PUSH16 0xFCBE86C7900A88AEDCFFC83B479AA3A4 MUL PUSH1 0x80 SHR JUMPDEST PUSH2 0x200 DUP3 AND ISZERO PUSH2 0x19D5 JUMPI PUSH16 0xF987A7253AC413176F2B074CF7815E54 MUL PUSH1 0x80 SHR JUMPDEST PUSH2 0x400 DUP3 AND ISZERO PUSH2 0x19F5 JUMPI PUSH16 0xF3392B0822B70005940C7A398E4B70F3 MUL PUSH1 0x80 SHR JUMPDEST PUSH2 0x800 DUP3 AND ISZERO PUSH2 0x1A15 JUMPI PUSH16 0xE7159475A2C29B7443B29C7FA6E889D9 MUL PUSH1 0x80 SHR JUMPDEST PUSH2 0x1000 DUP3 AND ISZERO PUSH2 0x1A35 JUMPI PUSH16 0xD097F3BDFD2022B8845AD8F792AA5825 MUL PUSH1 0x80 SHR JUMPDEST PUSH2 0x2000 DUP3 AND ISZERO PUSH2 0x1A55 JUMPI PUSH16 0xA9F746462D870FDF8A65DC1F90E061E5 MUL PUSH1 0x80 SHR JUMPDEST PUSH2 0x4000 DUP3 AND ISZERO PUSH2 0x1A75 JUMPI PUSH16 0x70D869A156D2A1B890BB3DF62BAF32F7 MUL PUSH1 0x80 SHR JUMPDEST PUSH2 0x8000 DUP3 AND ISZERO PUSH2 0x1A95 JUMPI PUSH16 0x31BE135F97D08FD981231505542FCFA6 MUL PUSH1 0x80 SHR JUMPDEST PUSH3 0x10000 DUP3 AND ISZERO PUSH2 0x1AB6 JUMPI PUSH16 0x9AA508B5B7A84E1C677DE54F3E99BC9 MUL PUSH1 0x80 SHR JUMPDEST PUSH3 0x20000 DUP3 AND ISZERO PUSH2 0x1AD6 JUMPI PUSH15 0x5D6AF8DEDB81196699C329225EE604 MUL PUSH1 0x80 SHR JUMPDEST PUSH3 0x40000 DUP3 AND ISZERO PUSH2 0x1AF5 JUMPI PUSH14 0x2216E584F5FA1EA926041BEDFE98 MUL PUSH1 0x80 SHR JUMPDEST PUSH3 0x80000 DUP3 AND ISZERO PUSH2 0x1B12 JUMPI PUSH12 0x48A170391F7DC42444E8FA2 MUL PUSH1 0x80 SHR JUMPDEST PUSH1 0x0 DUP5 PUSH1 0x2 SIGNEXTEND SGT ISZERO PUSH2 0x1B2D JUMPI DUP1 PUSH1 0x0 NOT DUP2 PUSH2 0x1B29 JUMPI INVALID JUMPDEST DIV SWAP1 POP JUMPDEST PUSH5 0x100000000 DUP2 MOD ISZERO PUSH2 0x1B41 JUMPI PUSH1 0x1 PUSH2 0x1B44 JUMP JUMPDEST PUSH1 0x0 JUMPDEST PUSH1 0xFF AND PUSH1 0x20 DUP3 SWAP1 SHR ADD SWAP3 POP POP POP SWAP2 SWAP1 POP JUMP JUMPDEST PUSH1 0x0 DUP1 DUP1 PUSH1 0x0 NOT DUP6 DUP8 MULMOD DUP7 DUP7 MUL SWAP3 POP DUP3 DUP2 LT SWAP1 DUP4 SWAP1 SUB SUB SWAP1 POP DUP1 PUSH2 0x1B8C JUMPI PUSH1 0x0 DUP5 GT PUSH2 0x1B81 JUMPI PUSH1 0x0 DUP1 REVERT JUMPDEST POP DUP3 SWAP1 DIV SWAP1 POP PUSH2 0xBD1 JUMP JUMPDEST DUP1 DUP5 GT PUSH2 0x1B98 JUMPI PUSH1 0x0 DUP1 REVERT JUMPDEST PUSH1 0x0 DUP5 DUP7 DUP9 MULMOD PUSH1 0x0 DUP7 DUP2 SUB DUP8 AND SWAP7 DUP8 SWAP1 DIV SWAP7 PUSH1 0x2 PUSH1 0x3 DUP10 MUL DUP2 XOR DUP1 DUP11 MUL DUP3 SUB MUL DUP1 DUP11 MUL DUP3 SUB MUL DUP1 DUP11 MUL DUP3 SUB MUL DUP1 DUP11 MUL DUP3 SUB MUL DUP1 DUP11 MUL DUP3 SUB MUL DUP1 DUP11 MUL SWAP1 SWAP2 SUB MUL SWAP2 DUP2 SWAP1 SUB DUP2 SWAP1 DIV PUSH1 0x1 ADD DUP7 DUP5 GT SWAP1 SWAP6 SUB SWAP5 SWAP1 SWAP5 MUL SWAP2 SWAP1 SWAP5 SUB SWAP3 SWAP1 SWAP3 DIV SWAP2 SWAP1 SWAP2 OR SWAP2 SWAP1 SWAP2 MUL SWAP2 POP POP SWAP4 SWAP3 POP POP POP JUMP JUMPDEST PUSH1 0x0 DUP4 PUSH1 0x1 PUSH1 0x1 PUSH1 0xA0 SHL SUB AND DUP6 PUSH1 0x1 PUSH1 0x1 PUSH1 0xA0 SHL SUB AND GT ISZERO PUSH2 0x1C25 JUMPI SWAP3 SWAP4 SWAP3 JUMPDEST DUP2 PUSH2 0x1C52 JUMPI PUSH2 0x1C4D DUP4 PUSH1 0x1 PUSH1 0x1 PUSH1 0x80 SHL SUB AND DUP7 DUP7 SUB PUSH1 0x1 PUSH1 0x1 PUSH1 0xA0 SHL SUB AND PUSH1 0x1 PUSH1 0x60 SHL PUSH2 0x1B56 JUMP JUMPDEST PUSH2 0x1C75 JUMP JUMPDEST PUSH2 0x1C75 DUP4 PUSH1 0x1 PUSH1 0x1 PUSH1 0x80 SHL SUB AND DUP7 DUP7 SUB PUSH1 0x1 PUSH1 0x1 PUSH1 0xA0 SHL SUB AND PUSH1 0x1 PUSH1 0x60 SHL PUSH2 0x1DC1 JUMP JUMPDEST SWAP6 SWAP5 POP POP POP POP POP JUMP JUMPDEST PUSH1 0x0 DUP4 PUSH1 0x1 PUSH1 0x1 PUSH1 0xA0 SHL SUB AND DUP6 PUSH1 0x1 PUSH1 0x1 PUSH1 0xA0 SHL SUB AND GT ISZERO PUSH2 0x1C9E JUMPI SWAP3 SWAP4 SWAP3 JUMPDEST PUSH1 0x1 PUSH1 0x60 SHL PUSH1 0x1 PUSH1 0xE0 SHL SUB PUSH1 0x60 DUP5 SWAP1 SHL AND PUSH1 0x1 PUSH1 0x1 PUSH1 0xA0 SHL SUB DUP7 DUP7 SUB DUP2 AND SWAP1 DUP8 AND PUSH2 0x1CC8 JUMPI PUSH1 0x0 DUP1 REVERT JUMPDEST DUP4 PUSH2 0x1CF8 JUMPI DUP7 PUSH1 0x1 PUSH1 0x1 PUSH1 0xA0 SHL SUB AND PUSH2 0x1CEB DUP4 DUP4 DUP10 PUSH1 0x1 PUSH1 0x1 PUSH1 0xA0 SHL SUB AND PUSH2 0x1B56 JUMP JUMPDEST DUP2 PUSH2 0x1CF2 JUMPI INVALID JUMPDEST DIV PUSH2 0x1D1E JUMP JUMPDEST PUSH2 0x1D1E PUSH2 0x1D0F DUP4 DUP4 DUP10 PUSH1 0x1 PUSH1 0x1 PUSH1 0xA0 SHL SUB AND PUSH2 0x1DC1 JUMP JUMPDEST DUP9 PUSH1 0x1 PUSH1 0x1 PUSH1 0xA0 SHL SUB AND PUSH2 0x2133 JUMP JUMPDEST SWAP8 SWAP7 POP POP POP POP POP POP POP JUMP JUMPDEST PUSH1 0x0 DUP1 DUP6 PUSH1 0x1 PUSH1 0x1 PUSH1 0xA0 SHL SUB AND GT PUSH2 0x1D40 JUMPI PUSH1 0x0 DUP1 REVERT JUMPDEST PUSH1 0x0 DUP5 PUSH1 0x1 PUSH1 0x1 PUSH1 0x80 SHL SUB AND GT PUSH2 0x1D56 JUMPI PUSH1 0x0 DUP1 REVERT JUMPDEST DUP2 PUSH2 0x1D68 JUMPI PUSH2 0x1C4D DUP6 DUP6 DUP6 PUSH1 0x1 PUSH2 0x213E JUMP JUMPDEST PUSH2 0x1C75 DUP6 DUP6 DUP6 PUSH1 0x1 PUSH2 0x221F JUMP JUMPDEST PUSH1 0x0 DUP1 DUP6 PUSH1 0x1 PUSH1 0x1 PUSH1 0xA0 SHL SUB AND GT PUSH2 0x1D8C JUMPI PUSH1 0x0 DUP1 REVERT JUMPDEST PUSH1 0x0 DUP5 PUSH1 0x1 PUSH1 0x1 PUSH1 0x80 SHL SUB AND GT PUSH2 0x1DA2 JUMPI PUSH1 0x0 DUP1 REVERT JUMPDEST DUP2 PUSH2 0x1DB4 JUMPI PUSH2 0x1C4D DUP6 DUP6 DUP6 PUSH1 0x0 PUSH2 0x221F JUMP JUMPDEST PUSH2 0x1C75 DUP6 DUP6 DUP6 PUSH1 0x0 PUSH2 0x213E JUMP JUMPDEST PUSH1 0x0 PUSH2 0x1DCE DUP5 DUP5 DUP5 PUSH2 0x1B56 JUMP JUMPDEST SWAP1 POP PUSH1 0x0 DUP3 DUP1 PUSH2 0x1DDA JUMPI INVALID JUMPDEST DUP5 DUP7 MULMOD GT ISZERO PUSH2 0xBD1 JUMPI PUSH1 0x0 NOT DUP2 LT PUSH2 0x1DF1 JUMPI PUSH1 0x0 DUP1 REVERT JUMPDEST PUSH1 0x1 ADD SWAP4 SWAP3 POP POP POP JUMP JUMPDEST PUSH2 0x1E03 PUSH2 0x252E JUMP JUMPDEST DUP3 PUSH1 0x1 PUSH1 0x1 PUSH1 0xA0 SHL SUB AND DUP5 PUSH1 0x1 PUSH1 0x1 PUSH1 0xA0 SHL SUB AND GT ISZERO PUSH2 0x1E21 JUMPI SWAP2 SWAP3 SWAP2 JUMPDEST POP PUSH1 0x40 DUP1 MLOAD PUSH1 0x60 DUP2 ADD DUP3 MSTORE PUSH1 0x1 PUSH1 0x1 PUSH1 0xA0 SHL SUB SWAP5 DUP6 AND DUP2 MSTORE SWAP3 SWAP1 SWAP4 AND PUSH1 0x20 DUP4 ADD MSTORE PUSH3 0xFFFFFF AND SWAP2 DUP2 ADD SWAP2 SWAP1 SWAP2 MSTORE SWAP1 JUMP JUMPDEST PUSH1 0x0 DUP2 PUSH1 0x20 ADD MLOAD PUSH1 0x1 PUSH1 0x1 PUSH1 0xA0 SHL SUB AND DUP3 PUSH1 0x0 ADD MLOAD PUSH1 0x1 PUSH1 0x1 PUSH1 0xA0 SHL SUB AND LT PUSH2 0x1E79 JUMPI PUSH1 0x0 DUP1 REVERT JUMPDEST POP DUP1 MLOAD PUSH1 0x20 DUP1 DUP4 ADD MLOAD PUSH1 0x40 SWAP4 DUP5 ADD MLOAD DUP5 MLOAD PUSH1 0x1 PUSH1 0x1 PUSH1 0xA0 SHL SUB SWAP5 DUP6 AND DUP2 DUP6 ADD MSTORE SWAP4 SWAP1 SWAP2 AND DUP4 DUP6 ADD MSTORE PUSH3 0xFFFFFF AND PUSH1 0x60 DUP1 DUP5 ADD SWAP2 SWAP1 SWAP2 MSTORE DUP4 MLOAD DUP1 DUP5 SUB DUP3 ADD DUP2 MSTORE PUSH1 0x80 DUP5 ADD DUP6 MSTORE DUP1 MLOAD SWAP1 DUP4 ADD KECCAK256 PUSH1 0x1 PUSH1 0x1 PUSH1 0xF8 SHL SUB NOT PUSH1 0xA0 DUP6 ADD MSTORE SWAP5 SWAP1 SHL PUSH12 0xFFFFFFFFFFFFFFFFFFFFFFFF NOT AND PUSH1 0xA1 DUP4 ADD MSTORE PUSH1 0xB5 DUP3 ADD SWAP4 SWAP1 SWAP4 MSTORE PUSH32 0xE34F199B19B2B4F47F68442619D555527D244F78A3297EA89325F843F87B8B54 PUSH1 0xD5 DUP1 DUP4 ADD SWAP2 SWAP1 SWAP2 MSTORE DUP3 MLOAD DUP1 DUP4 SUB SWAP1 SWAP2 ADD DUP2 MSTORE PUSH1 0xF5 SWAP1 SWAP2 ADD SWAP1 SWAP2 MSTORE DUP1 MLOAD SWAP2 ADD KECCAK256 SWAP1 JUMP JUMPDEST PUSH1 0x0 DUP1 DUP6 DUP2 PUSH1 0x2 DUP7 DUP2 SIGNEXTEND SWAP1 DUP9 SWAP1 SIGNEXTEND DUP2 PUSH2 0x1F4A JUMPI INVALID JUMPDEST SDIV SWAP1 POP PUSH1 0x0 DUP8 PUSH1 0x2 SIGNEXTEND SLT DUP1 ISZERO PUSH2 0x1F71 JUMPI POP DUP6 PUSH1 0x2 SIGNEXTEND DUP8 PUSH1 0x2 SIGNEXTEND DUP2 PUSH2 0x1F6A JUMPI INVALID JUMPDEST SMOD PUSH1 0x2 SIGNEXTEND ISZERO ISZERO JUMPDEST ISZERO PUSH2 0x1F7B JUMPI PUSH1 0x0 NOT ADD JUMPDEST DUP5 ISZERO PUSH2 0x2052 JUMPI PUSH1 0x0 DUP1 PUSH2 0x1F8D DUP4 PUSH2 0x2302 JUMP JUMPDEST PUSH1 0x40 DUP1 MLOAD PUSH4 0x299CE14B PUSH1 0xE1 SHL DUP2 MSTORE PUSH1 0x1 DUP5 DUP2 SIGNEXTEND PUSH1 0x4 DUP4 ADD MSTORE SWAP2 MLOAD SWAP4 SWAP6 POP SWAP2 SWAP4 POP PUSH1 0xFF DUP5 AND SHL DUP1 ADD PUSH1 0x0 NOT ADD SWAP2 PUSH1 0x0 SWAP2 DUP4 SWAP2 PUSH1 0x1 PUSH1 0x1 PUSH1 0xA0 SHL SUB DUP10 AND SWAP2 PUSH4 0x5339C296 SWAP2 PUSH1 0x24 DUP1 DUP4 ADD SWAP3 PUSH1 0x20 SWAP3 SWAP2 SWAP1 DUP3 SWAP1 SUB ADD DUP2 DUP7 DUP1 EXTCODESIZE ISZERO DUP1 ISZERO PUSH2 0x1FEE JUMPI PUSH1 0x0 DUP1 REVERT JUMPDEST POP GAS STATICCALL ISZERO DUP1 ISZERO PUSH2 0x2002 JUMPI RETURNDATASIZE PUSH1 0x0 DUP1 RETURNDATACOPY RETURNDATASIZE PUSH1 0x0 REVERT JUMPDEST POP POP POP POP PUSH1 0x40 MLOAD RETURNDATASIZE PUSH1 0x20 DUP2 LT ISZERO PUSH2 0x2018 JUMPI PUSH1 0x0 DUP1 REVERT JUMPDEST POP MLOAD AND DUP1 ISZERO ISZERO SWAP8 POP SWAP1 POP DUP7 PUSH2 0x2034 JUMPI DUP10 DUP4 PUSH1 0xFF AND DUP7 SUB MUL PUSH2 0x2047 JUMP JUMPDEST DUP10 PUSH2 0x203E DUP3 PUSH2 0x2314 JUMP JUMPDEST DUP5 SUB PUSH1 0xFF AND DUP7 SUB MUL JUMPDEST SWAP8 POP POP POP POP POP PUSH2 0x2128 JUMP JUMPDEST PUSH1 0x0 DUP1 PUSH2 0x2061 DUP4 PUSH1 0x1 ADD PUSH2 0x2302 JUMP JUMPDEST SWAP2 POP SWAP2 POP PUSH1 0x0 PUSH1 0x1 DUP3 PUSH1 0xFF AND PUSH1 0x1 SWAP1 SHL SUB NOT SWAP1 POP PUSH1 0x0 DUP2 DUP7 PUSH1 0x1 PUSH1 0x1 PUSH1 0xA0 SHL SUB AND PUSH4 0x5339C296 DUP7 PUSH1 0x40 MLOAD DUP3 PUSH4 0xFFFFFFFF AND PUSH1 0xE0 SHL DUP2 MSTORE PUSH1 0x4 ADD DUP1 DUP3 PUSH1 0x1 SIGNEXTEND DUP2 MSTORE PUSH1 0x20 ADD SWAP2 POP POP PUSH1 0x20 PUSH1 0x40 MLOAD DUP1 DUP4 SUB DUP2 DUP7 DUP1 EXTCODESIZE ISZERO DUP1 ISZERO PUSH2 0x20BF JUMPI PUSH1 0x0 DUP1 REVERT JUMPDEST POP GAS STATICCALL ISZERO DUP1 ISZERO PUSH2 0x20D3 JUMPI RETURNDATASIZE PUSH1 0x0 DUP1 RETURNDATACOPY RETURNDATASIZE PUSH1 0x0 REVERT JUMPDEST POP POP POP POP PUSH1 0x40 MLOAD RETURNDATASIZE PUSH1 0x20 DUP2 LT ISZERO PUSH2 0x20E9 JUMPI PUSH1 0x0 DUP1 REVERT JUMPDEST POP MLOAD AND DUP1 ISZERO ISZERO SWAP8 POP SWAP1 POP DUP7 PUSH2 0x210B JUMPI DUP10 DUP4 PUSH1 0xFF SUB PUSH1 0xFF AND DUP7 PUSH1 0x1 ADD ADD MUL PUSH2 0x2121 JUMP JUMPDEST DUP10 DUP4 PUSH2 0x2116 DUP4 PUSH2 0x23B4 JUMP JUMPDEST SUB PUSH1 0xFF AND DUP7 PUSH1 0x1 ADD ADD MUL JUMPDEST SWAP8 POP POP POP POP POP JUMPDEST POP POP SWAP5 POP SWAP5 SWAP3 POP POP POP JUMP JUMPDEST DUP1 DUP3 DIV SWAP2 MOD ISZERO ISZERO ADD SWAP1 JUMP JUMPDEST PUSH1 0x0 DUP2 ISZERO PUSH2 0x21B1 JUMPI PUSH1 0x0 PUSH1 0x1 PUSH1 0x1 PUSH1 0xA0 SHL SUB DUP5 GT ISZERO PUSH2 0x2174 JUMPI PUSH2 0x216F DUP5 PUSH1 0x1 PUSH1 0x60 SHL DUP8 PUSH1 0x1 PUSH1 0x1 PUSH1 0x80 SHL SUB AND PUSH2 0x1B56 JUMP JUMPDEST PUSH2 0x218C JUMP JUMPDEST PUSH1 0x1 PUSH1 0x1 PUSH1 0x80 SHL SUB DUP6 AND PUSH1 0x60 DUP6 SWAP1 SHL DUP2 PUSH2 0x218A JUMPI INVALID JUMPDEST DIV JUMPDEST SWAP1 POP PUSH2 0x21A9 PUSH2 0x21A4 PUSH1 0x1 PUSH1 0x1 PUSH1 0xA0 SHL SUB DUP9 AND DUP4 PUSH2 0x249E JUMP JUMPDEST PUSH2 0x24AE JUMP JUMPDEST SWAP2 POP POP PUSH2 0x842 JUMP JUMPDEST PUSH1 0x0 PUSH1 0x1 PUSH1 0x1 PUSH1 0xA0 SHL SUB DUP5 GT ISZERO PUSH2 0x21DF JUMPI PUSH2 0x21DA DUP5 PUSH1 0x1 PUSH1 0x60 SHL DUP8 PUSH1 0x1 PUSH1 0x1 PUSH1 0x80 SHL SUB AND PUSH2 0x1DC1 JUMP JUMPDEST PUSH2 0x21F6 JUMP JUMPDEST PUSH2 0x21F6 PUSH1 0x60 DUP6 SWAP1 SHL PUSH1 0x1 PUSH1 0x1 PUSH1 0x80 SHL SUB DUP8 AND PUSH2 0x2133 JUMP JUMPDEST SWAP1 POP DUP1 DUP7 PUSH1 0x1 PUSH1 0x1 PUSH1 0xA0 SHL SUB AND GT PUSH2 0x220D JUMPI PUSH1 0x0 DUP1 REVERT JUMPDEST PUSH1 0x1 PUSH1 0x1 PUSH1 0xA0 SHL SUB DUP7 AND SUB SWAP1 POP PUSH2 0x842 JUMP JUMPDEST PUSH1 0x0 DUP3 PUSH2 0x222D JUMPI POP DUP4 PUSH2 0x842 JUMP JUMPDEST PUSH1 0x1 PUSH1 0x60 SHL PUSH1 0x1 PUSH1 0xE0 SHL SUB PUSH1 0x60 DUP6 SWAP1 SHL AND DUP3 ISZERO PUSH2 0x22BB JUMPI PUSH1 0x1 PUSH1 0x1 PUSH1 0xA0 SHL SUB DUP7 AND DUP5 DUP2 MUL SWAP1 DUP6 DUP3 DUP2 PUSH2 0x225B JUMPI INVALID JUMPDEST DIV EQ ISZERO PUSH2 0x228C JUMPI DUP2 DUP2 ADD DUP3 DUP2 LT PUSH2 0x228A JUMPI PUSH2 0x2280 DUP4 DUP10 PUSH1 0x1 PUSH1 0x1 PUSH1 0xA0 SHL SUB AND DUP4 PUSH2 0x1DC1 JUMP JUMPDEST SWAP4 POP POP POP POP PUSH2 0x842 JUMP JUMPDEST POP JUMPDEST PUSH2 0x22B2 DUP3 PUSH2 0x22AD DUP8 DUP11 PUSH1 0x1 PUSH1 0x1 PUSH1 0xA0 SHL SUB AND DUP7 DUP2 PUSH2 0x22A6 JUMPI INVALID JUMPDEST DIV SWAP1 PUSH2 0x249E JUMP JUMPDEST PUSH2 0x2133 JUMP JUMPDEST SWAP3 POP POP POP PUSH2 0x842 JUMP JUMPDEST PUSH1 0x1 PUSH1 0x1 PUSH1 0xA0 SHL SUB DUP7 AND DUP5 DUP2 MUL SWAP1 DUP6 DUP3 DUP2 PUSH2 0x22D2 JUMPI INVALID JUMPDEST DIV EQ DUP1 ISZERO PUSH2 0x22DF JUMPI POP DUP1 DUP3 GT JUMPDEST PUSH2 0x22E8 JUMPI PUSH1 0x0 DUP1 REVERT JUMPDEST DUP1 DUP3 SUB PUSH2 0x2280 PUSH2 0x21A4 DUP5 PUSH1 0x1 PUSH1 0x1 PUSH1 0xA0 SHL SUB DUP12 AND DUP5 PUSH2 0x1DC1 JUMP JUMPDEST PUSH1 0x2 SIGNEXTEND PUSH1 0x8 DUP2 SWAP1 SAR SWAP2 PUSH2 0x100 SWAP1 SWAP2 SMOD SWAP1 JUMP JUMPDEST PUSH1 0x0 DUP1 DUP3 GT PUSH2 0x2322 JUMPI PUSH1 0x0 DUP1 REVERT JUMPDEST PUSH1 0x1 PUSH1 0x80 SHL DUP3 LT PUSH2 0x2335 JUMPI PUSH1 0x80 SWAP2 DUP3 SHR SWAP2 ADD JUMPDEST PUSH9 0x10000000000000000 DUP3 LT PUSH2 0x234D JUMPI PUSH1 0x40 SWAP2 DUP3 SHR SWAP2 ADD JUMPDEST PUSH5 0x100000000 DUP3 LT PUSH2 0x2361 JUMPI PUSH1 0x20 SWAP2 DUP3 SHR SWAP2 ADD JUMPDEST PUSH3 0x10000 DUP3 LT PUSH2 0x2373 JUMPI PUSH1 0x10 SWAP2 DUP3 SHR SWAP2 ADD JUMPDEST PUSH2 0x100 DUP3 LT PUSH2 0x2384 JUMPI PUSH1 0x8 SWAP2 DUP3 SHR SWAP2 ADD JUMPDEST PUSH1 0x10 DUP3 LT PUSH2 0x2394 JUMPI PUSH1 0x4 SWAP2 DUP3 SHR SWAP2 ADD JUMPDEST PUSH1 0x4 DUP3 LT PUSH2 0x23A4 JUMPI PUSH1 0x2 SWAP2 DUP3 SHR SWAP2 ADD JUMPDEST PUSH1 0x2 DUP3 LT PUSH2 0x52F JUMPI PUSH1 0x1 ADD SWAP2 SWAP1 POP JUMP JUMPDEST PUSH1 0x0 DUP1 DUP3 GT PUSH2 0x23C2 JUMPI PUSH1 0x0 DUP1 REVERT JUMPDEST POP PUSH1 0xFF PUSH1 0x1 PUSH1 0x1 PUSH1 0x80 SHL SUB DUP3 AND ISZERO PUSH2 0x23DD JUMPI PUSH1 0x7F NOT ADD PUSH2 0x23E5 JUMP JUMPDEST PUSH1 0x80 DUP3 SWAP1 SHR SWAP2 POP JUMPDEST PUSH8 0xFFFFFFFFFFFFFFFF DUP3 AND ISZERO PUSH2 0x23FE JUMPI PUSH1 0x3F NOT ADD PUSH2 0x2406 JUMP JUMPDEST PUSH1 0x40 DUP3 SWAP1 SHR SWAP2 POP JUMPDEST PUSH4 0xFFFFFFFF DUP3 AND ISZERO PUSH2 0x241B JUMPI PUSH1 0x1F NOT ADD PUSH2 0x2423 JUMP JUMPDEST PUSH1 0x20 DUP3 SWAP1 SHR SWAP2 POP JUMPDEST PUSH2 0xFFFF DUP3 AND ISZERO PUSH2 0x2436 JUMPI PUSH1 0xF NOT ADD PUSH2 0x243E JUMP JUMPDEST PUSH1 0x10 DUP3 SWAP1 SHR SWAP2 POP JUMPDEST PUSH1 0xFF DUP3 AND ISZERO PUSH2 0x2450 JUMPI PUSH1 0x7 NOT ADD PUSH2 0x2458 JUMP JUMPDEST PUSH1 0x8 DUP3 SWAP1 SHR SWAP2 POP JUMPDEST PUSH1 0xF DUP3 AND ISZERO PUSH2 0x246A JUMPI PUSH1 0x3 NOT ADD PUSH2 0x2472 JUMP JUMPDEST PUSH1 0x4 DUP3 SWAP1 SHR SWAP2 POP JUMPDEST PUSH1 0x3 DUP3 AND ISZERO PUSH2 0x2484 JUMPI PUSH1 0x1 NOT ADD PUSH2 0x248C JUMP JUMPDEST PUSH1 0x2 DUP3 SWAP1 SHR SWAP2 POP JUMPDEST PUSH1 0x1 DUP3 AND ISZERO PUSH2 0x52F JUMPI PUSH1 0x0 NOT ADD SWAP2 SWAP1 POP JUMP JUMPDEST DUP1 DUP3 ADD DUP3 DUP2 LT ISZERO PUSH2 0x1C5 JUMPI PUSH1 0x0 DUP1 REVERT JUMPDEST DUP1 PUSH1 0x1 PUSH1 0x1 PUSH1 0xA0 SHL SUB DUP2 AND DUP2 EQ PUSH2 0x52F JUMPI PUSH1 0x0 DUP1 REVERT JUMPDEST PUSH1 0x40 DUP1 MLOAD PUSH1 0xE0 DUP2 ADD DUP3 MSTORE PUSH1 0x0 DUP1 DUP3 MSTORE PUSH1 0x20 DUP3 ADD DUP2 SWAP1 MSTORE SWAP2 DUP2 ADD DUP3 SWAP1 MSTORE PUSH1 0x60 DUP2 ADD DUP3 SWAP1 MSTORE PUSH1 0x80 DUP2 ADD DUP3 SWAP1 MSTORE PUSH1 0xA0 DUP2 ADD DUP3 SWAP1 MSTORE PUSH1 0xC0 DUP2 ADD SWAP2 SWAP1 SWAP2 MSTORE SWAP1 JUMP JUMPDEST PUSH1 0x40 DUP1 MLOAD PUSH1 0xA0 DUP2 ADD DUP3 MSTORE PUSH1 0x0 DUP1 DUP3 MSTORE PUSH1 0x20 DUP3 ADD DUP2 SWAP1 MSTORE SWAP2 DUP2 ADD DUP3 SWAP1 MSTORE PUSH1 0x60 DUP2 ADD DUP3 SWAP1 MSTORE PUSH1 0x80 DUP2 ADD SWAP2 SWAP1 SWAP2 MSTORE SWAP1 JUMP JUMPDEST PUSH1 0x40 DUP1 MLOAD PUSH1 0x60 DUP2 ADD DUP3 MSTORE PUSH1 0x0 DUP1 DUP3 MSTORE PUSH1 0x20 DUP3 ADD DUP2 SWAP1 MSTORE SWAP2 DUP2 ADD SWAP2 SWAP1 SWAP2 MSTORE SWAP1 JUMP JUMPDEST PUSH1 0x0 PUSH1 0xA0 DUP3 DUP5 SUB SLT ISZERO PUSH2 0x255F JUMPI DUP1 DUP2 REVERT JUMPDEST PUSH1 0x40 MLOAD PUSH1 0xA0 DUP2 ADD DUP2 DUP2 LT PUSH8 0xFFFFFFFFFFFFFFFF DUP3 GT OR ISZERO PUSH2 0x257C JUMPI INVALID JUMPDEST PUSH1 0x40 MSTORE SWAP1 POP DUP1 DUP3 CALLDATALOAD PUSH2 0x258D DUP2 PUSH2 0x279C JUMP JUMPDEST DUP2 MSTORE PUSH1 0x20 DUP4 ADD CALLDATALOAD PUSH2 0x259D DUP2 PUSH2 0x279C JUMP JUMPDEST PUSH1 0x20 DUP3 ADD MSTORE PUSH1 0x40 DUP4 DUP2 ADD CALLDATALOAD SWAP1 DUP3 ADD MSTORE PUSH1 0x60 DUP4 ADD CALLDATALOAD PUSH2 0x25BA DUP2 PUSH2 0x27B4 JUMP JUMPDEST PUSH1 0x60 DUP3 ADD MSTORE PUSH1 0x80 DUP4 ADD CALLDATALOAD PUSH2 0x25CD DUP2 PUSH2 0x279C JUMP JUMPDEST PUSH1 0x80 SWAP2 SWAP1 SWAP2 ADD MSTORE SWAP3 SWAP2 POP POP JUMP JUMPDEST PUSH1 0x0 PUSH1 0x20 DUP3 DUP5 SUB SLT ISZERO PUSH2 0x25EB JUMPI DUP1 DUP2 REVERT JUMPDEST DUP2 MLOAD PUSH2 0xBD1 DUP2 PUSH2 0x279C JUMP JUMPDEST PUSH1 0x0 DUP1 PUSH1 0x0 DUP1 PUSH1 0x80 DUP6 DUP8 SUB SLT ISZERO PUSH2 0x260B JUMPI DUP3 DUP4 REVERT JUMPDEST DUP5 CALLDATALOAD PUSH2 0x2616 DUP2 PUSH2 0x279C JUMP JUMPDEST SWAP4 POP PUSH1 0x20 DUP6 ADD CALLDATALOAD PUSH2 0x2626 DUP2 PUSH2 0x279C JUMP JUMPDEST SWAP3 POP PUSH1 0x40 DUP6 ADD CALLDATALOAD PUSH2 0x2636 DUP2 PUSH2 0x279C JUMP JUMPDEST SWAP4 SWAP7 SWAP3 SWAP6 POP SWAP3 SWAP4 PUSH1 0x60 ADD CALLDATALOAD SWAP3 POP POP JUMP JUMPDEST PUSH1 0x0 DUP1 PUSH1 0x0 DUP1 PUSH1 0x80 DUP6 DUP8 SUB SLT ISZERO PUSH2 0x265B JUMPI DUP4 DUP5 REVERT JUMPDEST DUP5 CALLDATALOAD PUSH2 0x2666 DUP2 PUSH2 0x279C JUMP JUMPDEST SWAP4 POP PUSH1 0x20 DUP6 ADD CALLDATALOAD DUP1 ISZERO ISZERO DUP2 EQ PUSH2 0x267A JUMPI DUP4 DUP5 REVERT JUMPDEST SWAP3 POP PUSH1 0x40 DUP6 ADD CALLDATALOAD SWAP2 POP PUSH1 0x60 DUP6 ADD CALLDATALOAD PUSH2 0x2691 DUP2 PUSH2 0x279C JUMP JUMPDEST SWAP4 SWAP7 SWAP3 SWAP6 POP SWAP1 SWAP4 POP POP JUMP JUMPDEST PUSH1 0x0 DUP1 PUSH1 0x40 DUP4 DUP6 SUB SLT ISZERO PUSH2 0x26AE JUMPI DUP2 DUP3 REVERT JUMPDEST DUP3 CALLDATALOAD PUSH8 0xFFFFFFFFFFFFFFFF DUP1 DUP3 GT ISZERO PUSH2 0x26C5 JUMPI DUP4 DUP5 REVERT JUMPDEST DUP2 DUP6 ADD SWAP2 POP DUP6 PUSH1 0x1F DUP4 ADD SLT PUSH2 0x26D8 JUMPI DUP4 DUP5 REVERT JUMPDEST DUP2 CALLDATALOAD PUSH1 0x20 DUP3 DUP3 GT ISZERO PUSH2 0x26E6 JUMPI INVALID JUMPDEST PUSH2 0x26F8 PUSH1 0x1F DUP4 ADD PUSH1 0x1F NOT AND DUP3 ADD PUSH2 0x2778 JUMP JUMPDEST SWAP3 POP DUP2 DUP4 MSTORE DUP8 DUP2 DUP4 DUP7 ADD ADD GT ISZERO PUSH2 0x270D JUMPI DUP6 DUP7 REVERT JUMPDEST DUP2 DUP2 DUP6 ADD DUP3 DUP6 ADD CALLDATACOPY SWAP1 DUP3 ADD DUP2 ADD SWAP5 SWAP1 SWAP5 MSTORE SWAP6 SWAP4 SWAP1 SWAP3 ADD CALLDATALOAD SWAP4 POP POP POP JUMP JUMPDEST PUSH1 0x0 PUSH1 0xA0 DUP3 DUP5 SUB SLT ISZERO PUSH2 0x273B JUMPI DUP1 DUP2 REVERT JUMPDEST PUSH2 0xBD1 DUP4 DUP4 PUSH2 0x254E JUMP JUMPDEST PUSH1 0x0 PUSH1 0x20 DUP3 DUP5 SUB SLT ISZERO PUSH2 0x2756 JUMPI DUP1 DUP2 REVERT JUMPDEST DUP2 MLOAD PUSH2 0xBD1 DUP2 PUSH2 0x27B4 JUMP JUMPDEST SWAP2 DUP3 MSTORE PUSH1 0x20 DUP3 ADD MSTORE PUSH1 0x40 ADD SWAP1 JUMP JUMPDEST SWAP1 DUP2 MSTORE PUSH1 0x20 ADD SWAP1 JUMP JUMPDEST PUSH1 0x40 MLOAD DUP2 DUP2 ADD PUSH8 0xFFFFFFFFFFFFFFFF DUP2 GT DUP3 DUP3 LT OR ISZERO PUSH2 0x2794 JUMPI INVALID JUMPDEST PUSH1 0x40 MSTORE SWAP2 SWAP1 POP JUMP JUMPDEST PUSH1 0x1 PUSH1 0x1 PUSH1 0xA0 SHL SUB DUP2 AND DUP2 EQ PUSH2 0x27B1 JUMPI PUSH1 0x0 DUP1 REVERT JUMPDEST POP JUMP JUMPDEST PUSH3 0xFFFFFF DUP2 AND DUP2 EQ PUSH2 0x27B1 JUMPI PUSH1 0x0 DUP1 REVERT INVALID LOG2 PUSH5 0x6970667358 0x22 SLT KECCAK256 SLOAD 0xBA PUSH29 0x7FC27E4B8851854201705BBBD884F0E3B7C6637B75AEDEEA8F52C9CEF8 PUSH5 0x736F6C6343 STOP SMOD MOD STOP CALLER "},"gasEstimates":{"creation":{"codeDepositCost":"2047000","executionCost":"infinite","totalCost":"infinite"},"external":{"getAmountIn(address,address,address,uint256)":"infinite","getAmountOut(address,address,address,uint256)":"infinite","quote(address,bool,int256,uint160)":"infinite","quoteExactInput(bytes,uint256)":"infinite","quoteExactInputSingle((address,address,uint256,uint24,uint160))":"infinite","quoteExactOutput(bytes,uint256)":"infinite","quoteExactOutputSingle((address,address,uint256,uint24,uint160))":"infinite"},"internal":{"getPool(address,address,uint24)":"infinite"}},"methodIdentifiers":{"getAmountIn(address,address,address,uint256)":"ec278309","getAmountOut(address,address,address,uint256)":"d7176ca9","quote(address,bool,int256,uint160)":"90405d36","quoteExactInput(bytes,uint256)":"cdca1753","quoteExactInputSingle((address,address,uint256,uint24,uint160))":"c6a5026a","quoteExactOutput(bytes,uint256)":"2f80bb1d","quoteExactOutputSingle((address,address,uint256,uint24,uint160))":"bd21704a"}},"storageLayout":{"storage":[],"types":null},"userdoc":{"kind":"user","methods":{"quoteExactInput(bytes,uint256)":{"notice":"Returns the amount out received for a given exact input swap without executing the swap"},"quoteExactInputSingle((address,address,uint256,uint24,uint160))":{"notice":"Returns the amount out received for a given exact input but for a swap of a single pool"},"quoteExactOutput(bytes,uint256)":{"notice":"Returns the amount in needed for a given exact output swap without executing the swap"},"quoteExactOutputSingle((address,address,uint256,uint24,uint160))":{"notice":"Returns the amount in needed for a given exact output but for a swap of a single pool"}},"version":1}}}}