{
  "_format": "hh-sol-artifact-1",
  "contractName": "UniswapV2StaticQuoter",
  "sourceName": "contracts/UniswapV2StaticQuoter.sol",
  "abi": [
    {
      "inputs": [
        {
          "internalType": "address",
          "name": "_factory",
          "type": "address"
        }
      ],
      "stateMutability": "nonpayable",
      "type": "constructor"
    },
    {
      "inputs": [
        {
          "internalType": "address",
          "name": "tokenIn",
          "type": "address"
        },
        {
          "internalType": "address",
          "name": "tokenOut",
          "type": "address"
        },
        {
          "internalType": "address",
          "name": "pool",
          "type": "address"
        },
        {
          "internalType": "uint256",
          "name": "amountOut",
          "type": "uint256"
        }
      ],
      "name": "getAmountIn",
      "outputs": [
        {
          "internalType": "uint256",
          "name": "amountIn",
          "type": "uint256"
        }
      ],
      "stateMutability": "view",
      "type": "function"
    },
    {
      "inputs": [
        {
          "internalType": "address",
          "name": "tokenIn",
          "type": "address"
        },
        {
          "internalType": "address",
          "name": "tokenOut",
          "type": "address"
        },
        {
          "internalType": "address",
          "name": "pool",
          "type": "address"
        },
        {
          "internalType": "uint256",
          "name": "amountIn",
          "type": "uint256"
        }
      ],
      "name": "getAmountOut",
      "outputs": [
        {
          "internalType": "uint256",
          "name": "amountOut",
          "type": "uint256"
        }
      ],
      "stateMutability": "view",
      "type": "function"
    }
  ],
  "bytecode": "0x60a060405234801561001057600080fd5b5060405161078838038061078883398101604081905261002f91610044565b60601b6001600160601b031916608052610072565b600060208284031215610055578081fd5b81516001600160a01b038116811461006b578182fd5b9392505050565b60805160601c6106fe61008a600039506106fe6000f3fe608060405234801561001057600080fd5b50600436106100365760003560e01c8063d7176ca91461003b578063ec27830914610064575b600080fd5b61004e610049366004610609565b610077565b60405161005b91906106a7565b60405180910390f35b61004e610072366004610609565b610293565b60008281806001600160a01b0380881690891611610096578688610099565b87875b91509150816001600160a01b0316836001600160a01b0316630dfe16816040518163ffffffff1660e01b815260040160206040518083038186803b1580156100e057600080fd5b505afa1580156100f4573d6000803e3d6000fd5b505050506040513d601f19601f8201168201806040525081019061011891906105ed565b6001600160a01b03161415806101b05750806001600160a01b0316836001600160a01b031663d21220a76040518163ffffffff1660e01b815260040160206040518083038186803b15801561016c57600080fd5b505afa158015610180573d6000803e3d6000fd5b505050506040513d601f19601f820116820180604052508101906101a491906105ed565b6001600160a01b031614155b156101c1576000935050505061028b565b600080846001600160a01b0316630902f1ac6040518163ffffffff1660e01b815260040160606040518083038186803b1580156101fd57600080fd5b505afa158015610211573d6000803e3d6000fd5b505050506040513d601f19601f820116820180604052508101906102359190610659565b506001600160701b031691506001600160701b031691506000808a6001600160a01b03168c6001600160a01b03161161026f578284610272565b83835b9150915061028189838361049d565b9750505050505050505b949350505050565b60008281806001600160a01b03808816908916116102b25786886102b5565b87875b91509150816001600160a01b0316836001600160a01b0316630dfe16816040518163ffffffff1660e01b815260040160206040518083038186803b1580156102fc57600080fd5b505afa158015610310573d6000803e3d6000fd5b505050506040513d601f19601f8201168201806040525081019061033491906105ed565b6001600160a01b03161415806103cc5750806001600160a01b0316836001600160a01b031663d21220a76040518163ffffffff1660e01b815260040160206040518083038186803b15801561038857600080fd5b505afa15801561039c573d6000803e3d6000fd5b505050506040513d601f19601f820116820180604052508101906103c091906105ed565b6001600160a01b031614155b156103dd576000935050505061028b565b600080846001600160a01b0316630902f1ac6040518163ffffffff1660e01b815260040160606040518083038186803b15801561041957600080fd5b505afa15801561042d573d6000803e3d6000fd5b505050506040513d601f19601f820116820180604052508101906104519190610659565b506001600160701b031691506001600160701b031691506000808a6001600160a01b03168c6001600160a01b03161161048b57828461048e565b83835b91509150610281898383610513565b6000836104ac5750600061050c565b8215806104b7575081155b156104c45750600061050c565b60006104d2856103e5610587565b905060006104e08285610587565b905060006104fa836104f4886103e8610587565b906105b1565b905080828161050557fe5b0493505050505b9392505050565b6000836105225750600061050c565b82158061052d575081155b1561053a5750600061050c565b60006105526103e861054c8688610587565b90610587565b905060006105666103e561054c86896105c1565b905061057d600182848161057657fe5b04906105b1565b9695505050505050565b60008215806105a25750508181028183828161059f57fe5b04145b6105ab57600080fd5b92915050565b808201828110156105ab57600080fd5b808203828111156105ab57600080fd5b80516001600160701b03811681146105e857600080fd5b919050565b6000602082840312156105fe578081fd5b815161050c816106b0565b6000806000806080858703121561061e578283fd5b8435610629816106b0565b93506020850135610639816106b0565b92506040850135610649816106b0565b9396929550929360600135925050565b60008060006060848603121561066d578283fd5b610676846105d1565b9250610684602085016105d1565b9150604084015163ffffffff8116811461069c578182fd5b809150509250925092565b90815260200190565b6001600160a01b03811681146106c557600080fd5b5056fea2646970667358221220a763acf5bbb21bfd328d30998cec011bb364081862ddf489061186484b0a4fda64736f6c63430007060033",
  "linkReferences": {},
  "deployedLinkReferences": {}
}