{
  "_format": "hh-sol-artifact-1",
  "contractName": "UniswapStaticQuoter",
  "sourceName": "contracts/UniswapStaticQuoter.sol",
  "abi": [
    {
      "inputs": [
        {
          "internalType": "bytes",
          "name": "path",
          "type": "bytes"
        }
      ],
      "name": "decodePath",
      "outputs": [
        {
          "components": [
            {
              "internalType": "address",
              "name": "tokenIn",
              "type": "address"
            },
            {
              "internalType": "address",
              "name": "tokenOut",
              "type": "address"
            },
            {
              "internalType": "address",
              "name": "pool",
              "type": "address"
            },
            {
              "internalType": "uint8",
              "name": "poolType",
              "type": "uint8"
            },
            {
              "internalType": "uint8",
              "name": "feePercent",
              "type": "uint8"
            },
            {
              "internalType": "uint8",
              "name": "maxPercent",
              "type": "uint8"
            }
          ],
          "internalType": "struct UniswapStaticQuoter.Route[]",
          "name": "",
          "type": "tuple[]"
        }
      ],
      "stateMutability": "pure",
      "type": "function"
    },
    {
      "inputs": [
        {
          "internalType": "bytes",
          "name": "path",
          "type": "bytes"
        },
        {
          "internalType": "uint256",
          "name": "amount",
          "type": "uint256"
        }
      ],
      "name": "getAmountIn",
      "outputs": [
        {
          "internalType": "uint256[]",
          "name": "",
          "type": "uint256[]"
        }
      ],
      "stateMutability": "view",
      "type": "function"
    },
    {
      "inputs": [
        {
          "internalType": "address",
          "name": "tokenIn",
          "type": "address"
        },
        {
          "internalType": "address",
          "name": "tokenOut",
          "type": "address"
        },
        {
          "internalType": "address",
          "name": "pool",
          "type": "address"
        },
        {
          "internalType": "uint8",
          "name": "feePercent",
          "type": "uint8"
        },
        {
          "internalType": "uint8",
          "name": "maxPercent",
          "type": "uint8"
        },
        {
          "internalType": "uint256",
          "name": "amountOut",
          "type": "uint256"
        }
      ],
      "name": "getAmountInV2",
      "outputs": [
        {
          "internalType": "uint256",
          "name": "amountIn",
          "type": "uint256"
        }
      ],
      "stateMutability": "view",
      "type": "function"
    },
    {
      "inputs": [
        {
          "internalType": "address",
          "name": "tokenIn",
          "type": "address"
        },
        {
          "internalType": "address",
          "name": "tokenOut",
          "type": "address"
        },
        {
          "internalType": "address",
          "name": "pool",
          "type": "address"
        },
        {
          "internalType": "uint256",
          "name": "amountOut",
          "type": "uint256"
        }
      ],
      "name": "getAmountInV3",
      "outputs": [
        {
          "internalType": "uint256",
          "name": "amountIn",
          "type": "uint256"
        }
      ],
      "stateMutability": "view",
      "type": "function"
    },
    {
      "inputs": [
        {
          "internalType": "bytes",
          "name": "path",
          "type": "bytes"
        },
        {
          "internalType": "uint256",
          "name": "amount",
          "type": "uint256"
        }
      ],
      "name": "getAmountOut",
      "outputs": [
        {
          "internalType": "uint256[]",
          "name": "",
          "type": "uint256[]"
        }
      ],
      "stateMutability": "view",
      "type": "function"
    },
    {
      "inputs": [
        {
          "internalType": "address",
          "name": "tokenIn",
          "type": "address"
        },
        {
          "internalType": "address",
          "name": "tokenOut",
          "type": "address"
        },
        {
          "internalType": "address",
          "name": "pool",
          "type": "address"
        },
        {
          "internalType": "uint8",
          "name": "feePercent",
          "type": "uint8"
        },
        {
          "internalType": "uint8",
          "name": "maxPercent",
          "type": "uint8"
        },
        {
          "internalType": "uint256",
          "name": "amountIn",
          "type": "uint256"
        }
      ],
      "name": "getAmountOutV2",
      "outputs": [
        {
          "internalType": "uint256",
          "name": "amountOut",
          "type": "uint256"
        }
      ],
      "stateMutability": "view",
      "type": "function"
    },
    {
      "inputs": [
        {
          "internalType": "address",
          "name": "tokenIn",
          "type": "address"
        },
        {
          "internalType": "address",
          "name": "tokenOut",
          "type": "address"
        },
        {
          "internalType": "address",
          "name": "pool",
          "type": "address"
        },
        {
          "internalType": "uint256",
          "name": "amountIn",
          "type": "uint256"
        }
      ],
      "name": "getAmountOutV3",
      "outputs": [
        {
          "internalType": "uint256",
          "name": "amountOut",
          "type": "uint256"
        }
      ],
      "stateMutability": "view",
      "type": "function"
    },
    {
      "inputs": [
        {
          "internalType": "address",
          "name": "poolAddress",
          "type": "address"
        },
        {
          "internalType": "bool",
          "name": "zeroForOne",
          "type": "bool"
        },
        {
          "internalType": "int256",
          "name": "amountSpecified",
          "type": "int256"
        },
        {
          "internalType": "uint160",
          "name": "sqrtPriceLimitX96",
          "type": "uint160"
        }
      ],
      "name": "quote",
      "outputs": [
        {
          "internalType": "int256",
          "name": "amount0",
          "type": "int256"
        },
        {
          "internalType": "int256",
          "name": "amount1",
          "type": "int256"
        }
      ],
      "stateMutability": "view",
      "type": "function"
    }
  ],
  "bytecode": "0x608060405234801561001057600080fd5b50612c49806100206000396000f3fe608060405234801561001057600080fd5b50600436106100875760003560e01c806377cd49e41161005b57806377cd49e4146100fb57806390405d361461010e57806397de0a841461012f578063c25ddce01461014257610087565b8062614b2e1461008c5780632d0f9a30146100b557806353201a4c146100d55780636e95d3d8146100e8575b600080fd5b61009f61009a366004612a4b565b610162565b6040516100ac9190612b6d565b60405180910390f35b6100c86100c33660046127ca565b6102f6565b6040516100ac9190612bbf565b6100c86100e336600461281a565b6104b2565b6100c86100f63660046127ca565b6106d2565b61009f610109366004612a4b565b61087b565b61012161011c366004612892565b610a07565b6040516100ac929190612bb1565b6100c861013d36600461281a565b610cc5565b610155610150366004612a18565b610ed1565b6040516100ac9190612adc565b606060008380602001905181019061017a91906128e8565b90506000815167ffffffffffffffff8111801561019657600080fd5b506040519080825280602002602001820160405280156101c0578160200160208202803683370190505b508251909150600019015b8281815181106101d757fe5b60200260200101516060015160ff16600014156102765761026f8382815181106101fd57fe5b60200260200101516000015184838151811061021557fe5b60200260200101516020015185848151811061022d57fe5b60200260200101516040015186858151811061024557fe5b60200260200101516080015187868151811061025d57fe5b602002602001015160a001518a6104b2565b94506102ca565b6102c783828151811061028557fe5b60200260200101516000015184838151811061029d57fe5b6020026020010151602001518584815181106102b557fe5b602002602001015160400151886106d2565b94505b848282815181106102d757fe5b6020908102919091010152600019016101cb565b509150505b92915050565b60008281806001600160a01b0380881690891610610315578688610318565b87875b91509150816001600160a01b0316836001600160a01b0316630dfe16816040518163ffffffff1660e01b815260040160206040518083038186803b15801561035f57600080fd5b505afa158015610373573d6000803e3d6000fd5b505050506040513d601f19601f8201168201806040525081019061039791906127ae565b6001600160a01b031614158061042f5750806001600160a01b0316836001600160a01b031663d21220a76040518163ffffffff1660e01b815260040160206040518083038186803b1580156103eb57600080fd5b505afa1580156103ff573d6000803e3d6000fd5b505050506040513d601f19601f8201168201806040525081019061042391906127ae565b6001600160a01b031614155b1561044057600093505050506104aa565b6001600160a01b038088169089161060008061048a89846104608b610eef565b8661047f5773fffd8963efd1fc6a506488495d951d5263988d2561011c565b6401000276a4610a07565b915091508261049c57816000036104a1565b806000035b96505050505050505b949350505050565b60008481806001600160a01b03808a16908b16106104d157888a6104d4565b89895b91509150816001600160a01b0316836001600160a01b0316630dfe16816040518163ffffffff1660e01b815260040160206040518083038186803b15801561051b57600080fd5b505afa15801561052f573d6000803e3d6000fd5b505050506040513d601f19601f8201168201806040525081019061055391906127ae565b6001600160a01b03161415806105eb5750806001600160a01b0316836001600160a01b031663d21220a76040518163ffffffff1660e01b815260040160206040518083038186803b1580156105a757600080fd5b505afa1580156105bb573d6000803e3d6000fd5b505050506040513d601f19601f820116820180604052508101906105df91906127ae565b6001600160a01b031614155b156105fc57600093505050506106c8565b600080846001600160a01b0316630902f1ac6040518163ffffffff1660e01b815260040160606040518083038186803b15801561063857600080fd5b505afa15801561064c573d6000803e3d6000fd5b505050506040513d601f19601f820116820180604052508101906106709190612a8e565b506001600160701b031691506001600160701b031691506000808c6001600160a01b03168e6001600160a01b0316106106aa5782846106ad565b83835b915091506106be8983838e8e610f05565b9750505050505050505b9695505050505050565b60008281806001600160a01b03808816908916106106f15786886106f4565b87875b91509150816001600160a01b0316836001600160a01b0316630dfe16816040518163ffffffff1660e01b815260040160206040518083038186803b15801561073b57600080fd5b505afa15801561074f573d6000803e3d6000fd5b505050506040513d601f19601f8201168201806040525081019061077391906127ae565b6001600160a01b031614158061080b5750806001600160a01b0316836001600160a01b031663d21220a76040518163ffffffff1660e01b815260040160206040518083038186803b1580156107c757600080fd5b505afa1580156107db573d6000803e3d6000fd5b505050506040513d601f19601f820116820180604052508101906107ff91906127ae565b6001600160a01b031614155b1561081c57600093505050506104aa565b6001600160a01b038088169089161060008061085e898461083c8b610eef565b6000038661047f5773fffd8963efd1fc6a506488495d951d5263988d2561011c565b915091508261086d57806104a1565b509998505050505050505050565b606060008380602001905181019061089391906128e8565b90506000815167ffffffffffffffff811180156108af57600080fd5b506040519080825280602002602001820160405280156108d9578160200160208202803683370190505b50905060005b82518110156102eb578281815181106108f457fe5b60200260200101516060015160ff16600014156109935761098c83828151811061091a57fe5b60200260200101516000015184838151811061093257fe5b60200260200101516020015185848151811061094a57fe5b60200260200101516040015186858151811061096257fe5b60200260200101516080015187868151811061097a57fe5b602002602001015160a001518a610cc5565b94506109e7565b6109e48382815181106109a257fe5b6020026020010151600001518483815181106109ba57fe5b6020026020010151602001518584815181106109d257fe5b602002602001015160400151886102f6565b94505b848282815181106109f457fe5b60209081029190910101526001016108df565b60008083610a5c576040805162461bcd60e51b815260206004820152601e60248201527f616d6f756e745370656369666965642063616e6e6f74206265207a65726f0000604482015290519081900360640190fd5b6000808513908080610a708a8a8a8a610f7f565b9250925092505b805115801590610a9d5750866001600160a01b031681604001516001600160a01b031614155b15610c8e57610aaa612692565b60408201516001600160a01b031681526060820151610acc908c90868d611012565b6001600160a01b031660608401819052901515604080850191909152600292830b90920b602084015290830151610b1a91610b09908d908c61106f565b6080850151855161ffff88166110bc565b60c085015260a084015260808301526001600160a01b031660408301528415610b7c57610b508160c00151826080015101610eef565b825103825260a0810151610b7290610b6790610eef565b6020840151906112ae565b6020830152610bb7565b610b898160a00151610eef565b825101825260c08101516080820151610bb191610ba69101610eef565b6020840151906112c4565b60208301525b80606001516001600160a01b031682604001516001600160a01b03161415610c4d57806040015115610c24576000610bf38c83602001516112da565b5050505050509150508a15610c06576000035b610c148360800151826113a1565b6001600160801b03166080840152505b89610c33578060200151610c3c565b60018160200151035b600290810b900b6060830152610c88565b80600001516001600160a01b031682604001516001600160a01b031614610c8857610c7b8260400151611457565b600290810b900b60608301525b50610a77565b83151589151514610ca757602081015181518903610cb4565b8060000151880381602001515b909b909a5098505050505050505050565b60008481806001600160a01b03808a16908b1610610ce457888a610ce7565b89895b91509150816001600160a01b0316836001600160a01b0316630dfe16816040518163ffffffff1660e01b815260040160206040518083038186803b158015610d2e57600080fd5b505afa158015610d42573d6000803e3d6000fd5b505050506040513d601f19601f82011682018060405250810190610d6691906127ae565b6001600160a01b0316141580610dfe5750806001600160a01b0316836001600160a01b031663d21220a76040518163ffffffff1660e01b815260040160206040518083038186803b158015610dba57600080fd5b505afa158015610dce573d6000803e3d6000fd5b505050506040513d601f19601f82011682018060405250810190610df291906127ae565b6001600160a01b031614155b15610e0f57600093505050506106c8565b600080846001600160a01b0316630902f1ac6040518163ffffffff1660e01b815260040160606040518083038186803b158015610e4b57600080fd5b505afa158015610e5f573d6000803e3d6000fd5b505050506040513d601f19601f82011682018060405250810190610e839190612a8e565b506001600160701b031691506001600160701b031691506000808c6001600160a01b03168e6001600160a01b031610610ebd578284610ec0565b83835b915091506106be8983838e8e611776565b606081806020019051810190610ee791906128e8565b90505b919050565b6000600160ff1b8210610f0157600080fd5b5090565b600085610f1457506000610f76565b841580610f1f575083155b15610f2c57506000610f76565b6000610f4560ff8416610f3f888a6117ee565b906117ee565b90506000610f5a60ff8616610f3f888b611812565b9050610f716001828481610f6a57fe5b0490611822565b925050505b95945050505050565b600080610f8a6126ce565b6000610f9588611832565b9050610fa6878683600001516118e0565b610faf886119b1565b9350806040015192506040518060a001604052808781526020016000815260200182600001516001600160a01b03168152602001826020015160020b8152602001610ff98a611a1e565b6001600160801b03168152509150509450945094915050565b600080600061102387878787611a59565b9093509150620d89e719600284900b121561104457620d89e719925061105a565b620d89e8600284900b131561105a57620d89e892505b61106383611a75565b90509450945094915050565b60008361109057816001600160a01b0316836001600160a01b0316116110a6565b816001600160a01b0316836001600160a01b0316105b6110b057826110b2565b815b90505b9392505050565b60008080806001600160a01b03808916908a1610158187128015906111415760006110f58989620f42400362ffffff16620f4240611da7565b90508261110e576111098c8c8c6001611e56565b61111b565b61111b8b8d8c6001611ec6565b955085811061112c578a965061113b565b6111388c8b8386611f71565b96505b5061118b565b81611158576111538b8b8b6000611ec6565b611165565b6111658a8c8b6000611e56565b93508388600003106111795789955061118b565b6111888b8a8a60000385611fbd565b95505b6001600160a01b038a81169087161482156111ee578080156111aa5750815b6111c0576111bb878d8c6001611ec6565b6111c2565b855b95508080156111cf575081155b6111e5576111e0878d8c6000611e56565b6111e7565b845b9450611238565b8080156111f85750815b61120e576112098c888c6001611e56565b611210565b855b955080801561121d575081155b6112335761122e8c888c6000611ec6565b611235565b845b94505b8115801561124857508860000385115b15611254578860000394505b81801561127357508a6001600160a01b0316876001600160a01b031614155b1561128257858903935061129f565b61129c868962ffffff168a620f42400362ffffff16612009565b93505b50505095509550955095915050565b808203828113156000831215146102f057600080fd5b818101828112156000831215146102f057600080fd5b600080600080600080600080896001600160a01b031663f30dba938a6040518263ffffffff1660e01b8152600401808260020b81526020019150506101006040518083038186803b15801561132e57600080fd5b505afa158015611342573d6000803e3d6000fd5b505050506040513d61010081101561135957600080fd5b508051602082015160408301516060840151608085015160a086015160c087015160e090970151959e50939c50919a5098509650945090925090509295985092959890939650565b60008082600f0b121561140657826001600160801b03168260000384039150816001600160801b031610611401576040805162461bcd60e51b81526020600482015260026024820152614c5360f01b604482015290519081900360640190fd5b6102f0565b826001600160801b03168284019150816001600160801b031610156102f0576040805162461bcd60e51b81526020600482015260026024820152614c4160f01b604482015290519081900360640190fd5b60006401000276a36001600160a01b03831610801590611493575073fffd8963efd1fc6a506488495d951d5263988d266001600160a01b038316105b6114c8576040805162461bcd60e51b81526020600482015260016024820152602960f91b604482015290519081900360640190fd5b640100000000600160c01b03602083901b166001600160801b03811160071b81811c67ffffffffffffffff811160061b90811c63ffffffff811160051b90811c61ffff811160041b90811c60ff8111600390811b91821c600f811160021b90811c918211600190811b92831c9790881196179094179092171790911717176080811061155c57607f810383901c9150611566565b80607f0383901b91505b908002607f81811c60ff83811c9190911c800280831c81831c1c800280841c81841c1c800280851c81851c1c800280861c81861c1c800280871c81871c1c800280881c81881c1c800280891c81891c1c8002808a1c818a1c1c8002808b1c818b1c1c8002808c1c818c1c1c8002808d1c818d1c1c8002808e1c9c81901c9c909c1c80029c8d901c9e9d607f198f0160401b60c09190911c678000000000000000161760c19b909b1c674000000000000000169a909a1760c29990991c672000000000000000169890981760c39790971c671000000000000000169690961760c49590951c670800000000000000169490941760c59390931c670400000000000000169290921760c69190911c670200000000000000161760c79190911c670100000000000000161760c89190911c6680000000000000161760c99190911c6640000000000000161760ca9190911c6620000000000000161760cb9190911c6610000000000000161760cc9190911c6608000000000000161760cd9190911c66040000000000001617693627a301d71055774c8581026f028f6481ab7f045a5af012a19d003aa9198101608090811d906fdb2df09e81959a81455e260799a0632f8301901d600281810b9083900b1461176757886001600160a01b031661174b82611a75565b6001600160a01b031611156117605781611762565b805b611769565b815b9998505050505050505050565b60008561178557506000610f76565b841580611790575083155b1561179d57506000610f76565b60006117ac8760ff86166117ee565b905060006117ba82876117ee565b905060006117d5836117cf8a60ff89166117ee565b90611822565b90508082816117e057fe5b049998505050505050505050565b60008215806118095750508181028183828161180657fe5b04145b6102f057600080fd5b808203828111156102f057600080fd5b808201828110156102f057600080fd5b61183a6126fc565b61184382612043565b816040019061ffff16908161ffff1681525050816001600160a01b0316633850c7bd6040518163ffffffff1660e01b815260040160e06040518083038186803b15801561188f57600080fd5b505afa1580156118a3573d6000803e3d6000fd5b505050506040513d60e08110156118b957600080fd5b508051602091820151600290810b900b918301919091526001600160a01b03168152919050565b60008361192957816001600160a01b0316836001600160a01b0316118015611924575073fffd8963efd1fc6a506488495d951d5263988d266001600160a01b038416105b611957565b816001600160a01b0316836001600160a01b031610801561195757506401000276a36001600160a01b038416115b9050806119ab576040805162461bcd60e51b815260206004820152601c60248201527f7371727450726963654c696d6974206f7574206f6620626f756e647300000000604482015290519081900360640190fd5b50505050565b6000816001600160a01b031663d0c93a7c6040518163ffffffff1660e01b815260040160206040518083038186803b1580156119ec57600080fd5b505afa158015611a00573d6000803e3d6000fd5b505050506040513d6020811015611a1657600080fd5b505192915050565b6000816001600160a01b0316631a6865026040518163ffffffff1660e01b815260040160206040518083038186803b1580156119ec57600080fd5b600080611a688686868661211a565b9150915094509492505050565b60008060008360020b12611a8c578260020b611a94565b8260020b6000035b9050620d89e8811115611ad2576040805162461bcd60e51b81526020600482015260016024820152601560fa1b604482015290519081900360640190fd5b600060018216611ae657600160801b611af8565b6ffffcb933bd6fad37aa2d162d1a5940015b70ffffffffffffffffffffffffffffffffff1690506002821615611b2c576ffff97272373d413259a46990580e213a0260801c5b6004821615611b4b576ffff2e50f5f656932ef12357cf3c7fdcc0260801c5b6008821615611b6a576fffe5caca7e10e4e61c3624eaa0941cd00260801c5b6010821615611b89576fffcb9843d60f6159c9db58835c9266440260801c5b6020821615611ba8576fff973b41fa98c081472e6896dfb254c00260801c5b6040821615611bc7576fff2ea16466c96a3843ec78b326b528610260801c5b6080821615611be6576ffe5dee046a99a2a811c461f1969c30530260801c5b610100821615611c06576ffcbe86c7900a88aedcffc83b479aa3a40260801c5b610200821615611c26576ff987a7253ac413176f2b074cf7815e540260801c5b610400821615611c46576ff3392b0822b70005940c7a398e4b70f30260801c5b610800821615611c66576fe7159475a2c29b7443b29c7fa6e889d90260801c5b611000821615611c86576fd097f3bdfd2022b8845ad8f792aa58250260801c5b612000821615611ca6576fa9f746462d870fdf8a65dc1f90e061e50260801c5b614000821615611cc6576f70d869a156d2a1b890bb3df62baf32f70260801c5b618000821615611ce6576f31be135f97d08fd981231505542fcfa60260801c5b62010000821615611d07576f09aa508b5b7a84e1c677de54f3e99bc90260801c5b62020000821615611d27576e5d6af8dedb81196699c329225ee6040260801c5b62040000821615611d46576d2216e584f5fa1ea926041bedfe980260801c5b62080000821615611d63576b048a170391f7dc42444e8fa20260801c5b60008460020b1315611d7e578060001981611d7a57fe5b0490505b640100000000810615611d92576001611d95565b60005b60ff16602082901c0192505050919050565b6000808060001985870986860292508281109083900303905080611ddd5760008411611dd257600080fd5b5082900490506110b5565b808411611de957600080fd5b6000848688096000868103871696879004966002600389028118808a02820302808a02820302808a02820302808a02820302808a02820302808a02909103029181900381900460010186841190950394909402919094039290920491909117919091029150509392505050565b6000836001600160a01b0316856001600160a01b03161115611e76579293925b81611ea357611e9e836001600160801b03168686036001600160a01b0316600160601b611da7565b610f76565b610f76836001600160801b03168686036001600160a01b0316600160601b612009565b6000836001600160a01b0316856001600160a01b03161115611ee6579293925b600160601b600160e01b03606084901b166001600160a01b038686038116908716611f1057600080fd5b83611f4057866001600160a01b0316611f338383896001600160a01b0316611da7565b81611f3a57fe5b04611f66565b611f66611f578383896001600160a01b0316612009565b886001600160a01b0316612318565b979650505050505050565b600080856001600160a01b031611611f8857600080fd5b6000846001600160801b031611611f9e57600080fd5b81611fb057611e9e8585856001612323565b610f768585856001612404565b600080856001600160a01b031611611fd457600080fd5b6000846001600160801b031611611fea57600080fd5b81611ffc57611e9e8585856000612404565b610f768585856000612323565b6000612016848484611da7565b90506000828061202257fe5b84860911156110b557600019811061203957600080fd5b6001019392505050565b6000816001600160a01b031663da3c300d6040518163ffffffff1660e01b815260040160206040518083038186803b15801561207e57600080fd5b505afa9250505080156120a357506040513d602081101561209e57600080fd5b505160015b61211357816001600160a01b031663ddca3f436040518163ffffffff1660e01b815260040160206040518083038186803b1580156120e057600080fd5b505afa1580156120f4573d6000803e3d6000fd5b505050506040513d602081101561210a57600080fd5b50519050610eea565b9050610eea565b6000808581600286810b9088900b8161212f57fe5b05905060008760020b12801561215657508560020b8760020b8161214f57fe5b0760020b15155b1561216057600019015b841561223757600080612172836124e0565b6040805163299ce14b60e11b8152600184810b6004830152915193955091935060ff84161b8001600019019160009183916001600160a01b03891691635339c296916024808301926020929190829003018186803b1580156121d357600080fd5b505afa1580156121e7573d6000803e3d6000fd5b505050506040513d60208110156121fd57600080fd5b505116801515975090508661221957898360ff1686030261222c565b89612223826124f2565b840360ff168603025b97505050505061230d565b600080612246836001016124e0565b91509150600060018260ff166001901b03199050600081866001600160a01b0316635339c296866040518263ffffffff1660e01b8152600401808260010b815260200191505060206040518083038186803b1580156122a457600080fd5b505afa1580156122b8573d6000803e3d6000fd5b505050506040513d60208110156122ce57600080fd5b50511680151597509050866122f057898360ff0360ff16866001010102612306565b89836122fb83612592565b0360ff168660010101025b9750505050505b505094509492505050565b808204910615150190565b600081156123965760006001600160a01b038411156123595761235484600160601b876001600160801b0316611da7565b612371565b6001600160801b038516606085901b8161236f57fe5b045b905061238e6123896001600160a01b03881683611822565b61267c565b9150506104aa565b60006001600160a01b038411156123c4576123bf84600160601b876001600160801b0316612009565b6123db565b6123db606085901b6001600160801b038716612318565b905080866001600160a01b0316116123f257600080fd5b6001600160a01b0386160390506104aa565b6000826124125750836104aa565b600160601b600160e01b03606085901b168215612499576001600160a01b0386168481029085828161244057fe5b0414156124715781810182811061246f5761246583896001600160a01b031683612009565b93505050506104aa565b505b6124908261248b878a6001600160a01b03168681610f6a57fe5b612318565b925050506104aa565b6001600160a01b038616848102908582816124b057fe5b041480156124bd57508082115b6124c657600080fd5b808203612465612389846001600160a01b038b1684612009565b60020b600881901d9161010090910790565b600080821161250057600080fd5b600160801b821061251357608091821c91015b68010000000000000000821061252b57604091821c91015b640100000000821061253f57602091821c91015b62010000821061255157601091821c91015b610100821061256257600891821c91015b6010821061257257600491821c91015b6004821061258257600291821c91015b60028210610eea57600101919050565b60008082116125a057600080fd5b5060ff6001600160801b038216156125bb57607f19016125c3565b608082901c91505b67ffffffffffffffff8216156125dc57603f19016125e4565b604082901c91505b63ffffffff8216156125f957601f1901612601565b602082901c91505b61ffff82161561261457600f190161261c565b601082901c91505b60ff82161561262e5760071901612636565b600882901c91505b600f8216156126485760031901612650565b600482901c91505b6003821615612662576001190161266a565b600282901c91505b6001821615610eea5760001901919050565b806001600160a01b0381168114610eea57600080fd5b6040805160e081018252600080825260208201819052918101829052606081018290526080810182905260a0810182905260c081019190915290565b6040805160a08101825260008082526020820181905291810182905260608101829052608081019190915290565b604080516060810182526000808252602082018190529181019190915290565b8051610eea81612bec565b600082601f830112612737578081fd5b813567ffffffffffffffff81111561274b57fe5b61275e601f8201601f1916602001612bc8565b818152846020838601011115612772578283fd5b816020850160208301379081016020019190915292915050565b80516001600160701b0381168114610eea57600080fd5b8051610eea81612c04565b6000602082840312156127bf578081fd5b81516110b581612bec565b600080600080608085870312156127df578283fd5b84356127ea81612bec565b935060208501356127fa81612bec565b9250604085013561280a81612bec565b9396929550929360600135925050565b60008060008060008060c08789031215612832578182fd5b863561283d81612bec565b9550602087013561284d81612bec565b9450604087013561285d81612bec565b9350606087013561286d81612c04565b9250608087013561287d81612c04565b8092505060a087013590509295509295509295565b600080600080608085870312156128a7578384fd5b84356128b281612bec565b9350602085013580151581146128c6578384fd5b92506040850135915060608501356128dd81612bec565b939692955090935050565b600060208083850312156128fa578182fd5b825167ffffffffffffffff80821115612911578384fd5b818501915085601f830112612924578384fd5b81518181111561293057fe5b61293d8485830201612bc8565b8181528481019084860160c0808502870188018b101561295b578889fd5b8896505b84871015612a095780828c031215612975578889fd5b60408051828101818110898211171561298a57fe5b8252835161299781612bec565b81526129a4848b0161271c565b8a8201526129b382850161271c565b82820152606091506129c68285016127a3565b82820152608091506129d98285016127a3565b8282015260a091506129ec8285016127a3565b91810191909152845260019690960195928701929081019061295f565b50909998505050505050505050565b600060208284031215612a29578081fd5b813567ffffffffffffffff811115612a3f578182fd5b6104aa84828501612727565b60008060408385031215612a5d578182fd5b823567ffffffffffffffff811115612a73578283fd5b612a7f85828601612727565b95602094909401359450505050565b600080600060608486031215612aa2578081fd5b612aab8461278c565b9250612ab96020850161278c565b9150604084015163ffffffff81168114612ad1578182fd5b809150509250925092565b602080825282518282018190526000919060409081850190868401855b82811015612b6057815180516001600160a01b0390811686528782015181168887015286820151168686015260608082015160ff9081169187019190915260808083015182169087015260a091820151169085015260c09093019290850190600101612af9565b5091979650505050505050565b6020808252825182820181905260009190848201906040850190845b81811015612ba557835183529284019291840191600101612b89565b50909695505050505050565b918252602082015260400190565b90815260200190565b60405181810167ffffffffffffffff81118282101715612be457fe5b604052919050565b6001600160a01b0381168114612c0157600080fd5b50565b60ff81168114612c0157600080fdfea26469706673582212204672e4ae9d3e67292e5e63e4051c0cc5e8a100a65759e9ead813edcdef8a3f1b64736f6c63430007060033",
  "linkReferences": {},
  "deployedLinkReferences": {}
}